{
  "address": "0xC2687d1A7e75A1cE3ca888BDc44234D5109B7BcA",
  "abi": [
    {
      "inputs": [
        {
          "internalType": "bytes",
          "name": "_anchors",
          "type": "bytes"
        }
      ],
      "stateMutability": "nonpayable",
      "type": "constructor"
    },
    {
      "anonymous": false,
      "inputs": [
        {
          "indexed": false,
          "internalType": "uint8",
          "name": "id",
          "type": "uint8"
        },
        {
          "indexed": false,
          "internalType": "address",
          "name": "addr",
          "type": "address"
        }
      ],
      "name": "AlgorithmUpdated",
      "type": "event"
    },
    {
      "anonymous": false,
      "inputs": [
        {
          "indexed": false,
          "internalType": "uint8",
          "name": "id",
          "type": "uint8"
        },
        {
          "indexed": false,
          "internalType": "address",
          "name": "addr",
          "type": "address"
        }
      ],
      "name": "DigestUpdated",
      "type": "event"
    },
    {
      "anonymous": false,
      "inputs": [],
      "name": "Marker",
      "type": "event"
    },
    {
      "anonymous": false,
      "inputs": [
        {
          "indexed": false,
          "internalType": "uint8",
          "name": "id",
          "type": "uint8"
        },
        {
          "indexed": false,
          "internalType": "address",
          "name": "addr",
          "type": "address"
        }
      ],
      "name": "NSEC3DigestUpdated",
      "type": "event"
    },
    {
      "anonymous": false,
      "inputs": [
        {
          "indexed": false,
          "internalType": "bytes",
          "name": "name",
          "type": "bytes"
        },
        {
          "indexed": false,
          "internalType": "bytes",
          "name": "rrset",
          "type": "bytes"
        }
      ],
      "name": "RRSetUpdated",
      "type": "event"
    },
    {
      "anonymous": false,
      "inputs": [
        {
          "indexed": false,
          "internalType": "uint256",
          "name": "t",
          "type": "uint256"
        }
      ],
      "name": "Test",
      "type": "event"
    },
    {
      "inputs": [
        {
          "internalType": "uint8",
          "name": "",
          "type": "uint8"
        }
      ],
      "name": "algorithms",
      "outputs": [
        {
          "internalType": "contract Algorithm",
          "name": "",
          "type": "address"
        }
      ],
      "stateMutability": "view",
      "type": "function"
    },
    {
      "inputs": [],
      "name": "anchors",
      "outputs": [
        {
          "internalType": "bytes",
          "name": "",
          "type": "bytes"
        }
      ],
      "stateMutability": "view",
      "type": "function"
    },
    {
      "inputs": [
        {
          "internalType": "uint16",
          "name": "deleteType",
          "type": "uint16"
        },
        {
          "internalType": "bytes",
          "name": "deleteName",
          "type": "bytes"
        },
        {
          "components": [
            {
              "internalType": "bytes",
              "name": "rrset",
              "type": "bytes"
            },
            {
              "internalType": "bytes",
              "name": "sig",
              "type": "bytes"
            }
          ],
          "internalType": "struct DNSSEC.RRSetWithSignature",
          "name": "nsec",
          "type": "tuple"
        },
        {
          "internalType": "bytes",
          "name": "proof",
          "type": "bytes"
        }
      ],
      "name": "deleteRRSet",
      "outputs": [],
      "stateMutability": "nonpayable",
      "type": "function"
    },
    {
      "inputs": [
        {
          "internalType": "uint16",
          "name": "deleteType",
          "type": "uint16"
        },
        {
          "internalType": "bytes",
          "name": "deleteName",
          "type": "bytes"
        },
        {
          "components": [
            {
              "internalType": "bytes",
              "name": "rrset",
              "type": "bytes"
            },
            {
              "internalType": "bytes",
              "name": "sig",
              "type": "bytes"
            }
          ],
          "internalType": "struct DNSSEC.RRSetWithSignature",
          "name": "closestEncloser",
          "type": "tuple"
        },
        {
          "components": [
            {
              "internalType": "bytes",
              "name": "rrset",
              "type": "bytes"
            },
            {
              "internalType": "bytes",
              "name": "sig",
              "type": "bytes"
            }
          ],
          "internalType": "struct DNSSEC.RRSetWithSignature",
          "name": "nextClosest",
          "type": "tuple"
        },
        {
          "internalType": "bytes",
          "name": "dnskey",
          "type": "bytes"
        }
      ],
      "name": "deleteRRSetNSEC3",
      "outputs": [],
      "stateMutability": "nonpayable",
      "type": "function"
    },
    {
      "inputs": [
        {
          "internalType": "uint8",
          "name": "",
          "type": "uint8"
        }
      ],
      "name": "digests",
      "outputs": [
        {
          "internalType": "contract Digest",
          "name": "",
          "type": "address"
        }
      ],
      "stateMutability": "view",
      "type": "function"
    },
    {
      "inputs": [
        {
          "internalType": "uint8",
          "name": "",
          "type": "uint8"
        }
      ],
      "name": "nsec3Digests",
      "outputs": [
        {
          "internalType": "contract NSEC3Digest",
          "name": "",
          "type": "address"
        }
      ],
      "stateMutability": "view",
      "type": "function"
    },
    {
      "inputs": [],
      "name": "owner",
      "outputs": [
        {
          "internalType": "address",
          "name": "",
          "type": "address"
        }
      ],
      "stateMutability": "view",
      "type": "function"
    },
    {
      "inputs": [
        {
          "internalType": "uint16",
          "name": "dnstype",
          "type": "uint16"
        },
        {
          "internalType": "bytes",
          "name": "name",
          "type": "bytes"
        }
      ],
      "name": "rrdata",
      "outputs": [
        {
          "internalType": "uint32",
          "name": "",
          "type": "uint32"
        },
        {
          "internalType": "uint32",
          "name": "",
          "type": "uint32"
        },
        {
          "internalType": "bytes20",
          "name": "",
          "type": "bytes20"
        }
      ],
      "stateMutability": "view",
      "type": "function"
    },
    {
      "inputs": [
        {
          "internalType": "uint8",
          "name": "id",
          "type": "uint8"
        },
        {
          "internalType": "contract Algorithm",
          "name": "algo",
          "type": "address"
        }
      ],
      "name": "setAlgorithm",
      "outputs": [],
      "stateMutability": "nonpayable",
      "type": "function"
    },
    {
      "inputs": [
        {
          "internalType": "uint8",
          "name": "id",
          "type": "uint8"
        },
        {
          "internalType": "contract Digest",
          "name": "digest",
          "type": "address"
        }
      ],
      "name": "setDigest",
      "outputs": [],
      "stateMutability": "nonpayable",
      "type": "function"
    },
    {
      "inputs": [
        {
          "internalType": "uint8",
          "name": "id",
          "type": "uint8"
        },
        {
          "internalType": "contract NSEC3Digest",
          "name": "digest",
          "type": "address"
        }
      ],
      "name": "setNSEC3Digest",
      "outputs": [],
      "stateMutability": "nonpayable",
      "type": "function"
    },
    {
      "inputs": [
        {
          "internalType": "address",
          "name": "newOwner",
          "type": "address"
        }
      ],
      "name": "setOwner",
      "outputs": [],
      "stateMutability": "nonpayable",
      "type": "function"
    },
    {
      "inputs": [
        {
          "components": [
            {
              "internalType": "bytes",
              "name": "rrset",
              "type": "bytes"
            },
            {
              "internalType": "bytes",
              "name": "sig",
              "type": "bytes"
            }
          ],
          "internalType": "struct DNSSEC.RRSetWithSignature",
          "name": "input",
          "type": "tuple"
        },
        {
          "internalType": "bytes",
          "name": "proof",
          "type": "bytes"
        }
      ],
      "name": "submitRRSet",
      "outputs": [
        {
          "internalType": "bytes",
          "name": "",
          "type": "bytes"
        }
      ],
      "stateMutability": "nonpayable",
      "type": "function"
    },
    {
      "inputs": [
        {
          "components": [
            {
              "internalType": "bytes",
              "name": "rrset",
              "type": "bytes"
            },
            {
              "internalType": "bytes",
              "name": "sig",
              "type": "bytes"
            }
          ],
          "internalType": "struct DNSSEC.RRSetWithSignature[]",
          "name": "input",
          "type": "tuple[]"
        },
        {
          "internalType": "bytes",
          "name": "proof",
          "type": "bytes"
        }
      ],
      "name": "submitRRSets",
      "outputs": [
        {
          "internalType": "bytes",
          "name": "",
          "type": "bytes"
        }
      ],
      "stateMutability": "nonpayable",
      "type": "function"
    }
  ],
  "transactionHash": "0x3c90ddcf01da66f1b2d9e45861f0001970f5f6092546930de06dbd3072d34914",
  "args": [
    "0x00002b000100000e1000244a5c080249aac11d7b6f6446702e54a1607371607a1a41855200fd2ce1cdde32f24e8fb500002b000100000e1000244f660802e06d44b80b8f1d39a95c0b0d7c65d08458e880409bbc683457104237c7f8ec8d"
  ],
  "solcInputHash": "077ac046ae50ca035da192b533ece378",
  "bytecode": "0x60806040523480156200001157600080fd5b50604051620039513803806200395183398101604081905262000034916200023c565b600180546001600160a01b0319163317905580516200005b90600090602084019062000180565b5060408051606081018252600080825263e090bba060208301528251919283019162000088919062000354565b60408051918290039091206001600160601b031916909152602b60009081527fc92a43746f20f69898978a3075767b860ba247ac0639d1831bf8c942c5db2389602090815283517f95c6356c1b7a542b884d2484ef785c9c7224e77e1016c20007bddc15c23b452f8054928601519585015160601c6801000000000000000002600160401b600160e01b031963ffffffff978816640100000000026001600160401b03199095169790931696909617929092171693909317909255517f55ced933cdd5a34dd03eb5d4bef19ec6ebb251dcd7a988eee0c1b9a13baaa88b916200017191620003ce565b60405180910390a15062000470565b8280546200018e9062000318565b90600052602060002090601f016020900481019282620001b25760008555620001fd565b82601f10620001cd57805160ff1916838001178555620001fd565b82800160010185558215620001fd579182015b82811115620001fd578251825591602001919060010190620001e0565b506200020b9291506200020f565b5090565b5b808211156200020b576000815560010162000210565b634e487b7160e01b600052604160045260246000fd5b600060208083850312156200025057600080fd5b82516001600160401b03808211156200026857600080fd5b818501915085601f8301126200027d57600080fd5b81518181111562000292576200029262000226565b604051601f8201601f19908116603f01168101908382118183101715620002bd57620002bd62000226565b816040528281528886848701011115620002d657600080fd5b600093505b82841015620002fa5784840186015181850187015292850192620002db565b828411156200030c5760008684830101525b98975050505050505050565b600181811c908216806200032d57607f821691505b6020821081036200034e57634e487b7160e01b600052602260045260246000fd5b50919050565b6000808354620003648162000318565b600182811680156200037f57600181146200039157620003c2565b60ff19841687528287019450620003c2565b8760005260208060002060005b85811015620003b95781548a8201529084019082016200039e565b50505082870194505b50929695505050505050565b604081526000600180604084015260006060840152602060808185015260008554620003fa8162000318565b80608088015260a0858316600081146200041d5760018114620004325762000462565b60ff1984168983015260c08901945062000462565b896000528560002060005b848110156200045a5781548b82018501529088019087016200043d565b8a0183019550505b509298975050505050505050565b6134d180620004806000396000f3fe608060405234801561001057600080fd5b50600436106100ea5760003560e01c806373cc48a61161008c57806398d35f201161006657806398d35f201461025b578063bd7ed31a14610263578063c327deef14610299578063d7b82ebe146102cf57600080fd5b806373cc48a6146101cd5780638438dc04146102285780638da5cb5b1461023b57600080fd5b806313af4035116100c857806313af40351461017457806328e7677d146101875780632c095cbb1461019a578063435cc162146101ad57600080fd5b8063020ed8d3146100ef578063087991bc146101045780630b1a249514610161575b600080fd5b6101026100fd366004612a01565b6102e2565b005b610117610112366004612a4a565b610396565b6040805163ffffffff94851681529390921660208401527fffffffffffffffffffffffffffffffffffffffff00000000000000000000000016908201526060015b60405180910390f35b61010261016f366004612c63565b61040b565b610102610182366004612d21565b6105fa565b610102610195366004612a01565b610665565b6101026101a8366004612d3e565b610711565b6101c06101bb366004612dd7565b61084f565b6040516101589190612f28565b6102036101db366004612f3b565b60046020526000908152604090205473ffffffffffffffffffffffffffffffffffffffff1681565b60405173ffffffffffffffffffffffffffffffffffffffff9091168152602001610158565b610102610236366004612a01565b61089f565b6001546102039073ffffffffffffffffffffffffffffffffffffffff1681565b6101c061094b565b610203610271366004612f3b565b60056020526000908152604090205473ffffffffffffffffffffffffffffffffffffffff1681565b6102036102a7366004612f3b565b60036020526000908152604090205473ffffffffffffffffffffffffffffffffffffffff1681565b6101c06102dd366004612f56565b6109d9565b60015473ffffffffffffffffffffffffffffffffffffffff16331461030657600080fd5b60ff821660008181526003602090815260409182902080547fffffffffffffffffffffffff00000000000000000000000000000000000000001673ffffffffffffffffffffffffffffffffffffffff86169081179091558251938452908301527ff73c3c226af96b7f1ba666a21b3ceaf2be3ee6a365e3178fd9cd1eaae0075aa891015b60405180910390a15050565b6000806000806002600087876040516103b0929190612fa3565b60408051918290039091208252602080830193909352908101600090812061ffff8b16825290925290205463ffffffff8082169550640100000000820416935068010000000000000000900460601b91505093509350939050565b8351602080860191909120600090815260028252604080822061ffff891683529092529081205463ffffffff169061044385846109ec565b9050610450818784610add565b604080516101408101825260008082526020820181905291810182905260608082018390526080820183905260a0820183905260c082019290925260e081018290526101008101829052610120810191909152845151156104c2576104b585856109ec565b90506104c2818885610add565b60006104cd83610b23565b602081015190915060fe16156104e257600080fd5b6104ed816027610b82565b1580156105125750610500816002610b82565b15806105125750610512816006610b82565b61051b57600080fd5b61052c898985610120015184610b94565b156105805787516020808a0191909120600090815260028252604080822061ffff8d1683529092522080547fffffffff000000000000000000000000000000000000000000000000000000001690556105ef565b61059f888461012001518385610120015161059a87610b23565b610bc4565b156100ea5787516020808a0191909120600090815260028252604080822061ffff8d1683529092522080547fffffffff000000000000000000000000000000000000000000000000000000001690555b505050505050505050565b60015473ffffffffffffffffffffffffffffffffffffffff16331461061e57600080fd5b600180547fffffffffffffffffffffffff00000000000000000000000000000000000000001673ffffffffffffffffffffffffffffffffffffffff92909216919091179055565b60015473ffffffffffffffffffffffffffffffffffffffff16331461068957600080fd5b60ff821660008181526004602090815260409182902080547fffffffffffffffffffffffff00000000000000000000000000000000000000001673ffffffffffffffffffffffffffffffffffffffff86169081179091558251938452908301527f2fcc274c3b72dd483ab201bfa87295e3817e8b9b10693219873b722ca1af00c7910161038a565b604080516101408101825260008082526020820181905291810182905260608082018390526080820183905260a0820183905260c082019290925260e08101829052610100810182905261012081019190915261076e83836109ec565b805190915061ffff16602f1461078357600080fd5b60a08101518451602080870191909120600090815260028252604080822061ffff8a16835290925220546107bd919063ffffffff16610cdf565b6107c657600080fd5b60006107d182610cf8565b905080515160208201511015610843576107f2818361012001518789610d56565b50508251602080850191909120600090815260028252604080822061ffff881683529092522080547fffffffff00000000000000000000000000000000000000000000000000000000169055610849565b50600080fd5b50505050565b606060005b83518110156108945761088084828151811061087257610872612fb3565b602002602001015184610f04565b92508061088c81613011565b915050610854565b508190505b92915050565b60015473ffffffffffffffffffffffffffffffffffffffff1633146108c357600080fd5b60ff821660008181526005602090815260409182902080547fffffffffffffffffffffffff00000000000000000000000000000000000000001673ffffffffffffffffffffffffffffffffffffffff86169081179091558251938452908301527fc7eec866a7a1386188cc3ca20ffea75b71bd3e90a60b6791b1d3f0971145118d910161038a565b600080546109589061302b565b80601f01602080910402602001604051908101604052809291908181526020018280546109849061302b565b80156109d15780601f106109a6576101008083540402835291602001916109d1565b820191906000526020600020905b8154815290600101906020018083116109b457829003601f168201915b505050505081565b60606109e58383610f04565b9392505050565b604080516101408101825260008082526020820181905291810182905260608082018390526080820183905260a0820183905260c082019290925260e0810182905261010081018290526101208101919091528251610a4a9061112c565b9050610a5a8160e001518361126e565b610a6357600080fd5b6000610a738283600001516112f3565b604083015190915060ff16610a898260006113a1565b14610a9357600080fd5b61012082018190526080820151610aaa9042610cdf565b610ab357600080fd5b610ac1428360a00151610cdf565b610aca57600080fd5b610ad6818386866113fe565b5092915050565b610aeb8360a0015182610cdf565b610af457600080fd5b825161ffff16603214610b0657600080fd5b610b1583610120015183611507565b610b1e57600080fd5b505050565b6040805160c08101825260008082526020820181905291810182905260608082018190526080820183905260a082015290610b5d83610cf8565b60a081015160c08201519192506109e591610b79908290613078565b83519190611575565b60006109e58360a001516000846116bc565b6000610ba18284866117d1565b15610bb857610bb08286610b82565b159050610bbc565b5060005b949350505050565b602081015160009060fe1615610bd957600080fd5b6000610be4866117f8565b90506000610bf1856117f8565b9050600080610c008a82611814565b610c0b90600161308f565b60ff1690505b8951811015610ccd5783610c3d89610c3884858f51610c309190613078565b8f9190611838565b6118ba565b03610ca1576000610c5987610c3885868f51610c309190613078565b90508660800151841015610c85578381118015610c795750866080015181105b95505050505050610cd6565b83811180610c7957508660800151811095505050505050610cd6565b905080610cae8a82611814565b610cb990600161308f565b610cc69060ff16826130b4565b9050610c11565b50600093505050505b95945050505050565b600080610cec83856130cc565b60030b12159392505050565b610d466040518060e001604052806060815260200160008152602001600061ffff168152602001600061ffff168152602001600063ffffffff16815260200160008152602001600081525090565b610899826101000151600061196c565b60a08401518451600090610d6a90836119cd565b905060008660a001518760c00151610d829190613078565b9050818111610d9057600080fd5b6000610d9c8688611a27565b905080600003610dcb57610dbc610db384866130b4565b895190876116bc565b15610dc657600080fd5b610e12565b8751600090610ddb908686611838565b905060008213610dea57600080fd5b6000610df68983611a27565b12156105ef576000610e088883611a27565b126105ef57600080fd5b5050505050505050565b60c08101516020820181905281515111610e335750565b6000610e47826000015183602001516119cd565b8260200151610e5691906130b4565b8251909150610e659082611b80565b61ffff166040830152610e796002826130b4565b8251909150610e889082611b80565b61ffff166060830152610e9c6002826130b4565b8251909150610eab9082611ba8565b63ffffffff166080830152610ec16004826130b4565b8251909150600090610ed39083611b80565b61ffff169050610ee46002836130b4565b60a084018190529150610ef781836130b4565b60c0909301929092525050565b604080516101408101825260008082526020820181905291810182905260608181018390526080820183905260a0820183905260c082019290925260e0810182905261010081018290526101208101829052610f6084846109ec565b61012081015180516020918201206000908152600282526040808220845161ffff1683529092522080549192509068010000000000000000900460601b7fffffffffffffffffffffffffffffffffffffffff0000000000000000000000001615610fe45760a08201518154610fdb919063ffffffff16610cdf565b610fe457600080fd5b604080516060808201835260a085015163ffffffff9081168352608086015181166020808501918252610100880180518051908301207fffffffffffffffffffffffffffffffffffffffff000000000000000000000000168688019081526101208a0180518051908501206000908152600285528981208c5161ffff16825290945292889020965187549451915190961c68010000000000000000027fffffffff0000000000000000000000000000000000000000ffffffffffffffff918616640100000000027fffffffffffffffffffffffffffffffffffffffffffffffff0000000000000000909516969095169590951792909217939093169190911790925551905191517f55ced933cdd5a34dd03eb5d4bef19ec6ebb251dcd7a988eee0c1b9a13baaa88b926111179291613131565b60405180910390a15061010001519392505050565b604080516101408101825260008082526020820181905291810182905260608082018390526080820183905260a0820183905260c0820183905260e08201819052610100820181905261012082015290611187908390611b80565b61ffff168152611198826002611814565b60ff1660208201526111ab826003611814565b60ff1660408201526111be826004611ba8565b63ffffffff90811660608301526111da908390600890611ba816565b63ffffffff90811660808301526111f6908390600c90611ba816565b63ffffffff90811660a0830152611212908390601090611b8016565b61ffff1660c0820152611226826012611bd2565b60e08201819052516112639061123d9060126130b4565b8260e0015151601285516112519190613078565b61125b9190613078565b849190611838565b610100820152919050565b60008061128561127e84836119cd565b8490611b80565b8351602080860191909120865187830120600090815260028352604080822061ffff9095168252939092529190205468010000000000000000900460601b7fffffffffffffffffffffffffffffffffffffffff00000000000000000000000090811691161491505092915050565b6060600061130084610cf8565b90505b80515160208201511015610ad657606081015161ffff1660011461132657600080fd5b815160000361133f5761133881611bed565b915061137b565b6020810151815161134f916119cd565b82511461135b57600080fd5b805160208201518351611372928592600092611c0e565b61137b57600080fd5b8261ffff16816040015161ffff161461139357600080fd5b61139c81610e1c565b611303565b6000805b835183106113b5576113b5613156565b60006113c18585611814565b60ff1690506113d18160016130b4565b6113db90856130b4565b9350806000036113eb57506109e5565b6113f66001836130b4565b9150506113a5565b83518360e0015151111561141157600080fd5b6114366000858560e001515187516114299190613078565b60e0870151929190611c31565b61143f57600080fd5b600061144b828261196c565b9050602b61ffff16816040015161ffff160361147a5761146c848483611c66565b61147557600080fd5b611500565b603061ffff16816040015161ffff16036114995761146c848483611cff565b6040517f08c379a000000000000000000000000000000000000000000000000000000000815260206004820152601460248201527f4e6f2076616c69642070726f6f6620666f756e6400000000000000000000000060448201526064015b60405180910390fd5b5050505050565b6000806115148482611814565b61151f90600161308f565b60ff16905060005b8351811015610bb85761153c84828785611c31565b1561154c57600192505050610899565b6115568482611814565b61156190600161308f565b61156e9060ff16826130b4565b9050611527565b6040805160c08101825260008082526020820181905291810182905260608082018190526080820183905260a0820152906115b083856130b4565b90506115c76115c06000866130b4565b8690611814565b60ff1682526115da6115c06001866130b4565b60ff1660208301526115f76115f06002866130b4565b8690611b80565b61ffff16604083015260006116176116106004876130b4565b8790611814565b90506116246005866130b4565b9450611634868660ff8416611838565b606084015261164660ff8216866130b4565b945060006116548787611814565b905060208160ff16111561166757600080fd5b6116726001876130b4565b9550611682878760ff8416611da7565b608085015261169460ff8216876130b4565b95506116ac866116a48186613078565b899190611838565b60a0850152509195945050505050565b600060ff600883811c82169183916116d59186166131b4565b905060006116e76007808716906131d5565b600160ff919091161b9050855b87518110156117c35760006117098983611814565b9050600061172261171b8460016130b4565b8b90611814565b90508160ff168660ff16101561174157600096505050505050506109e5565b8160ff168660ff16036117a2578460ff168160ff161161176a57600096505050505050506109e5565b8361178d61177b60ff8816866130b4565b6117869060026130b4565b8c90611814565b1660ff166000141596505050505050506109e5565b6117ad81600261308f565b6117ba9060ff16846130b4565b925050506116f4565b506000979650505050505050565b6000806117de85846118ba565b905060006117eb856117f8565b9190911495945050505050565b600061089960016118098484611814565b84919060ff16611de8565b600082828151811061182857611828612fb3565b016020015160f81c905092915050565b825160609061184783856130b4565b111561185257600080fd5b60008267ffffffffffffffff81111561186d5761186d612acd565b6040519080825280601f01601f191660200182016040528015611897576020820181803683370190505b509050602080820190868601016118af828287612068565b509095945050505050565b815160ff166000908152600560205260408082205460608501518286015192517f68f9dab200000000000000000000000000000000000000000000000000000000815273ffffffffffffffffffffffffffffffffffffffff909216926368f9dab29261192b929187916004016131f8565b602060405180830381865afa158015611948573d6000803e3d6000fd5b505050506040513d601f19601f820116820180604052508101906109e59190613232565b6119ba6040518060e001604052806060815260200160008152602001600061ffff168152602001600061ffff168152602001600063ffffffff16815260200160008152602001600081525090565b82815260c0810182905261089981610e1c565b6000815b835181106119e1576119e1613156565b60006119ed8583611814565b60ff1690506119fd8160016130b4565b611a0790836130b4565b915080600003611a175750611a1d565b506119d1565b610bbc8382613078565b6000611a3383836120be565b15611a4057506000610899565b6000806000806000611a538860006113a1565b90506000611a628860006113a1565b90505b80821115611a8e57859350611a7a89876120dc565b955081611a868161324b565b925050611a65565b81811115611ab757849250611aa388866120dc565b945080611aaf8161324b565b915050611a8e565b600082118015611ad05750611ace89878a88611c31565b155b15611b0557859350611ae289876120dc565b9550849250611af188866120dc565b9450611afe600183613078565b9150611ab7565b85600003611b1d576000199650505050505050610899565b84600003611b345760019650505050505050610899565b611b73611b428560016130b4565b611b4c8b87611814565b60ff168a611b5b8760016130b4565b611b658d89611814565b8e949392919060ff16612100565b9998505050505050505050565b8151600090611b908360026130b4565b1115611b9b57600080fd5b50016002015161ffff1690565b8151600090611bb88360046130b4565b1115611bc357600080fd5b50016004015163ffffffff1690565b60606000611be084846119cd565b9050610bbc848483611838565b6020810151815160609161089991611c0590826119cd565b84519190611838565b6000611c1b8484846121f5565b611c268787856121f5565b149695505050505050565b6000611c4a8383848651611c459190613078565b6121f5565b611c5c8686878951611c459190613078565b1495945050505050565b600080611c7285610cf8565b90505b80515160208201511015610bb857604081015161ffff16603014611c9857600080fd5b6000611ca382612219565b90506000611cbe60008351846122359092919063ffffffff16565b9050611ccc818389896122d3565b15611cef57611ce5611cdd84611bed565b8683856123fe565b93505050506109e5565b5050611cfa81610e1c565b611c75565b6000611d188460e00151611d1284611bed565b906120be565b611d2157600080fd5b81515160208301511015611d9d57611d408460e00151611d1284611bed565b611d4957600080fd5b6000611d5483612219565b90506000611d6f60008351846122359092919063ffffffff16565b9050611d7d818388886122d3565b15611d8d576001925050506109e5565b5050611d9882610e1c565b611d21565b5060009392505050565b60006020821115611db757600080fd5b8351611dc383856130b4565b1115611dce57600080fd5b506020919092018101519190036101000a60001901191690565b60006034821115611df857600080fd5b600080805b84811015611f4c57600087611e1283896130b4565b81518110611e2257611e22612fb3565b01602001517fff000000000000000000000000000000000000000000000000000000000000001690507f30000000000000000000000000000000000000000000000000000000000000008110801590611ebd57507f7a000000000000000000000000000000000000000000000000000000000000007fff00000000000000000000000000000000000000000000000000000000000000821611155b611ec657600080fd5b60405180608001604052806047815260200161345560479139611eee603060f884901c613078565b81518110611efe57611efe612fb3565b0160209081015160f81c9350831115611f1657600080fd5b611f21600187613078565b8203611f2d5750611f4c565b5060059290921b60ff8216179180611f4481613011565b915050611dfd565b506000611f5a856005613262565b9050611f67600886613281565b600003611f7f578160ff16600584901b17925061204e565b611f8a600886613281565b600203611fb85760028260ff16901c60ff16600384901b179250600281611fb19190613078565b905061204e565b611fc3600886613281565b600403611fea5760048260ff16901c60ff16600184901b179250600481611fb19190613078565b611ff5600886613281565b60050361201c5760018260ff16901c60ff16600484901b179250600181611fb19190613078565b612027600886613281565b6007036100ea5760038260ff16901c60ff16600284901b179250600381611fb19190613078565b61205a81610100613078565b9290921b9695505050505050565b602081106120a0578151835261207f6020846130b4565b925061208c6020836130b4565b9150612099602082613078565b9050612068565b905182516020929092036101000a6000190180199091169116179052565b6000815183511480156109e557506109e58360008460008751611c0e565b60006120e88383611814565b60ff166120f68360016130b4565b6109e591906130b4565b6000848083101561210e5750815b60208789018101908587010160005b838110156121da57825182518082146121aa57600060208711156121445750600019612180565b600184612152896020613078565b61215c91906130b4565b612167906008613262565b612172906002613379565b61217c9190613078565b1990505b6000612190838316858416613385565b905080156121a75797506121eb9650505050505050565b50505b6121b56020866130b4565b94506121c26020856130b4565b935050506020816121d391906130b4565b905061211d565b506121e58589613385565b93505050505b9695505050505050565b825160009061220483856130b4565b111561220f57600080fd5b5091016020012090565b60a081015160c082015160609161089991611c05908290613078565b604080516080810182526000808252602082018190529181019190915260608082015261226d6122666000856130b4565b8590611b80565b61ffff1681526122886122816002856130b4565b8590611814565b60ff16602082015261229e6122816003856130b4565b60ff1660408201526122c76122b46004856130b4565b6122bf600485613078565b869190611838565b60608201529392505050565b6000846020015160ff166003146122ec57506000610bbc565b826020015160ff16856040015160ff161461230957506000610bbc565b6000612314856124ff565b90508360c0015161ffff168161ffff1614612333576000915050610bbc565b85516101001660000361234a576000915050610bbc565b60408087015160ff16600090815260036020908152908290205485519186015192517fde8f50a100000000000000000000000000000000000000000000000000000000815273ffffffffffffffffffffffffffffffffffffffff9091169263de8f50a1926123bd928a92906004016133f9565b602060405180830381865afa1580156123da573d6000803e3d6000fd5b505050506040513d601f19601f820116820180604052508101906121eb9190613432565b60008061240a836124ff565b90505b845151602086015110156124f35760a085015160c086015160009161244091612437908290613078565b88519190612235565b90508161ffff16816000015161ffff161461245b57506124e5565b846040015160ff16816020015160ff161461247657506124e5565b6040805180820190915260608152600060208201526124a38551895161249c91906130b4565b8290612743565b506124ae81896127a8565b506124b981866127a8565b506124d18260400151826000015184606001516127cf565b156124e25760019350505050610bbc565b50505b6124ee85610e1c565b61240d565b50600095945050505050565b60006120008251111561256e576040517f08c379a000000000000000000000000000000000000000000000000000000000815260206004820152601760248201527f4c6f6e67206b657973206e6f74207065726d697474656400000000000000000060448201526064016114f7565b60008060005b8451601f018110156125e357600081602087010151905085518260200111156125a95785518290036008026101000390811c901b5b7eff00ff00ff00ff00ff00ff00ff00ff00ff00ff00ff00ff00ff00ff00ff00ff600882901c81169490940193169190910190602001612574565b506010827fffff0000ffff0000ffff0000ffff0000ffff0000ffff0000ffff0000ffff000016901c827dffff0000ffff0000ffff0000ffff0000ffff0000ffff0000ffff0000ffff160191506010817fffff0000ffff0000ffff0000ffff0000ffff0000ffff0000ffff0000ffff000016901c817dffff0000ffff0000ffff0000ffff0000ffff0000ffff0000ffff0000ffff1601905080600883901b0191506020827fffffffff00000000ffffffff00000000ffffffff00000000ffffffff0000000016901c827bffffffff00000000ffffffff00000000ffffffff00000000ffffffff160191506040827fffffffffffffffff0000000000000000ffffffffffffffff000000000000000016901c8277ffffffffffffffff0000000000000000ffffffffffffffff16019150608082901c826fffffffffffffffffffffffffffffffff16019150601082901c61ffff16820191508192505050919050565b604080518082019091526060815260006020820152612763602083613281565b1561278b57612773602083613281565b61277e906020613078565b61278890836130b4565b91505b506020828101829052604080518085526000815290920101905290565b6040805180820190915260608152600060208201526109e5838460000151518485516128ae565b60ff831660009081526004602052604081205473ffffffffffffffffffffffffffffffffffffffff16612804575060006109e5565b60ff84166000908152600460208190526040918290205491517ff7e83aee00000000000000000000000000000000000000000000000000000000815273ffffffffffffffffffffffffffffffffffffffff9092169163f7e83aee9161286d918791879101613131565b602060405180830381865afa15801561288a573d6000803e3d6000fd5b505050506040513d601f19601f82011682018060405250810190610bbc9190613432565b60408051808201909152606081526000602082015282518211156128d157600080fd5b60208501516128e083866130b4565b11156129135761291385612903876020015187866128fe91906130b4565b612998565b61290e906002613262565b6129af565b6000808651805187602083010193508088870111156129325787860182525b505050602084015b6020841061297257805182526129516020836130b4565b915061295e6020826130b4565b905061296b602085613078565b935061293a565b51815160001960208690036101000a019081169019919091161790525083949350505050565b6000818311156129a9575081610899565b50919050565b81516129bb8383612743565b5061084983826127a8565b803560ff811681146129d757600080fd5b919050565b73ffffffffffffffffffffffffffffffffffffffff811681146129fe57600080fd5b50565b60008060408385031215612a1457600080fd5b612a1d836129c6565b91506020830135612a2d816129dc565b809150509250929050565b803561ffff811681146129d757600080fd5b600080600060408486031215612a5f57600080fd5b612a6884612a38565b9250602084013567ffffffffffffffff80821115612a8557600080fd5b818601915086601f830112612a9957600080fd5b813581811115612aa857600080fd5b876020828501011115612aba57600080fd5b6020830194508093505050509250925092565b7f4e487b7100000000000000000000000000000000000000000000000000000000600052604160045260246000fd5b604051601f82017fffffffffffffffffffffffffffffffffffffffffffffffffffffffffffffffe016810167ffffffffffffffff81118282101715612b4357612b43612acd565b604052919050565b600082601f830112612b5c57600080fd5b813567ffffffffffffffff811115612b7657612b76612acd565b612ba760207fffffffffffffffffffffffffffffffffffffffffffffffffffffffffffffffe0601f84011601612afc565b818152846020838601011115612bbc57600080fd5b816020850160208301376000918101602001919091529392505050565b600060408284031215612beb57600080fd5b6040516040810167ffffffffffffffff8282108183111715612c0f57612c0f612acd565b816040528293508435915080821115612c2757600080fd5b612c3386838701612b4b565b83526020850135915080821115612c4957600080fd5b50612c5685828601612b4b565b6020830152505092915050565b600080600080600060a08688031215612c7b57600080fd5b612c8486612a38565b9450602086013567ffffffffffffffff80821115612ca157600080fd5b612cad89838a01612b4b565b95506040880135915080821115612cc357600080fd5b612ccf89838a01612bd9565b94506060880135915080821115612ce557600080fd5b612cf189838a01612bd9565b93506080880135915080821115612d0757600080fd5b50612d1488828901612b4b565b9150509295509295909350565b600060208284031215612d3357600080fd5b81356109e5816129dc565b60008060008060808587031215612d5457600080fd5b612d5d85612a38565b9350602085013567ffffffffffffffff80821115612d7a57600080fd5b612d8688838901612b4b565b94506040870135915080821115612d9c57600080fd5b612da888838901612bd9565b93506060870135915080821115612dbe57600080fd5b50612dcb87828801612b4b565b91505092959194509250565b60008060408385031215612dea57600080fd5b823567ffffffffffffffff80821115612e0257600080fd5b818501915085601f830112612e1657600080fd5b8135602082821115612e2a57612e2a612acd565b8160051b612e39828201612afc565b928352848101820192828101908a851115612e5357600080fd5b83870192505b84831015612e8f57823586811115612e715760008081fd5b612e7f8c86838b0101612bd9565b8352509183019190830190612e59565b9750505086013592505080821115612ea657600080fd5b50612eb385828601612b4b565b9150509250929050565b6000815180845260005b81811015612ee357602081850181015186830182015201612ec7565b81811115612ef5576000602083870101525b50601f017fffffffffffffffffffffffffffffffffffffffffffffffffffffffffffffffe0169290920160200192915050565b6020815260006109e56020830184612ebd565b600060208284031215612f4d57600080fd5b6109e5826129c6565b60008060408385031215612f6957600080fd5b823567ffffffffffffffff80821115612f8157600080fd5b612f8d86838701612bd9565b93506020850135915080821115612ea657600080fd5b8183823760009101908152919050565b7f4e487b7100000000000000000000000000000000000000000000000000000000600052603260045260246000fd5b7f4e487b7100000000000000000000000000000000000000000000000000000000600052601160045260246000fd5b6000600019820361302457613024612fe2565b5060010190565b600181811c9082168061303f57607f821691505b6020821081036129a9577f4e487b7100000000000000000000000000000000000000000000000000000000600052602260045260246000fd5b60008282101561308a5761308a612fe2565b500390565b600060ff821660ff84168060ff038211156130ac576130ac612fe2565b019392505050565b600082198211156130c7576130c7612fe2565b500190565b60008160030b8360030b60008112817fffffffffffffffffffffffffffffffffffffffffffffffffffffffff800000000183128115161561310f5761310f612fe2565b81637fffffff01831381161561312757613127612fe2565b5090039392505050565b6040815260006131446040830185612ebd565b8281036020840152610cd68185612ebd565b7f4e487b7100000000000000000000000000000000000000000000000000000000600052600160045260246000fd5b7f4e487b7100000000000000000000000000000000000000000000000000000000600052601260045260246000fd5b600061ffff808416806131c9576131c9613185565b92169190910492915050565b600060ff821660ff8416808210156131ef576131ef612fe2565b90039392505050565b60608152600061320b6060830186612ebd565b828103602084015261321d8186612ebd565b91505061ffff83166040830152949350505050565b60006020828403121561324457600080fd5b5051919050565b60008161325a5761325a612fe2565b506000190190565b600081600019048311821515161561327c5761327c612fe2565b500290565b60008261329057613290613185565b500690565b600181815b808511156132d05781600019048211156132b6576132b6612fe2565b808516156132c357918102915b93841c939080029061329a565b509250929050565b6000826132e757506001610899565b816132f457506000610899565b816001811461330a576002811461331457613330565b6001915050610899565b60ff84111561332557613325612fe2565b50506001821b610899565b5060208310610133831016604e8410600b8410161715613353575081810a610899565b61335d8383613295565b806000190482111561337157613371612fe2565b029392505050565b60006109e583836132d8565b6000808312837f8000000000000000000000000000000000000000000000000000000000000000018312811516156133bf576133bf612fe2565b837f7fffffffffffffffffffffffffffffffffffffffffffffffffffffffffffffff0183138116156133f3576133f3612fe2565b50500390565b60608152600061340c6060830186612ebd565b828103602084015261341e8186612ebd565b905082810360408401526121eb8185612ebd565b60006020828403121561344457600080fd5b815180151581146109e557600080fdfe00010203040506070809ffffffffffffff0a0b0c0d0e0f101112131415161718191a1b1c1d1e1fffffffffffffffffffff0a0b0c0d0e0f101112131415161718191a1b1c1d1e1fa2646970667358221220f7118512a15cfc48c789d708a7a5f4165cc0cc9eff418c39a32c0ec694ab3dac64736f6c634300080d0033",
  "devdoc": {
    "kind": "dev",
    "methods": {
      "constructor": {
        "details": "Constructor.",
        "params": {
          "_anchors": "The binary format RR entries for the root DS records."
        }
      },
      "deleteRRSet(uint16,bytes,(bytes,bytes),bytes)": {
        "details": "Deletes an RR from the oracle.",
        "params": {
          "deleteName": "which you want to delete",
          "deleteType": "The DNS record type to delete.",
          "nsec": "The signed NSEC RRset. This is in the format described in section        5.3.2 of RFC4035: The RRDATA section from the RRSIG without the signature        data, followed by a series of canonicalised RR records that the signature        applies to."
        }
      },
      "deleteRRSetNSEC3(uint16,bytes,(bytes,bytes),(bytes,bytes),bytes)": {
        "details": "Deletes an RR from the oracle using an NSEC3 proof.      Deleting a record using NSEC3 requires using up to two NSEC3 records. There are two cases:       1. The name exists, but the record type doesn't. Eg, example.com has A records but no TXT records.       2. The name does not exist, but a parent name does.      In the first case, we submit one NSEC3 proof in `closestEncloser` that matches the target name      but does not have the bit for `deleteType` set in its type bitmap. In the second case, we submit      two proofs: closestEncloser and nextClosest, that together prove that the name does not exist.      NSEC3 records are in the format described in section 5.3.2 of RFC4035: The RRDATA section      from the RRSIG without the signature data, followed by a series of canonicalised RR records      that the signature applies to.",
        "params": {
          "closestEncloser": "An NSEC3 proof matching the closest enclosing name - that is,        the nearest ancestor of the target name that *does* exist.",
          "deleteName": "The name to delete.",
          "deleteType": "The DNS record type to delete.",
          "dnskey": "An encoded DNSKEY record that has already been submitted to the oracle and can be used        to verify the signatures closestEncloserSig and nextClosestSig",
          "nextClosest": "An NSEC3 proof covering the next closest name. This proves that the immediate        subdomain of the closestEncloser does not exist."
        }
      },
      "rrdata(uint16,bytes)": {
        "details": "Returns data about the RRs (if any) known to this oracle with the provided type and name.",
        "params": {
          "dnstype": "The DNS record type to query.",
          "name": "The name to query, in DNS label-sequence format."
        },
        "returns": {
          "_0": "inception The unix timestamp (wrapped) at which the signature for this RRSET was created.",
          "_1": "expiration The unix timestamp (wrapped) at which the signature for this RRSET expires.",
          "_2": "hash The hash of the RRset."
        }
      },
      "setAlgorithm(uint8,address)": {
        "details": "Sets the contract address for a signature verification algorithm.      Callable only by the owner.",
        "params": {
          "algo": "The address of the algorithm contract.",
          "id": "The algorithm ID"
        }
      },
      "setDigest(uint8,address)": {
        "details": "Sets the contract address for a digest verification algorithm.      Callable only by the owner.",
        "params": {
          "digest": "The address of the digest contract.",
          "id": "The digest ID"
        }
      },
      "setNSEC3Digest(uint8,address)": {
        "details": "Sets the contract address for an NSEC3 digest algorithm.      Callable only by the owner.",
        "params": {
          "digest": "The address of the digest contract.",
          "id": "The digest ID"
        }
      },
      "submitRRSet((bytes,bytes),bytes)": {
        "details": "Submits a signed set of RRs to the oracle. RRSETs are only accepted if they are signed with a key that is already trusted, or if they are self-signed, and the signing key is identified by a DS record that is already trusted.",
        "params": {
          "input": "The signed RR set. This is in the format described in section        5.3.2 of RFC4035: The RRDATA section from the RRSIG without the signature        data, followed by a series of canonicalised RR records that the signature        applies to.",
          "proof": "The DNSKEY or DS to validate the signature against. Must Already        have been submitted and proved previously."
        }
      },
      "submitRRSets((bytes,bytes)[],bytes)": {
        "details": "Submits multiple RRSets",
        "params": {
          "input": "A list of RRSets and signatures forming a chain of trust from an existing known-good record.",
          "proof": "The DNSKEY or DS to validate the first signature against."
        },
        "returns": {
          "_0": "The last RRSET submitted."
        }
      }
    },
    "version": 1
  },
  "userdoc": {
    "kind": "user",
    "methods": {},
    "version": 1
  },
  "storageLayout": {
    "storage": [
      {
        "astId": 4248,
        "contract": "contracts/dnssec-oracle/DNSSECImpl.sol:DNSSECImpl",
        "label": "anchors",
        "offset": 0,
        "slot": "0",
        "type": "t_bytes_storage"
      },
      {
        "astId": 6084,
        "contract": "contracts/dnssec-oracle/DNSSECImpl.sol:DNSSECImpl",
        "label": "owner",
        "offset": 0,
        "slot": "1",
        "type": "t_address"
      },
      {
        "astId": 4413,
        "contract": "contracts/dnssec-oracle/DNSSECImpl.sol:DNSSECImpl",
        "label": "rrsets",
        "offset": 0,
        "slot": "2",
        "type": "t_mapping(t_bytes32,t_mapping(t_uint16,t_struct(RRSet)4406_storage))"
      },
      {
        "astId": 4418,
        "contract": "contracts/dnssec-oracle/DNSSECImpl.sol:DNSSECImpl",
        "label": "algorithms",
        "offset": 0,
        "slot": "3",
        "type": "t_mapping(t_uint8,t_contract(Algorithm)7491)"
      },
      {
        "astId": 4423,
        "contract": "contracts/dnssec-oracle/DNSSECImpl.sol:DNSSECImpl",
        "label": "digests",
        "offset": 0,
        "slot": "4",
        "type": "t_mapping(t_uint8,t_contract(Digest)9332)"
      },
      {
        "astId": 4428,
        "contract": "contracts/dnssec-oracle/DNSSECImpl.sol:DNSSECImpl",
        "label": "nsec3Digests",
        "offset": 0,
        "slot": "5",
        "type": "t_mapping(t_uint8,t_contract(NSEC3Digest)9454)"
      }
    ],
    "types": {
      "t_address": {
        "encoding": "inplace",
        "label": "address",
        "numberOfBytes": "20"
      },
      "t_bytes20": {
        "encoding": "inplace",
        "label": "bytes20",
        "numberOfBytes": "20"
      },
      "t_bytes32": {
        "encoding": "inplace",
        "label": "bytes32",
        "numberOfBytes": "32"
      },
      "t_bytes_storage": {
        "encoding": "bytes",
        "label": "bytes",
        "numberOfBytes": "32"
      },
      "t_contract(Algorithm)7491": {
        "encoding": "inplace",
        "label": "contract Algorithm",
        "numberOfBytes": "20"
      },
      "t_contract(Digest)9332": {
        "encoding": "inplace",
        "label": "contract Digest",
        "numberOfBytes": "20"
      },
      "t_contract(NSEC3Digest)9454": {
        "encoding": "inplace",
        "label": "contract NSEC3Digest",
        "numberOfBytes": "20"
      },
      "t_mapping(t_bytes32,t_mapping(t_uint16,t_struct(RRSet)4406_storage))": {
        "encoding": "mapping",
        "key": "t_bytes32",
        "label": "mapping(bytes32 => mapping(uint16 => struct DNSSECImpl.RRSet))",
        "numberOfBytes": "32",
        "value": "t_mapping(t_uint16,t_struct(RRSet)4406_storage)"
      },
      "t_mapping(t_uint16,t_struct(RRSet)4406_storage)": {
        "encoding": "mapping",
        "key": "t_uint16",
        "label": "mapping(uint16 => struct DNSSECImpl.RRSet)",
        "numberOfBytes": "32",
        "value": "t_struct(RRSet)4406_storage"
      },
      "t_mapping(t_uint8,t_contract(Algorithm)7491)": {
        "encoding": "mapping",
        "key": "t_uint8",
        "label": "mapping(uint8 => contract Algorithm)",
        "numberOfBytes": "32",
        "value": "t_contract(Algorithm)7491"
      },
      "t_mapping(t_uint8,t_contract(Digest)9332)": {
        "encoding": "mapping",
        "key": "t_uint8",
        "label": "mapping(uint8 => contract Digest)",
        "numberOfBytes": "32",
        "value": "t_contract(Digest)9332"
      },
      "t_mapping(t_uint8,t_contract(NSEC3Digest)9454)": {
        "encoding": "mapping",
        "key": "t_uint8",
        "label": "mapping(uint8 => contract NSEC3Digest)",
        "numberOfBytes": "32",
        "value": "t_contract(NSEC3Digest)9454"
      },
      "t_struct(RRSet)4406_storage": {
        "encoding": "inplace",
        "label": "struct DNSSECImpl.RRSet",
        "members": [
          {
            "astId": 4401,
            "contract": "contracts/dnssec-oracle/DNSSECImpl.sol:DNSSECImpl",
            "label": "inception",
            "offset": 0,
            "slot": "0",
            "type": "t_uint32"
          },
          {
            "astId": 4403,
            "contract": "contracts/dnssec-oracle/DNSSECImpl.sol:DNSSECImpl",
            "label": "expiration",
            "offset": 4,
            "slot": "0",
            "type": "t_uint32"
          },
          {
            "astId": 4405,
            "contract": "contracts/dnssec-oracle/DNSSECImpl.sol:DNSSECImpl",
            "label": "hash",
            "offset": 8,
            "slot": "0",
            "type": "t_bytes20"
          }
        ],
        "numberOfBytes": "32"
      },
      "t_uint16": {
        "encoding": "inplace",
        "label": "uint16",
        "numberOfBytes": "2"
      },
      "t_uint32": {
        "encoding": "inplace",
        "label": "uint32",
        "numberOfBytes": "4"
      },
      "t_uint8": {
        "encoding": "inplace",
        "label": "uint8",
        "numberOfBytes": "1"
      }
    }
  }
}