{
  "address": "0x34bb2EDae771881121CC8922C4C73dd9dBb9211c",
  "abi": [
    {
      "inputs": [
        {
          "internalType": "contract ENS",
          "name": "_old",
          "type": "address"
        }
      ],
      "stateMutability": "nonpayable",
      "type": "constructor"
    },
    {
      "anonymous": false,
      "inputs": [
        {
          "indexed": true,
          "internalType": "address",
          "name": "owner",
          "type": "address"
        },
        {
          "indexed": true,
          "internalType": "address",
          "name": "operator",
          "type": "address"
        },
        {
          "indexed": false,
          "internalType": "bool",
          "name": "approved",
          "type": "bool"
        }
      ],
      "name": "ApprovalForAll",
      "type": "event"
    },
    {
      "anonymous": false,
      "inputs": [
        {
          "indexed": true,
          "internalType": "bytes32",
          "name": "node",
          "type": "bytes32"
        },
        {
          "indexed": true,
          "internalType": "bytes32",
          "name": "label",
          "type": "bytes32"
        },
        {
          "indexed": false,
          "internalType": "address",
          "name": "owner",
          "type": "address"
        }
      ],
      "name": "NewOwner",
      "type": "event"
    },
    {
      "anonymous": false,
      "inputs": [
        {
          "indexed": true,
          "internalType": "bytes32",
          "name": "node",
          "type": "bytes32"
        },
        {
          "indexed": false,
          "internalType": "address",
          "name": "resolver",
          "type": "address"
        }
      ],
      "name": "NewResolver",
      "type": "event"
    },
    {
      "anonymous": false,
      "inputs": [
        {
          "indexed": true,
          "internalType": "bytes32",
          "name": "node",
          "type": "bytes32"
        },
        {
          "indexed": false,
          "internalType": "uint64",
          "name": "ttl",
          "type": "uint64"
        }
      ],
      "name": "NewTTL",
      "type": "event"
    },
    {
      "anonymous": false,
      "inputs": [
        {
          "indexed": true,
          "internalType": "bytes32",
          "name": "node",
          "type": "bytes32"
        },
        {
          "indexed": false,
          "internalType": "address",
          "name": "owner",
          "type": "address"
        }
      ],
      "name": "Transfer",
      "type": "event"
    },
    {
      "inputs": [
        {
          "internalType": "address",
          "name": "owner",
          "type": "address"
        },
        {
          "internalType": "address",
          "name": "operator",
          "type": "address"
        }
      ],
      "name": "isApprovedForAll",
      "outputs": [
        {
          "internalType": "bool",
          "name": "",
          "type": "bool"
        }
      ],
      "stateMutability": "view",
      "type": "function"
    },
    {
      "inputs": [],
      "name": "old",
      "outputs": [
        {
          "internalType": "contract ENS",
          "name": "",
          "type": "address"
        }
      ],
      "stateMutability": "view",
      "type": "function"
    },
    {
      "inputs": [
        {
          "internalType": "bytes32",
          "name": "node",
          "type": "bytes32"
        }
      ],
      "name": "owner",
      "outputs": [
        {
          "internalType": "address",
          "name": "",
          "type": "address"
        }
      ],
      "stateMutability": "view",
      "type": "function"
    },
    {
      "inputs": [
        {
          "internalType": "bytes32",
          "name": "node",
          "type": "bytes32"
        }
      ],
      "name": "recordExists",
      "outputs": [
        {
          "internalType": "bool",
          "name": "",
          "type": "bool"
        }
      ],
      "stateMutability": "view",
      "type": "function"
    },
    {
      "inputs": [
        {
          "internalType": "bytes32",
          "name": "node",
          "type": "bytes32"
        }
      ],
      "name": "resolver",
      "outputs": [
        {
          "internalType": "address",
          "name": "",
          "type": "address"
        }
      ],
      "stateMutability": "view",
      "type": "function"
    },
    {
      "inputs": [
        {
          "internalType": "address",
          "name": "operator",
          "type": "address"
        },
        {
          "internalType": "bool",
          "name": "approved",
          "type": "bool"
        }
      ],
      "name": "setApprovalForAll",
      "outputs": [],
      "stateMutability": "nonpayable",
      "type": "function"
    },
    {
      "inputs": [
        {
          "internalType": "bytes32",
          "name": "node",
          "type": "bytes32"
        },
        {
          "internalType": "address",
          "name": "owner",
          "type": "address"
        }
      ],
      "name": "setOwner",
      "outputs": [],
      "stateMutability": "nonpayable",
      "type": "function"
    },
    {
      "inputs": [
        {
          "internalType": "bytes32",
          "name": "node",
          "type": "bytes32"
        },
        {
          "internalType": "address",
          "name": "owner",
          "type": "address"
        },
        {
          "internalType": "address",
          "name": "resolver",
          "type": "address"
        },
        {
          "internalType": "uint64",
          "name": "ttl",
          "type": "uint64"
        }
      ],
      "name": "setRecord",
      "outputs": [],
      "stateMutability": "nonpayable",
      "type": "function"
    },
    {
      "inputs": [
        {
          "internalType": "bytes32",
          "name": "node",
          "type": "bytes32"
        },
        {
          "internalType": "address",
          "name": "resolver",
          "type": "address"
        }
      ],
      "name": "setResolver",
      "outputs": [],
      "stateMutability": "nonpayable",
      "type": "function"
    },
    {
      "inputs": [
        {
          "internalType": "bytes32",
          "name": "node",
          "type": "bytes32"
        },
        {
          "internalType": "bytes32",
          "name": "label",
          "type": "bytes32"
        },
        {
          "internalType": "address",
          "name": "owner",
          "type": "address"
        }
      ],
      "name": "setSubnodeOwner",
      "outputs": [
        {
          "internalType": "bytes32",
          "name": "",
          "type": "bytes32"
        }
      ],
      "stateMutability": "nonpayable",
      "type": "function"
    },
    {
      "inputs": [
        {
          "internalType": "bytes32",
          "name": "node",
          "type": "bytes32"
        },
        {
          "internalType": "bytes32",
          "name": "label",
          "type": "bytes32"
        },
        {
          "internalType": "address",
          "name": "owner",
          "type": "address"
        },
        {
          "internalType": "address",
          "name": "resolver",
          "type": "address"
        },
        {
          "internalType": "uint64",
          "name": "ttl",
          "type": "uint64"
        }
      ],
      "name": "setSubnodeRecord",
      "outputs": [],
      "stateMutability": "nonpayable",
      "type": "function"
    },
    {
      "inputs": [
        {
          "internalType": "bytes32",
          "name": "node",
          "type": "bytes32"
        },
        {
          "internalType": "uint64",
          "name": "ttl",
          "type": "uint64"
        }
      ],
      "name": "setTTL",
      "outputs": [],
      "stateMutability": "nonpayable",
      "type": "function"
    },
    {
      "inputs": [
        {
          "internalType": "bytes32",
          "name": "node",
          "type": "bytes32"
        }
      ],
      "name": "ttl",
      "outputs": [
        {
          "internalType": "uint64",
          "name": "",
          "type": "uint64"
        }
      ],
      "stateMutability": "view",
      "type": "function"
    }
  ],
  "transactionHash": "0x19168b79789782e2c2dfc4bdb983dc641faecc3500fe8acd02a8853bf4e52a79",
  "args": [
    "0x581f48E89AC73a684DD0f2a89AF029FB13174B7e"
  ],
  "bytecode": "0x608060405234801561001057600080fd5b5060405161145438038061145483398101604081905261002f91610089565b60008080526020527fad3228b676f7d3cd4284a5443f17f1962b36e491b30a40b2405849e597ba5fb58054336001600160a01b031991821617909155600280549091166001600160a01b03929092169190911790556100b9565b60006020828403121561009b57600080fd5b81516001600160a01b03811681146100b257600080fd5b9392505050565b61138c806100c86000396000f3fe608060405234801561001057600080fd5b50600436106100df5760003560e01c80635b0fc9c31161008c578063b83f866311610066578063b83f8663146101e2578063cf40882314610202578063e985e9c514610215578063f79fe5381461026e57600080fd5b80635b0fc9c3146101a95780635ef2c7f0146101bc578063a22cb465146101cf57600080fd5b806314ab9038116100bd57806314ab90381461015557806316a25cbd1461016a5780631896f70a1461019657600080fd5b80630178b8bf146100e457806302571be31461012157806306ab592314610134575b600080fd5b6100f76100f236600461108f565b6102a6565b60405173ffffffffffffffffffffffffffffffffffffffff90911681526020015b60405180910390f35b6100f761012f36600461108f565b610396565b6101476101423660046110cd565b61041f565b604051908152602001610118565b61016861016336600461111c565b61060d565b005b61017d61017836600461108f565b610814565b60405167ffffffffffffffff9091168152602001610118565b6101686101a436600461114c565b610909565b6101686101b736600461114c565b610b0f565b6101686101ca366004611171565b610ccd565b6101686101dd3660046111d0565b610cef565b6002546100f79073ffffffffffffffffffffffffffffffffffffffff1681565b610168610210366004611203565b610d86565b61025e610223366004611256565b73ffffffffffffffffffffffffffffffffffffffff918216600090815260016020908152604080832093909416825291909152205460ff1690565b6040519015158152602001610118565b61025e61027c36600461108f565b60009081526020819052604090205473ffffffffffffffffffffffffffffffffffffffff16151590565b60008181526020819052604081205473ffffffffffffffffffffffffffffffffffffffff16610369576002546040517f0178b8bf0000000000000000000000000000000000000000000000000000000081526004810184905273ffffffffffffffffffffffffffffffffffffffff90911690630178b8bf906024015b602060405180830381865afa15801561033f573d6000803e3d6000fd5b505050506040513d601f19601f820116820180604052508101906103639190611284565b92915050565b60008281526020819052604090206001015473ffffffffffffffffffffffffffffffffffffffff16610363565b60008181526020819052604081205473ffffffffffffffffffffffffffffffffffffffff16610416576002546040517f02571be30000000000000000000000000000000000000000000000000000000081526004810184905273ffffffffffffffffffffffffffffffffffffffff909116906302571be390602401610322565b61036382610da1565b600083815260208181526040808320548151808301909252600582527f6f776e657200000000000000000000000000000000000000000000000000000092820192909252859173ffffffffffffffffffffffffffffffffffffffff16906104869082610dd6565b6104c56040518060400160405280600a81526020017f6d73672e73656e6465720000000000000000000000000000000000000000000081525033610dd6565b73ffffffffffffffffffffffffffffffffffffffff8116331480610519575073ffffffffffffffffffffffffffffffffffffffff8116600090815260016020908152604080832033845290915290205460ff165b610584576040517f08c379a000000000000000000000000000000000000000000000000000000000815260206004820152600e60248201527f4e6f7420617574686f726973656400000000000000000000000000000000000060448201526064015b60405180910390fd5b604080516020808201899052818301889052825180830384018152606090920190925280519101206105b68186610e6b565b60405173ffffffffffffffffffffffffffffffffffffffff86168152869088907fce0457fe73731f824cc272376169235128c118b49d344817417c6d108d155e829060200160405180910390a39695505050505050565b60008281526020818152604091829020548251808401909352600583527f6f776e657200000000000000000000000000000000000000000000000000000091830191909152839173ffffffffffffffffffffffffffffffffffffffff909116906106779082610dd6565b6106b66040518060400160405280600a81526020017f6d73672e73656e6465720000000000000000000000000000000000000000000081525033610dd6565b73ffffffffffffffffffffffffffffffffffffffff811633148061070a575073ffffffffffffffffffffffffffffffffffffffff8116600090815260016020908152604080832033845290915290205460ff165b610770576040517f08c379a000000000000000000000000000000000000000000000000000000000815260206004820152600e60248201527f4e6f7420617574686f7269736564000000000000000000000000000000000000604482015260640161057b565b60405167ffffffffffffffff8416815284907f1d4f9bbfc9cab89d66e1a1562f2233ccbf1308cb4f63de2ead5787adddb8fa689060200160405180910390a25050600091825260208290526040909120600101805467ffffffffffffffff90921674010000000000000000000000000000000000000000027fffffffff0000000000000000ffffffffffffffffffffffffffffffffffffffff909216919091179055565b60008181526020819052604081205473ffffffffffffffffffffffffffffffffffffffff166108d0576002546040517f16a25cbd0000000000000000000000000000000000000000000000000000000081526004810184905273ffffffffffffffffffffffffffffffffffffffff909116906316a25cbd90602401602060405180830381865afa1580156108ac573d6000803e3d6000fd5b505050506040513d601f19601f8201168201806040525081019061036391906112a8565b60008281526020819052604090206001015474010000000000000000000000000000000000000000900467ffffffffffffffff16610363565b60008281526020818152604091829020548251808401909352600583527f6f776e657200000000000000000000000000000000000000000000000000000091830191909152839173ffffffffffffffffffffffffffffffffffffffff909116906109739082610dd6565b6109b26040518060400160405280600a81526020017f6d73672e73656e6465720000000000000000000000000000000000000000000081525033610dd6565b73ffffffffffffffffffffffffffffffffffffffff8116331480610a06575073ffffffffffffffffffffffffffffffffffffffff8116600090815260016020908152604080832033845290915290205460ff165b610a6c576040517f08c379a000000000000000000000000000000000000000000000000000000000815260206004820152600e60248201527f4e6f7420617574686f7269736564000000000000000000000000000000000000604482015260640161057b565b60405173ffffffffffffffffffffffffffffffffffffffff8416815284907f335721b01866dc23fbee8b6b2c7b1e14d6f05c28cd35a2c934239f94095602a09060200160405180910390a2505060009182526020829052604090912060010180547fffffffffffffffffffffffff00000000000000000000000000000000000000001673ffffffffffffffffffffffffffffffffffffffff909216919091179055565b60008281526020818152604091829020548251808401909352600583527f6f776e657200000000000000000000000000000000000000000000000000000091830191909152839173ffffffffffffffffffffffffffffffffffffffff90911690610b799082610dd6565b610bb86040518060400160405280600a81526020017f6d73672e73656e6465720000000000000000000000000000000000000000000081525033610dd6565b73ffffffffffffffffffffffffffffffffffffffff8116331480610c0c575073ffffffffffffffffffffffffffffffffffffffff8116600090815260016020908152604080832033845290915290205460ff165b610c72576040517f08c379a000000000000000000000000000000000000000000000000000000000815260206004820152600e60248201527f4e6f7420617574686f7269736564000000000000000000000000000000000000604482015260640161057b565b610c7c8484610e6b565b60405173ffffffffffffffffffffffffffffffffffffffff8416815284907fd4735d920b0f87494915f556dd9b54c8f309026070caea5c737245152564d2669060200160405180910390a250505050565b6000610cda86868661041f565b9050610ce7818484610ee0565b505050505050565b33600081815260016020908152604080832073ffffffffffffffffffffffffffffffffffffffff87168085529083529281902080547fffffffffffffffffffffffffffffffffffffffffffffffffffffffffffffff001686151590811790915590519081529192917f17307eab39ab6107e8899845ad3d59bd9653f200f220920489ca2b5937696c31910160405180910390a35050565b610d908484610b0f565b610d9b848383610ee0565b50505050565b60008181526020819052604081205473ffffffffffffffffffffffffffffffffffffffff163081036103635750600092915050565b610e678282604051602401610dec9291906112c5565b604080517fffffffffffffffffffffffffffffffffffffffffffffffffffffffffffffffe08184030181529190526020810180517bffffffffffffffffffffffffffffffffffffffffffffffffffffffff167f319af3330000000000000000000000000000000000000000000000000000000017905261106e565b5050565b8073ffffffffffffffffffffffffffffffffffffffff8116610e8a5750305b600083815260208190526040902080547fffffffffffffffffffffffff00000000000000000000000000000000000000001673ffffffffffffffffffffffffffffffffffffffff8316179055505050565b505050565b60008381526020819052604090206001015473ffffffffffffffffffffffffffffffffffffffff838116911614610f98576000838152602081815260409182902060010180547fffffffffffffffffffffffff00000000000000000000000000000000000000001673ffffffffffffffffffffffffffffffffffffffff8616908117909155915191825284917f335721b01866dc23fbee8b6b2c7b1e14d6f05c28cd35a2c934239f94095602a0910160405180910390a25b60008381526020819052604090206001015467ffffffffffffffff828116740100000000000000000000000000000000000000009092041614610edb576000838152602081815260409182902060010180547fffffffff0000000000000000ffffffffffffffffffffffffffffffffffffffff167401000000000000000000000000000000000000000067ffffffffffffffff861690810291909117909155915191825284917f1d4f9bbfc9cab89d66e1a1562f2233ccbf1308cb4f63de2ead5787adddb8fa68910160405180910390a2505050565b80516a636f6e736f6c652e6c6f67602083016000808483855afa5050505050565b6000602082840312156110a157600080fd5b5035919050565b73ffffffffffffffffffffffffffffffffffffffff811681146110ca57600080fd5b50565b6000806000606084860312156110e257600080fd5b833592506020840135915060408401356110fb816110a8565b809150509250925092565b67ffffffffffffffff811681146110ca57600080fd5b6000806040838503121561112f57600080fd5b82359150602083013561114181611106565b809150509250929050565b6000806040838503121561115f57600080fd5b823591506020830135611141816110a8565b600080600080600060a0868803121561118957600080fd5b853594506020860135935060408601356111a2816110a8565b925060608601356111b2816110a8565b915060808601356111c281611106565b809150509295509295909350565b600080604083850312156111e357600080fd5b82356111ee816110a8565b91506020830135801515811461114157600080fd5b6000806000806080858703121561121957600080fd5b84359350602085013561122b816110a8565b9250604085013561123b816110a8565b9150606085013561124b81611106565b939692955090935050565b6000806040838503121561126957600080fd5b8235611274816110a8565b91506020830135611141816110a8565b60006020828403121561129657600080fd5b81516112a1816110a8565b9392505050565b6000602082840312156112ba57600080fd5b81516112a181611106565b604081526000835180604084015260005b818110156112f357602081870181015160608684010152016112d6565b81811115611305576000606083860101525b5073ffffffffffffffffffffffffffffffffffffffff93909316602083015250601f919091017fffffffffffffffffffffffffffffffffffffffffffffffffffffffffffffffe0160160600191905056fea264697066735822122003797ca395cb3e7d21c96192e8bf10323b6b40e22e58f2f45c0124b6bbd6e76564736f6c634300080d0033"
}