{
  "address": "0xaC6234d93968c11B8983594083347f5C1e72f60a",
  "abi": [
    {
      "inputs": [
        {
          "internalType": "contract BaseRegistrarImplementation",
          "name": "_base",
          "type": "address"
        },
        {
          "internalType": "contract PriceOracle",
          "name": "_prices",
          "type": "address"
        },
        {
          "internalType": "uint256",
          "name": "_minCommitmentAge",
          "type": "uint256"
        },
        {
          "internalType": "uint256",
          "name": "_maxCommitmentAge",
          "type": "uint256"
        }
      ],
      "stateMutability": "nonpayable",
      "type": "constructor"
    },
    {
      "anonymous": false,
      "inputs": [
        {
          "indexed": false,
          "internalType": "string",
          "name": "name",
          "type": "string"
        },
        {
          "indexed": true,
          "internalType": "bytes32",
          "name": "label",
          "type": "bytes32"
        },
        {
          "indexed": true,
          "internalType": "address",
          "name": "owner",
          "type": "address"
        },
        {
          "indexed": false,
          "internalType": "uint256",
          "name": "cost",
          "type": "uint256"
        },
        {
          "indexed": false,
          "internalType": "uint256",
          "name": "expires",
          "type": "uint256"
        }
      ],
      "name": "NameRegistered",
      "type": "event"
    },
    {
      "anonymous": false,
      "inputs": [
        {
          "indexed": false,
          "internalType": "string",
          "name": "name",
          "type": "string"
        },
        {
          "indexed": true,
          "internalType": "bytes32",
          "name": "label",
          "type": "bytes32"
        },
        {
          "indexed": false,
          "internalType": "uint256",
          "name": "cost",
          "type": "uint256"
        },
        {
          "indexed": false,
          "internalType": "uint256",
          "name": "expires",
          "type": "uint256"
        }
      ],
      "name": "NameRenewed",
      "type": "event"
    },
    {
      "anonymous": false,
      "inputs": [
        {
          "indexed": true,
          "internalType": "address",
          "name": "oracle",
          "type": "address"
        }
      ],
      "name": "NewPriceOracle",
      "type": "event"
    },
    {
      "anonymous": false,
      "inputs": [
        {
          "indexed": true,
          "internalType": "address",
          "name": "previousOwner",
          "type": "address"
        },
        {
          "indexed": true,
          "internalType": "address",
          "name": "newOwner",
          "type": "address"
        }
      ],
      "name": "OwnershipTransferred",
      "type": "event"
    },
    {
      "inputs": [],
      "name": "MIN_REGISTRATION_DURATION",
      "outputs": [
        {
          "internalType": "uint256",
          "name": "",
          "type": "uint256"
        }
      ],
      "stateMutability": "view",
      "type": "function"
    },
    {
      "inputs": [
        {
          "internalType": "string",
          "name": "name",
          "type": "string"
        }
      ],
      "name": "available",
      "outputs": [
        {
          "internalType": "bool",
          "name": "",
          "type": "bool"
        }
      ],
      "stateMutability": "view",
      "type": "function"
    },
    {
      "inputs": [
        {
          "internalType": "bytes32",
          "name": "commitment",
          "type": "bytes32"
        }
      ],
      "name": "commit",
      "outputs": [],
      "stateMutability": "nonpayable",
      "type": "function"
    },
    {
      "inputs": [
        {
          "internalType": "bytes32",
          "name": "",
          "type": "bytes32"
        }
      ],
      "name": "commitments",
      "outputs": [
        {
          "internalType": "uint256",
          "name": "",
          "type": "uint256"
        }
      ],
      "stateMutability": "view",
      "type": "function"
    },
    {
      "inputs": [
        {
          "internalType": "string",
          "name": "name",
          "type": "string"
        },
        {
          "internalType": "address",
          "name": "owner",
          "type": "address"
        },
        {
          "internalType": "bytes32",
          "name": "secret",
          "type": "bytes32"
        }
      ],
      "name": "makeCommitment",
      "outputs": [
        {
          "internalType": "bytes32",
          "name": "",
          "type": "bytes32"
        }
      ],
      "stateMutability": "pure",
      "type": "function"
    },
    {
      "inputs": [
        {
          "internalType": "string",
          "name": "name",
          "type": "string"
        },
        {
          "internalType": "address",
          "name": "owner",
          "type": "address"
        },
        {
          "internalType": "bytes32",
          "name": "secret",
          "type": "bytes32"
        },
        {
          "internalType": "address",
          "name": "resolver",
          "type": "address"
        },
        {
          "internalType": "address",
          "name": "addr",
          "type": "address"
        }
      ],
      "name": "makeCommitmentWithConfig",
      "outputs": [
        {
          "internalType": "bytes32",
          "name": "",
          "type": "bytes32"
        }
      ],
      "stateMutability": "pure",
      "type": "function"
    },
    {
      "inputs": [],
      "name": "maxCommitmentAge",
      "outputs": [
        {
          "internalType": "uint256",
          "name": "",
          "type": "uint256"
        }
      ],
      "stateMutability": "view",
      "type": "function"
    },
    {
      "inputs": [],
      "name": "minCommitmentAge",
      "outputs": [
        {
          "internalType": "uint256",
          "name": "",
          "type": "uint256"
        }
      ],
      "stateMutability": "view",
      "type": "function"
    },
    {
      "inputs": [],
      "name": "owner",
      "outputs": [
        {
          "internalType": "address",
          "name": "",
          "type": "address"
        }
      ],
      "stateMutability": "view",
      "type": "function"
    },
    {
      "inputs": [
        {
          "internalType": "string",
          "name": "name",
          "type": "string"
        },
        {
          "internalType": "address",
          "name": "owner",
          "type": "address"
        },
        {
          "internalType": "uint256",
          "name": "duration",
          "type": "uint256"
        },
        {
          "internalType": "bytes32",
          "name": "secret",
          "type": "bytes32"
        }
      ],
      "name": "register",
      "outputs": [],
      "stateMutability": "payable",
      "type": "function"
    },
    {
      "inputs": [
        {
          "internalType": "string",
          "name": "name",
          "type": "string"
        },
        {
          "internalType": "address",
          "name": "owner",
          "type": "address"
        },
        {
          "internalType": "uint256",
          "name": "duration",
          "type": "uint256"
        },
        {
          "internalType": "bytes32",
          "name": "secret",
          "type": "bytes32"
        },
        {
          "internalType": "address",
          "name": "resolver",
          "type": "address"
        },
        {
          "internalType": "address",
          "name": "addr",
          "type": "address"
        }
      ],
      "name": "registerWithConfig",
      "outputs": [],
      "stateMutability": "payable",
      "type": "function"
    },
    {
      "inputs": [
        {
          "internalType": "string",
          "name": "name",
          "type": "string"
        },
        {
          "internalType": "uint256",
          "name": "duration",
          "type": "uint256"
        }
      ],
      "name": "renew",
      "outputs": [],
      "stateMutability": "payable",
      "type": "function"
    },
    {
      "inputs": [],
      "name": "renounceOwnership",
      "outputs": [],
      "stateMutability": "nonpayable",
      "type": "function"
    },
    {
      "inputs": [
        {
          "internalType": "string",
          "name": "name",
          "type": "string"
        },
        {
          "internalType": "uint256",
          "name": "duration",
          "type": "uint256"
        }
      ],
      "name": "rentPrice",
      "outputs": [
        {
          "internalType": "uint256",
          "name": "",
          "type": "uint256"
        }
      ],
      "stateMutability": "view",
      "type": "function"
    },
    {
      "inputs": [
        {
          "internalType": "uint256",
          "name": "_minCommitmentAge",
          "type": "uint256"
        },
        {
          "internalType": "uint256",
          "name": "_maxCommitmentAge",
          "type": "uint256"
        }
      ],
      "name": "setCommitmentAges",
      "outputs": [],
      "stateMutability": "nonpayable",
      "type": "function"
    },
    {
      "inputs": [
        {
          "internalType": "contract PriceOracle",
          "name": "_prices",
          "type": "address"
        }
      ],
      "name": "setPriceOracle",
      "outputs": [],
      "stateMutability": "nonpayable",
      "type": "function"
    },
    {
      "inputs": [
        {
          "internalType": "bytes4",
          "name": "interfaceID",
          "type": "bytes4"
        }
      ],
      "name": "supportsInterface",
      "outputs": [
        {
          "internalType": "bool",
          "name": "",
          "type": "bool"
        }
      ],
      "stateMutability": "pure",
      "type": "function"
    },
    {
      "inputs": [
        {
          "internalType": "address",
          "name": "newOwner",
          "type": "address"
        }
      ],
      "name": "transferOwnership",
      "outputs": [],
      "stateMutability": "nonpayable",
      "type": "function"
    },
    {
      "inputs": [
        {
          "internalType": "string",
          "name": "name",
          "type": "string"
        }
      ],
      "name": "valid",
      "outputs": [
        {
          "internalType": "bool",
          "name": "",
          "type": "bool"
        }
      ],
      "stateMutability": "pure",
      "type": "function"
    },
    {
      "inputs": [],
      "name": "withdraw",
      "outputs": [],
      "stateMutability": "nonpayable",
      "type": "function"
    }
  ],
  "transactionHash": "0xa1ff3d0be73323eb9bfd64e030a3a5554bef5864d4446e41cac26665ccd9e61f",
  "args": [
    "0xcb59b822161A66635d0038696B5A306155F82BCc",
    "0xEb77Ac909e4350C891340c04676F1e15c9CbA38b",
    600,
    86400
  ],
  "solcInputHash": "94e956c652e5891a9bad5efc6519a27d",
  "bytecode": "0x60806040523480156200001157600080fd5b5060405162001ef638038062001ef68339810160408190526200003491620000f4565b6200003f336200008b565b8181116200004c57600080fd5b600180546001600160a01b039586166001600160a01b031991821617909155600280549490951693169290921790925560039190915560045562000141565b600080546001600160a01b038381166001600160a01b0319831681178455604051919092169283917f8be0079c531659141344cd1fd0a4f28419497f9722a3daafe3b4186f6b6457e09190a35050565b6001600160a01b0381168114620000f157600080fd5b50565b600080600080608085870312156200010b57600080fd5b84516200011881620000db565b60208601519094506200012b81620000db565b6040860151606090960151949790965092505050565b611da580620001516000396000f3fe60806040526004361061015f5760003560e01c80638d839ffe116100c0578063ce1e09c011610074578063f2fde38b11610059578063f2fde38b1461037e578063f49826be1461039e578063f7a16963146103be57600080fd5b8063ce1e09c014610348578063f14fcbc81461035e57600080fd5b80639791c097116100a55780639791c097146102f5578063acf1a84114610315578063aeb8ce9b1461032857600080fd5b80638d839ffe146102aa5780638da5cb5b146102c057600080fd5b80637e3244791161011757806383e7f6ff116100fc57806383e7f6ff1461026057806385f6d155146102805780638a95b09f1461029357600080fd5b80637e32447914610213578063839df9451461023357600080fd5b80633d86c52f116101485780633d86c52f146101b0578063530e784f146101de578063715018a6146101fe57600080fd5b806301ffc9a7146101645780633ccfd60b14610199575b600080fd5b34801561017057600080fd5b5061018461017f3660046116f1565b6103d1565b60405190151581526020015b60405180910390f35b3480156101a557600080fd5b506101ae6104b6565b005b3480156101bc57600080fd5b506101d06101cb36600461182f565b61056b565b604051908152602001610190565b3480156101ea57600080fd5b506101ae6101f93660046118b0565b6106b0565b34801561020a57600080fd5b506101ae6107a0565b34801561021f57600080fd5b506101ae61022e3660046118cd565b61082d565b34801561023f57600080fd5b506101d061024e3660046118ef565b60056020526000908152604090205481565b34801561026c57600080fd5b506101d061027b366004611908565b6108b9565b6101ae61028e366004611996565b6109ce565b34801561029f57600080fd5b506101d06224ea0081565b3480156102b657600080fd5b506101d060035481565b3480156102cc57600080fd5b5060005460405173ffffffffffffffffffffffffffffffffffffffff9091168152602001610190565b34801561030157600080fd5b506101846103103660046119fd565b610a19565b6101ae610323366004611a32565b610a2e565b34801561033457600080fd5b506101846103433660046119fd565b610bc2565b34801561035457600080fd5b506101d060045481565b34801561036a57600080fd5b506101ae6103793660046118ef565b610c76565b34801561038a57600080fd5b506101ae6103993660046118b0565b610cb0565b3480156103aa57600080fd5b506101d06103b9366004611a7e565b610ddd565b6101ae6103cc366004611ad8565b610ded565b60007fffffffff0000000000000000000000000000000000000000000000000000000082167f01ffc9a700000000000000000000000000000000000000000000000000000000148061046457507fffffffff0000000000000000000000000000000000000000000000000000000082167f018fac0600000000000000000000000000000000000000000000000000000000145b806104b057507fffffffff0000000000000000000000000000000000000000000000000000000082167fca27ac4c00000000000000000000000000000000000000000000000000000000145b92915050565b60005473ffffffffffffffffffffffffffffffffffffffff16331461053c576040517f08c379a000000000000000000000000000000000000000000000000000000000815260206004820181905260248201527f4f776e61626c653a2063616c6c6572206973206e6f7420746865206f776e657260448201526064015b60405180910390fd5b60405133904780156108fc02916000818181858888f19350505050158015610568573d6000803e3d6000fd5b50565b8451602086012060009073ffffffffffffffffffffffffffffffffffffffff84161580156105ad575073ffffffffffffffffffffffffffffffffffffffff8316155b156106135760408051602081018390527fffffffffffffffffffffffffffffffffffffffff000000000000000000000000606089901b169181019190915260548101869052607401604051602081830303815290604052805190602001209150506106a7565b73ffffffffffffffffffffffffffffffffffffffff841661063357600080fd5b60408051602081018390527fffffffffffffffffffffffffffffffffffffffff000000000000000000000000606089811b82169383019390935286831b811660548301529185901b9091166068820152607c8101869052609c01604051602081830303815290604052805190602001209150505b95945050505050565b60005473ffffffffffffffffffffffffffffffffffffffff163314610731576040517f08c379a000000000000000000000000000000000000000000000000000000000815260206004820181905260248201527f4f776e61626c653a2063616c6c6572206973206e6f7420746865206f776e65726044820152606401610533565b600280547fffffffffffffffffffffffff00000000000000000000000000000000000000001673ffffffffffffffffffffffffffffffffffffffff83169081179091556040517ff261845a790fe29bbd6631e2ca4a5bdc83e6eed7c3271d9590d97287e00e912390600090a250565b60005473ffffffffffffffffffffffffffffffffffffffff163314610821576040517f08c379a000000000000000000000000000000000000000000000000000000000815260206004820181905260248201527f4f776e61626c653a2063616c6c6572206973206e6f7420746865206f776e65726044820152606401610533565b61082b60006113fe565b565b60005473ffffffffffffffffffffffffffffffffffffffff1633146108ae576040517f08c379a000000000000000000000000000000000000000000000000000000000815260206004820181905260248201527f4f776e61626c653a2063616c6c6572206973206e6f7420746865206f776e65726044820152606401610533565b600391909155600455565b815160208301206002546001546040517fd6e4fa86000000000000000000000000000000000000000000000000000000008152600481018490526000939273ffffffffffffffffffffffffffffffffffffffff908116926350e9a7159288929091169063d6e4fa8690602401602060405180830381865afa158015610942573d6000803e3d6000fd5b505050506040513d601f19601f820116820180604052508101906109669190611b61565b866040518463ffffffff1660e01b815260040161098593929190611b7a565b602060405180830381865afa1580156109a2573d6000803e3d6000fd5b505050506040513d601f19601f820116820180604052508101906109c69190611b61565b949350505050565b610a1285858080601f016020809104026020016040519081016040528093929190818152602001838380828437600092018290525088935087925086915080610ded565b5050505050565b60006003610a2683611473565b101592915050565b6000610a7184848080601f0160208091040260200160405190810160405280939291908181526020018383808284376000920191909152508692506108b9915050565b905080341015610a8057600080fd5b60008484604051610a92929190611bfd565b6040519081900381206001547fc475abff000000000000000000000000000000000000000000000000000000008352600483018290526024830186905290925060009173ffffffffffffffffffffffffffffffffffffffff9091169063c475abff906044016020604051808303816000875af1158015610b16573d6000803e3d6000fd5b505050506040513d601f19601f82011682018060405250810190610b3a9190611b61565b905082341115610b7c57336108fc610b528534611c3c565b6040518115909202916000818181858888f19350505050158015610b7a573d6000803e3d6000fd5b505b817f3da24c024582931cfaf8267d8ed24d13a82a8068d5bd337d30ec45cea4e506ae87878685604051610bb29493929190611c53565b60405180910390a2505050505050565b80516020820120600090610bd583610a19565b8015610c6f57506001546040517f96e494e80000000000000000000000000000000000000000000000000000000081526004810183905273ffffffffffffffffffffffffffffffffffffffff909116906396e494e890602401602060405180830381865afa158015610c4b573d6000803e3d6000fd5b505050506040513d601f19601f82011682018060405250810190610c6f9190611cb1565b9392505050565b6004546000828152600560205260409020544291610c9391611cd3565b10610c9d57600080fd5b6000908152600560205260409020429055565b60005473ffffffffffffffffffffffffffffffffffffffff163314610d31576040517f08c379a000000000000000000000000000000000000000000000000000000000815260206004820181905260248201527f4f776e61626c653a2063616c6c6572206973206e6f7420746865206f776e65726044820152606401610533565b73ffffffffffffffffffffffffffffffffffffffff8116610dd4576040517f08c379a000000000000000000000000000000000000000000000000000000000815260206004820152602660248201527f4f776e61626c653a206e6577206f776e657220697320746865207a65726f206160448201527f64647265737300000000000000000000000000000000000000000000000000006064820152608401610533565b610568816113fe565b60006109c684848460008061056b565b6000610dfc878786868661056b565b90506000610e0b88878461167a565b885160208a012090915080600073ffffffffffffffffffffffffffffffffffffffff871615611296576001546040517ffca247ac00000000000000000000000000000000000000000000000000000000815260048101849052306024820152604481018b905273ffffffffffffffffffffffffffffffffffffffff9091169063fca247ac906064016020604051808303816000875af1158015610eb2573d6000803e3d6000fd5b505050506040513d601f19601f82011682018060405250810190610ed69190611b61565b90506000600160009054906101000a900473ffffffffffffffffffffffffffffffffffffffff1673ffffffffffffffffffffffffffffffffffffffff1663ddf7fcb06040518163ffffffff1660e01b8152600401602060405180830381865afa158015610f47573d6000803e3d6000fd5b505050506040513d601f19601f82011682018060405250810190610f6b9190611b61565b6040805160208101929092528101859052606001604080517fffffffffffffffffffffffffffffffffffffffffffffffffffffffffffffffe081840301815282825280516020918201206001547f3f15457f000000000000000000000000000000000000000000000000000000008552925190945073ffffffffffffffffffffffffffffffffffffffff90921692633f15457f92600480830193928290030181865afa15801561101f573d6000803e3d6000fd5b505050506040513d601f19601f820116820180604052508101906110439190611ceb565b6040517f1896f70a0000000000000000000000000000000000000000000000000000000081526004810183905273ffffffffffffffffffffffffffffffffffffffff8a811660248301529190911690631896f70a90604401600060405180830381600087803b1580156110b557600080fd5b505af11580156110c9573d6000803e3d6000fd5b5050505073ffffffffffffffffffffffffffffffffffffffff871615611172576040517fd5fa2b000000000000000000000000000000000000000000000000000000000081526004810182905273ffffffffffffffffffffffffffffffffffffffff888116602483015289169063d5fa2b0090604401600060405180830381600087803b15801561115957600080fd5b505af115801561116d573d6000803e3d6000fd5b505050505b6001546040517f28ed4f6c0000000000000000000000000000000000000000000000000000000081526004810185905273ffffffffffffffffffffffffffffffffffffffff8d81166024830152909116906328ed4f6c90604401600060405180830381600087803b1580156111e657600080fd5b505af11580156111fa573d6000803e3d6000fd5b50506001546040517f23b872dd00000000000000000000000000000000000000000000000000000000815230600482015273ffffffffffffffffffffffffffffffffffffffff8f811660248301526044820188905290911692506323b872dd9150606401600060405180830381600087803b15801561127857600080fd5b505af115801561128c573d6000803e3d6000fd5b505050505061135e565b73ffffffffffffffffffffffffffffffffffffffff8616156112b757600080fd5b6001546040517ffca247ac0000000000000000000000000000000000000000000000000000000081526004810184905273ffffffffffffffffffffffffffffffffffffffff8c81166024830152604482018c90529091169063fca247ac906064016020604051808303816000875af1158015611337573d6000803e3d6000fd5b505050506040513d601f19601f8201168201806040525081019061135b9190611b61565b90505b8973ffffffffffffffffffffffffffffffffffffffff16837fca6abbe9d7f11422cb6ca7629fbf6fe9efb1c621f71ce8f02b9f2a230097404f8d87856040516113a993929190611b7a565b60405180910390a3833411156113f157336108fc6113c78634611c3c565b6040518115909202916000818181858888f193505050501580156113ef573d6000803e3d6000fd5b505b5050505050505050505050565b6000805473ffffffffffffffffffffffffffffffffffffffff8381167fffffffffffffffffffffffff0000000000000000000000000000000000000000831681178455604051919092169283917f8be0079c531659141344cd1fd0a4f28419497f9722a3daafe3b4186f6b6457e09190a35050565b8051600090819081905b8082101561167157600085838151811061149957611499611d08565b01602001517fff000000000000000000000000000000000000000000000000000000000000001690507f80000000000000000000000000000000000000000000000000000000000000008110156114fc576114f5600184611cd3565b925061165e565b7fe0000000000000000000000000000000000000000000000000000000000000007fff0000000000000000000000000000000000000000000000000000000000000082161015611551576114f5600284611cd3565b7ff0000000000000000000000000000000000000000000000000000000000000007fff00000000000000000000000000000000000000000000000000000000000000821610156115a6576114f5600384611cd3565b7ff8000000000000000000000000000000000000000000000000000000000000007fff00000000000000000000000000000000000000000000000000000000000000821610156115fb576114f5600484611cd3565b7ffc000000000000000000000000000000000000000000000000000000000000007fff0000000000000000000000000000000000000000000000000000000000000082161015611650576114f5600584611cd3565b61165b600684611cd3565b92505b508261166981611d37565b93505061147d565b50909392505050565b6003546000828152600560205260408120549091429161169a9190611cd3565b11156116a557600080fd5b6116ae84610bc2565b6116b757600080fd5b60008281526005602052604081208190556116d285856108b9565b90506224ea008410156116e457600080fd5b803410156109c657600080fd5b60006020828403121561170357600080fd5b81357fffffffff0000000000000000000000000000000000000000000000000000000081168114610c6f57600080fd5b7f4e487b7100000000000000000000000000000000000000000000000000000000600052604160045260246000fd5b600082601f83011261177357600080fd5b813567ffffffffffffffff8082111561178e5761178e611733565b604051601f83017fffffffffffffffffffffffffffffffffffffffffffffffffffffffffffffffe0908116603f011681019082821181831017156117d4576117d4611733565b816040528381528660208588010111156117ed57600080fd5b836020870160208301376000602085830101528094505050505092915050565b73ffffffffffffffffffffffffffffffffffffffff8116811461056857600080fd5b600080600080600060a0868803121561184757600080fd5b853567ffffffffffffffff81111561185e57600080fd5b61186a88828901611762565b955050602086013561187b8161180d565b93506040860135925060608601356118928161180d565b915060808601356118a28161180d565b809150509295509295909350565b6000602082840312156118c257600080fd5b8135610c6f8161180d565b600080604083850312156118e057600080fd5b50508035926020909101359150565b60006020828403121561190157600080fd5b5035919050565b6000806040838503121561191b57600080fd5b823567ffffffffffffffff81111561193257600080fd5b61193e85828601611762565b95602094909401359450505050565b60008083601f84011261195f57600080fd5b50813567ffffffffffffffff81111561197757600080fd5b60208301915083602082850101111561198f57600080fd5b9250929050565b6000806000806000608086880312156119ae57600080fd5b853567ffffffffffffffff8111156119c557600080fd5b6119d18882890161194d565b90965094505060208601356119e58161180d565b94979396509394604081013594506060013592915050565b600060208284031215611a0f57600080fd5b813567ffffffffffffffff811115611a2657600080fd5b6109c684828501611762565b600080600060408486031215611a4757600080fd5b833567ffffffffffffffff811115611a5e57600080fd5b611a6a8682870161194d565b909790965060209590950135949350505050565b600080600060608486031215611a9357600080fd5b833567ffffffffffffffff811115611aaa57600080fd5b611ab686828701611762565b9350506020840135611ac78161180d565b929592945050506040919091013590565b60008060008060008060c08789031215611af157600080fd5b863567ffffffffffffffff811115611b0857600080fd5b611b1489828a01611762565b9650506020870135611b258161180d565b945060408701359350606087013592506080870135611b438161180d565b915060a0870135611b538161180d565b809150509295509295509295565b600060208284031215611b7357600080fd5b5051919050565b606081526000845180606084015260005b81811015611ba85760208188018101516080868401015201611b8b565b81811115611bba576000608083860101525b5060807fffffffffffffffffffffffffffffffffffffffffffffffffffffffffffffffe0601f830116840101915050836020830152826040830152949350505050565b8183823760009101908152919050565b7f4e487b7100000000000000000000000000000000000000000000000000000000600052601160045260246000fd5b600082821015611c4e57611c4e611c0d565b500390565b6060815283606082015283856080830137600060808583010152600060807fffffffffffffffffffffffffffffffffffffffffffffffffffffffffffffffe0601f870116830101905083602083015282604083015295945050505050565b600060208284031215611cc357600080fd5b81518015158114610c6f57600080fd5b60008219821115611ce657611ce6611c0d565b500190565b600060208284031215611cfd57600080fd5b8151610c6f8161180d565b7f4e487b7100000000000000000000000000000000000000000000000000000000600052603260045260246000fd5b60007fffffffffffffffffffffffffffffffffffffffffffffffffffffffffffffffff8203611d6857611d68611c0d565b506001019056fea2646970667358221220690a5fe60439cf69f98f6c9516df0ba9299fdf51b3ddf16927258d84ba7f3a7964736f6c634300080d0033",
  "devdoc": {
    "details": "A registrar controller for registering and renewing names at fixed cost.",
    "kind": "dev",
    "methods": {
      "owner()": {
        "details": "Returns the address of the current owner."
      },
      "renounceOwnership()": {
        "details": "Leaves the contract without owner. It will not be possible to call `onlyOwner` functions anymore. Can only be called by the current owner. NOTE: Renouncing ownership will leave the contract without an owner, thereby removing any functionality that is only available to the owner."
      },
      "transferOwnership(address)": {
        "details": "Transfers ownership of the contract to a new account (`newOwner`). Can only be called by the current owner."
      }
    },
    "version": 1
  },
  "userdoc": {
    "kind": "user",
    "methods": {},
    "version": 1
  },
  "storageLayout": {
    "storage": [
      {
        "astId": 545,
        "contract": "contracts/ethregistrar/ETHRegistrarController.sol:ETHRegistrarController",
        "label": "_owner",
        "offset": 0,
        "slot": "0",
        "type": "t_address"
      },
      {
        "astId": 10449,
        "contract": "contracts/ethregistrar/ETHRegistrarController.sol:ETHRegistrarController",
        "label": "base",
        "offset": 0,
        "slot": "1",
        "type": "t_contract(BaseRegistrarImplementation)10193"
      },
      {
        "astId": 10452,
        "contract": "contracts/ethregistrar/ETHRegistrarController.sol:ETHRegistrarController",
        "label": "prices",
        "offset": 0,
        "slot": "2",
        "type": "t_contract(PriceOracle)11934"
      },
      {
        "astId": 10454,
        "contract": "contracts/ethregistrar/ETHRegistrarController.sol:ETHRegistrarController",
        "label": "minCommitmentAge",
        "offset": 0,
        "slot": "3",
        "type": "t_uint256"
      },
      {
        "astId": 10456,
        "contract": "contracts/ethregistrar/ETHRegistrarController.sol:ETHRegistrarController",
        "label": "maxCommitmentAge",
        "offset": 0,
        "slot": "4",
        "type": "t_uint256"
      },
      {
        "astId": 10460,
        "contract": "contracts/ethregistrar/ETHRegistrarController.sol:ETHRegistrarController",
        "label": "commitments",
        "offset": 0,
        "slot": "5",
        "type": "t_mapping(t_bytes32,t_uint256)"
      }
    ],
    "types": {
      "t_address": {
        "encoding": "inplace",
        "label": "address",
        "numberOfBytes": "20"
      },
      "t_bytes32": {
        "encoding": "inplace",
        "label": "bytes32",
        "numberOfBytes": "32"
      },
      "t_contract(BaseRegistrarImplementation)10193": {
        "encoding": "inplace",
        "label": "contract BaseRegistrarImplementation",
        "numberOfBytes": "20"
      },
      "t_contract(PriceOracle)11934": {
        "encoding": "inplace",
        "label": "contract PriceOracle",
        "numberOfBytes": "20"
      },
      "t_mapping(t_bytes32,t_uint256)": {
        "encoding": "mapping",
        "key": "t_bytes32",
        "label": "mapping(bytes32 => uint256)",
        "numberOfBytes": "32",
        "value": "t_uint256"
      },
      "t_uint256": {
        "encoding": "inplace",
        "label": "uint256",
        "numberOfBytes": "32"
      }
    }
  }
}