{
  "address": "0x7b284b5292B95E7F7FD5567b2A71eFd7A058c2a1",
  "abi": [
    {
      "inputs": [
        {
          "internalType": "bytes",
          "name": "key",
          "type": "bytes"
        },
        {
          "internalType": "bytes",
          "name": "data",
          "type": "bytes"
        },
        {
          "internalType": "bytes",
          "name": "sig",
          "type": "bytes"
        }
      ],
      "name": "verify",
      "outputs": [
        {
          "internalType": "bool",
          "name": "",
          "type": "bool"
        }
      ],
      "stateMutability": "view",
      "type": "function"
    }
  ],
  "transactionHash": "0x2bf72331f255cb5bef2d911efed3bd41957aa3501d616fc9ac5e350ab2577f5c",
  "args": [],
  "solcInputHash": "74ab2646466a024017057c0b25d69be3",
  "bytecode": "0x608060405234801561001057600080fd5b50610d90806100206000396000f3fe608060405234801561001057600080fd5b506004361061002b5760003560e01c8063de8f50a114610030575b600080fd5b61004361003e366004610b67565b610057565b604051901515815260200160405180910390f35b600060608060006100a260048b8b8080601f01602080910402602001604051908101604052809392919081815260200183838082843760009201919091525092939250506103139050565b60ff169050801561016e576100f760058261ffff168c8c8080601f0160208091040260200160405190810160405280939291908181526020018383808284376000920191909152509294939250506103379050565b9250610167610107826005610c30565b61ffff9081169060059061011d9085168d610c56565b6101279190610c56565b8c8c8080601f0160208091040260200160405190810160405280939291908181526020018383808284376000920191909152509294939250506103379050565b9150610227565b6101b260058b8b8080601f01602080910402602001604051908101604052809392919081815260200183838082843760009201919091525092939250506103bb9050565b90506101fe60078261ffff168c8c8080601f0160208091040260200160405190810160405280939291908181526020018383808284376000920191909152509294939250506103379050565b925061022461020e826007610c30565b61ffff9081169060079061011d9085168d610c56565b91505b6000606061026c84868a8a8080601f0160208091040260200160405190810160405280939291908181526020018383808284376000920191909152506103e392505050565b909250905081801561030357506102916014825161028a9190610c56565b82906103fe565b6bffffffffffffffffffffffff19166102df8b8b8080601f01602080910402602001604051908101604052809392919081815260200183838082843760009201919091525061044492505050565b7fffffffffffffffffffffffffffffffffffffffff00000000000000000000000016145b9c9b505050505050505050505050565b600082828151811061032757610327610c6d565b016020015160f81c905092915050565b82516060906103468385610c9c565b111561035157600080fd5b60008267ffffffffffffffff81111561036c5761036c610cb4565b6040519080825280601f01601f191660200182016040528015610396576020820181803683370190505b509050602080820190868601016103ae828287610a13565b50909150505b9392505050565b81516000906103cb836002610c9c565b11156103d657600080fd5b50016002015161ffff1690565b600060606103f2838587610a87565b91509150935093915050565b815160009061040e836014610c9c565b111561041957600080fd5b5001602001517fffffffffffffffffffffffffffffffffffffffff0000000000000000000000001690565b60006040518251602084019350604067ffffffffffffffc060018301160160098282031060018103610477576040820191505b50776745230100efcdab890098badcfe001032547600c3d2e1f06104e7565b6000838310156103b4575080820151928290039260208410156103b4577fffffffffffffffffffffffffffffffffffffffffffffffffffffffffffffffff60208590036101000a0119169392505050565b60005b82811015610993576104fd848289610496565b855261050d846020830189610496565b6020860152604081850310600181036105295760808286038701535b506040830381146001810361054657602086018051600887021790525b5060405b6080811015610646578581017fffffffffffffffffffffffffffffffffffffffffffffffffffffffffffffffc08101517fffffffffffffffffffffffffffffffffffffffffffffffffffffffffffffffc88201517fffffffffffffffffffffffffffffffffffffffffffffffffffffffffffffffe08301517ffffffffffffffffffffffffffffffffffffffffffffffffffffffffffffffff48401516002911891909218189081027ffffffffefffffffefffffffefffffffefffffffefffffffefffffffefffffffe1663800000009091047c010000000100000001000000010000000100000001000000010000000116179052600c0161054a565b5060805b610140811015610747578581017fffffffffffffffffffffffffffffffffffffffffffffffffffffffffffffff808101517fffffffffffffffffffffffffffffffffffffffffffffffffffffffffffffff908201517fffffffffffffffffffffffffffffffffffffffffffffffffffffffffffffffc08301517fffffffffffffffffffffffffffffffffffffffffffffffffffffffffffffffe88401516004911891909218189081027ffffffffcfffffffcfffffffcfffffffcfffffffcfffffffcfffffffcfffffffc1663400000009091047c03000000030000000300000003000000030000000300000003000000031617905260180161064a565b508160008060005b60508110156109695760148104801561077f57600181146107bb57600281146107f557600381146108345761086a565b6501000000000085046a0100000000000000000000860481186f01000000000000000000000000000000870416189350635a827999925061086a565b6501000000000085046f0100000000000000000000000000000086046a0100000000000000000000870418189350636ed9eba1925061086a565b6a010000000000000000000085046f010000000000000000000000000000008604818117650100000000008804169116179350638f1bbcdc925061086a565b6501000000000085046f0100000000000000000000000000000086046a010000000000000000000087041818935063ca62c1d692505b50601f770800000000000000000000000000000000000000000000008504168063ffffffe073080000000000000000000000000000000000000087041617905080840190508063ffffffff86160190508083019050807c0100000000000000000000000000000000000000000000000000000000600484028c015104019050740100000000000000000000000000000000000000008102650100000000008604179450506a0100000000000000000000633fffffff6a040000000000000000000086041663c00000006604000000000000870416170277ffffffff00ffffffff000000000000ffffffff00ffffffff851617935060018101905061074f565b5050509190910177ffffffff00ffffffff00ffffffff00ffffffff00ffffffff16906040016104ea565b506c0100000000000000000000000063ffffffff821667ffffffff000000006101008404166bffffffff0000000000000000620100008504166fffffffff000000000000000000000000630100000086041673ffffffff000000000000000000000000000000006401000000008704161717171702945050505050919050565b60208110610a4b5781518352610a2a602084610c9c565b9250610a37602083610c9c565b9150610a44602082610c56565b9050610a13565b905182516020929092036101000a7fffffffffffffffffffffffffffffffffffffffffffffffffffffffffffffffff0180199091169116179052565b600060606000855185518551888888604051602001610aab96959493929190610d1e565b6040516020818303038152906040529050835167ffffffffffffffff811115610ad657610ad6610cb4565b6040519080825280601f01601f191660200182016040528015610b00576020820181803683370190505b50915083516020830182516020840160055afa925050935093915050565b60008083601f840112610b3057600080fd5b50813567ffffffffffffffff811115610b4857600080fd5b602083019150836020828501011115610b6057600080fd5b9250929050565b60008060008060008060608789031215610b8057600080fd5b863567ffffffffffffffff80821115610b9857600080fd5b610ba48a838b01610b1e565b90985096506020890135915080821115610bbd57600080fd5b610bc98a838b01610b1e565b90965094506040890135915080821115610be257600080fd5b50610bef89828a01610b1e565b979a9699509497509295939492505050565b7f4e487b7100000000000000000000000000000000000000000000000000000000600052601160045260246000fd5b600061ffff808316818516808303821115610c4d57610c4d610c01565b01949350505050565b600082821015610c6857610c68610c01565b500390565b7f4e487b7100000000000000000000000000000000000000000000000000000000600052603260045260246000fd5b60008219821115610caf57610caf610c01565b500190565b7f4e487b7100000000000000000000000000000000000000000000000000000000600052604160045260246000fd5b6000815160005b81811015610d045760208185018101518683015201610cea565b81811115610d13576000828601525b509290920192915050565b8681528560208201528460408201526000610d4e610d48610d426060850188610ce3565b86610ce3565b84610ce3565b9897505050505050505056fea2646970667358221220218ec3110025b29158be4dad675612184fef0d9e956255e2cab797b2af28770464736f6c634300080d0033",
  "devdoc": {
    "details": "Implements the DNSSEC RSASHA1 algorithm.",
    "kind": "dev",
    "methods": {},
    "version": 1
  },
  "userdoc": {
    "kind": "user",
    "methods": {},
    "version": 1
  },
  "storageLayout": {
    "storage": [],
    "types": null
  }
}