{
  "address": "0x15783632C34b70e6073a8638dc8A65804F4C5906",
  "abi": [
    {
      "inputs": [
        {
          "internalType": "bytes",
          "name": "salt",
          "type": "bytes"
        },
        {
          "internalType": "bytes",
          "name": "data",
          "type": "bytes"
        },
        {
          "internalType": "uint256",
          "name": "iterations",
          "type": "uint256"
        }
      ],
      "name": "hash",
      "outputs": [
        {
          "internalType": "bytes32",
          "name": "",
          "type": "bytes32"
        }
      ],
      "stateMutability": "pure",
      "type": "function"
    }
  ],
  "transactionHash": "0xb73fc18b20853187292f2745c27ae964640c1f0ed78cfeae6c6fc1b16cdb47ec",
  "args": [],
  "solcInputHash": "94e956c652e5891a9bad5efc6519a27d",
  "bytecode": "0x608060405234801561001057600080fd5b50610cb7806100206000396000f3fe608060405234801561001057600080fd5b506004361061002b5760003560e01c806368f9dab214610030575b600080fd5b61004361003e366004610aff565b610055565b60405190815260200160405180910390f35b6000610074604051806040016040528060608152602001600081525090565b6100936100818588610ba2565b61008c906010610ba2565b8290610201565b506100d685858080601f016020809104026020016040519081016040528093929190818152602001838380828437600092019190915250859392505061026c9050565b5061011987878080601f016020809104026020016040519081016040528093929190818152602001838380828437600092019190915250859392505061026c9050565b506000610129826000015161029a565b905083156101d457604080518082019091526060815260006020909101819052825152610157826000610869565b5061019a88888080601f016020809104026020016040519081016040528093929190818152602001838380828437600092019190915250869392505061026c9050565b5060005b848110156101d2576101b2836000846108b1565b5082516101be9061029a565b9150806101ca81610bba565b91505061019e565b505b7fffffffffffffffffffffffffffffffffffffffff00000000000000000000000016979650505050505050565b604080518082019091526060815260006020820152610221602083610bf2565b1561024957610231602083610bf2565b61023c906020610c2d565b6102469083610ba2565b91505b506020808301829052604080518085526000815283019091019052815b92915050565b604080518082019091526060815260006020820152610293838460000151518485516108fd565b9392505050565b60006040518251602084019350604067ffffffffffffffc0600183011601600982820310600181036102cd576040820191505b50776745230100efcdab890098badcfe001032547600c3d2e1f061033d565b60008383101561029357508082015192829003926020841015610293577fffffffffffffffffffffffffffffffffffffffffffffffffffffffffffffffff60208590036101000a0119169392505050565b60005b828110156107e9576103538482896102ec565b85526103638460208301896102ec565b60208601526040818503106001810361037f5760808286038701535b506040830381146001810361039c57602086018051600887021790525b5060405b608081101561049c578581017fffffffffffffffffffffffffffffffffffffffffffffffffffffffffffffffc08101517fffffffffffffffffffffffffffffffffffffffffffffffffffffffffffffffc88201517fffffffffffffffffffffffffffffffffffffffffffffffffffffffffffffffe08301517ffffffffffffffffffffffffffffffffffffffffffffffffffffffffffffffff48401516002911891909218189081027ffffffffefffffffefffffffefffffffefffffffefffffffefffffffefffffffe1663800000009091047c010000000100000001000000010000000100000001000000010000000116179052600c016103a0565b5060805b61014081101561059d578581017fffffffffffffffffffffffffffffffffffffffffffffffffffffffffffffff808101517fffffffffffffffffffffffffffffffffffffffffffffffffffffffffffffff908201517fffffffffffffffffffffffffffffffffffffffffffffffffffffffffffffffc08301517fffffffffffffffffffffffffffffffffffffffffffffffffffffffffffffffe88401516004911891909218189081027ffffffffcfffffffcfffffffcfffffffcfffffffcfffffffcfffffffcfffffffc1663400000009091047c0300000003000000030000000300000003000000030000000300000003161790526018016104a0565b508160008060005b60508110156107bf576014810480156105d55760018114610611576002811461064b576003811461068a576106c0565b6501000000000085046a0100000000000000000000860481186f01000000000000000000000000000000870416189350635a82799992506106c0565b6501000000000085046f0100000000000000000000000000000086046a0100000000000000000000870418189350636ed9eba192506106c0565b6a010000000000000000000085046f010000000000000000000000000000008604818117650100000000008804169116179350638f1bbcdc92506106c0565b6501000000000085046f0100000000000000000000000000000086046a010000000000000000000087041818935063ca62c1d692505b50601f770800000000000000000000000000000000000000000000008504168063ffffffe073080000000000000000000000000000000000000087041617905080840190508063ffffffff86160190508083019050807c0100000000000000000000000000000000000000000000000000000000600484028c015104019050740100000000000000000000000000000000000000008102650100000000008604179450506a0100000000000000000000633fffffff6a040000000000000000000086041663c00000006604000000000000870416170277ffffffff00ffffffff000000000000ffffffff00ffffffff85161793506001810190506105a5565b5050509190910177ffffffff00ffffffff00ffffffff00ffffffff00ffffffff1690604001610340565b506c0100000000000000000000000063ffffffff821667ffffffff000000006101008404166bffffffff0000000000000000620100008504166fffffffff000000000000000000000000630100000086041673ffffffff000000000000000000000000000000006401000000008704161717171702945050505050919050565b6040805180820190915260608152600060208201528251516102939084907fffffffffffffffffffffffffffffffffffffffff00000000000000000000000085166014610a05565b6040805180820190915260608152600060208201526108f584847fffffffffffffffffffffffffffffffffffffffff00000000000000000000000085166014610a05565b949350505050565b604080518082019091526060815260006020820152825182111561092057600080fd5b602085015161092f8386610ba2565b111561096257610962856109528760200151878661094d9190610ba2565b610a82565b61095d906002610c44565b610a99565b6000808651805187602083010193508088870111156109815787860182525b505050602084015b602084106109c157805182526109a0602083610ba2565b91506109ad602082610ba2565b90506109ba602085610c2d565b9350610989565b5181517fffffffffffffffffffffffffffffffffffffffffffffffffffffffffffffffff60208690036101000a019081169019919091161790525083949350505050565b6040805180820190915260608152600060208201526020850151610a298584610ba2565b1115610a3d57610a3d856109528685610ba2565b60006001836101000a0390508260200360080284901c9350855183868201018583198251161781525080518487011115610a775783860181525b509495945050505050565b600081831115610a93575081610266565b50919050565b8151610aa58383610201565b50610ab0838261026c565b50505050565b60008083601f840112610ac857600080fd5b50813567ffffffffffffffff811115610ae057600080fd5b602083019150836020828501011115610af857600080fd5b9250929050565b600080600080600060608688031215610b1757600080fd5b853567ffffffffffffffff80821115610b2f57600080fd5b610b3b89838a01610ab6565b90975095506020880135915080821115610b5457600080fd5b50610b6188828901610ab6565b96999598509660400135949350505050565b7f4e487b7100000000000000000000000000000000000000000000000000000000600052601160045260246000fd5b60008219821115610bb557610bb5610b73565b500190565b60007fffffffffffffffffffffffffffffffffffffffffffffffffffffffffffffffff8203610beb57610beb610b73565b5060010190565b600082610c28577f4e487b7100000000000000000000000000000000000000000000000000000000600052601260045260246000fd5b500690565b600082821015610c3f57610c3f610b73565b500390565b6000817fffffffffffffffffffffffffffffffffffffffffffffffffffffffffffffffff0483118215151615610c7c57610c7c610b73565b50029056fea2646970667358221220bbb29de99300e493e1cf9596049a1eb680a21ed764bb7b41e81a0669bcb449c064736f6c634300080d0033",
  "devdoc": {
    "details": "Implements the DNSSEC iterated SHA1 digest used for NSEC3 records.",
    "kind": "dev",
    "methods": {
      "hash(bytes,bytes,uint256)": {
        "details": "Performs an NSEC3 iterated hash.",
        "params": {
          "data": "The data to hash.",
          "iterations": "The number of iterations to perform.",
          "salt": "The salt value to use on each iteration."
        },
        "returns": {
          "_0": "The result of the iterated hash operation."
        }
      }
    },
    "version": 1
  },
  "userdoc": {
    "kind": "user",
    "methods": {},
    "version": 1
  },
  "storageLayout": {
    "storage": [],
    "types": null
  }
}