{
  "address": "0x88a77cb2d7Da724a9Acc6111A657e9391912902c",
  "abi": [
    {
      "inputs": [
        {
          "internalType": "contract AggregatorInterface",
          "name": "_usdOracle",
          "type": "address"
        },
        {
          "internalType": "uint256[]",
          "name": "_rentPrices",
          "type": "uint256[]"
        }
      ],
      "stateMutability": "nonpayable",
      "type": "constructor"
    },
    {
      "anonymous": false,
      "inputs": [
        {
          "indexed": false,
          "internalType": "address",
          "name": "oracle",
          "type": "address"
        }
      ],
      "name": "OracleChanged",
      "type": "event"
    },
    {
      "anonymous": false,
      "inputs": [
        {
          "indexed": true,
          "internalType": "address",
          "name": "previousOwner",
          "type": "address"
        },
        {
          "indexed": true,
          "internalType": "address",
          "name": "newOwner",
          "type": "address"
        }
      ],
      "name": "OwnershipTransferred",
      "type": "event"
    },
    {
      "anonymous": false,
      "inputs": [
        {
          "indexed": false,
          "internalType": "uint256[]",
          "name": "prices",
          "type": "uint256[]"
        }
      ],
      "name": "RentPriceChanged",
      "type": "event"
    },
    {
      "inputs": [],
      "name": "owner",
      "outputs": [
        {
          "internalType": "address",
          "name": "",
          "type": "address"
        }
      ],
      "stateMutability": "view",
      "type": "function"
    },
    {
      "inputs": [
        {
          "internalType": "string",
          "name": "name",
          "type": "string"
        },
        {
          "internalType": "uint256",
          "name": "expires",
          "type": "uint256"
        },
        {
          "internalType": "uint256",
          "name": "duration",
          "type": "uint256"
        }
      ],
      "name": "premium",
      "outputs": [
        {
          "internalType": "uint256",
          "name": "",
          "type": "uint256"
        }
      ],
      "stateMutability": "view",
      "type": "function"
    },
    {
      "inputs": [
        {
          "internalType": "string",
          "name": "name",
          "type": "string"
        },
        {
          "internalType": "uint256",
          "name": "expires",
          "type": "uint256"
        },
        {
          "internalType": "uint256",
          "name": "duration",
          "type": "uint256"
        }
      ],
      "name": "price",
      "outputs": [
        {
          "internalType": "uint256",
          "name": "",
          "type": "uint256"
        }
      ],
      "stateMutability": "view",
      "type": "function"
    },
    {
      "inputs": [],
      "name": "renounceOwnership",
      "outputs": [],
      "stateMutability": "nonpayable",
      "type": "function"
    },
    {
      "inputs": [
        {
          "internalType": "uint256",
          "name": "",
          "type": "uint256"
        }
      ],
      "name": "rentPrices",
      "outputs": [
        {
          "internalType": "uint256",
          "name": "",
          "type": "uint256"
        }
      ],
      "stateMutability": "view",
      "type": "function"
    },
    {
      "inputs": [
        {
          "internalType": "contract AggregatorInterface",
          "name": "_usdOracle",
          "type": "address"
        }
      ],
      "name": "setOracle",
      "outputs": [],
      "stateMutability": "nonpayable",
      "type": "function"
    },
    {
      "inputs": [
        {
          "internalType": "uint256[]",
          "name": "_rentPrices",
          "type": "uint256[]"
        }
      ],
      "name": "setPrices",
      "outputs": [],
      "stateMutability": "nonpayable",
      "type": "function"
    },
    {
      "inputs": [
        {
          "internalType": "bytes4",
          "name": "interfaceID",
          "type": "bytes4"
        }
      ],
      "name": "supportsInterface",
      "outputs": [
        {
          "internalType": "bool",
          "name": "",
          "type": "bool"
        }
      ],
      "stateMutability": "view",
      "type": "function"
    },
    {
      "inputs": [
        {
          "internalType": "address",
          "name": "newOwner",
          "type": "address"
        }
      ],
      "name": "transferOwnership",
      "outputs": [],
      "stateMutability": "nonpayable",
      "type": "function"
    },
    {
      "inputs": [],
      "name": "usdOracle",
      "outputs": [
        {
          "internalType": "contract AggregatorInterface",
          "name": "",
          "type": "address"
        }
      ],
      "stateMutability": "view",
      "type": "function"
    }
  ],
  "transactionHash": "0xdf5ac27febe539b1c7abfa20d5980d2246bf40d4db95ea07453fdd6bda81628a",
  "args": [
    "0x838B884e7e5394c7652Ff9957ddfC4Df9B400411",
    [
      1
    ]
  ],
  "solcInputHash": "94e956c652e5891a9bad5efc6519a27d",
  "bytecode": "0x60806040523480156200001157600080fd5b5060405162001299380380620012998339810160408190526200003491620001eb565b6200003f336200006d565b600280546001600160a01b0319166001600160a01b0384161790556200006581620000bd565b50506200031e565b600080546001600160a01b038381166001600160a01b0319831681178455604051919092169283917f8be0079c531659141344cd1fd0a4f28419497f9722a3daafe3b4186f6b6457e09190a35050565b6000546001600160a01b031633146200011c5760405162461bcd60e51b815260206004820181905260248201527f4f776e61626c653a2063616c6c6572206973206e6f7420746865206f776e6572604482015260640160405180910390fd5b8051620001319060019060208401906200016e565b507f73422d94aedd596c2d4d39f27a01033adc390a9054efaf259afefd95ef7331df81604051620001639190620002d8565b60405180910390a150565b828054828255906000526020600020908101928215620001ac579160200282015b82811115620001ac5782518255916020019190600101906200018f565b50620001ba929150620001be565b5090565b5b80821115620001ba5760008155600101620001bf565b634e487b7160e01b600052604160045260246000fd5b60008060408385031215620001ff57600080fd5b82516001600160a01b03811681146200021757600080fd5b602084810151919350906001600160401b03808211156200023757600080fd5b818601915086601f8301126200024c57600080fd5b815181811115620002615762000261620001d5565b8060051b604051601f19603f83011681018181108582111715620002895762000289620001d5565b604052918252848201925083810185019189831115620002a857600080fd5b938501935b82851015620002c857845184529385019392850192620002ad565b8096505050505050509250929050565b6020808252825182820181905260009190848201906040850190845b818110156200031257835183529284019291840191600101620002f4565b50909695505050505050565b610f6b806200032e6000396000f3fe608060405234801561001057600080fd5b50600436106100be5760003560e01c80637adbf97311610076578063a34e35961161005b578063a34e35961461018e578063c8a4271f146101a1578063f2fde38b146101c157600080fd5b80637adbf9731461013c5780638da5cb5b1461014f57600080fd5b806350e9a715116100a757806350e9a7151461010c578063715018a61461011f57806379cf92d31461012957600080fd5b806301ffc9a7146100c357806306d5d0b6146100eb575b600080fd5b6100d66100d1366004610b77565b6101d4565b60405190151581526020015b60405180910390f35b6100fe6100f9366004610bb9565b61026d565b6040519081526020016100e2565b6100fe61011a366004610bd2565b61028e565b61012761038f565b005b610127610137366004610c80565b610421565b61012761014a366004610d7e565b6104f0565b60005473ffffffffffffffffffffffffffffffffffffffff165b60405173ffffffffffffffffffffffffffffffffffffffff90911681526020016100e2565b6100fe61019c366004610bd2565b6105e4565b6002546101699073ffffffffffffffffffffffffffffffffffffffff1681565b6101276101cf366004610d7e565b61063a565b60007fffffffff0000000000000000000000000000000000000000000000000000000082167f01ffc9a700000000000000000000000000000000000000000000000000000000148061026757507fffffffff0000000000000000000000000000000000000000000000000000000082167ff3a7928300000000000000000000000000000000000000000000000000000000145b92915050565b6001818154811061027d57600080fd5b600091825260209091200154905081565b6000806102d086868080601f01602080910402602001604051908101604052809392919081815260200183838082843760009201919091525061076a92505050565b6001549091508111156102e257506001545b600081116102ef57600080fd5b600061032a8460016103018186610dca565b8154811061031157610311610de1565b906000526020600020015461097190919063ffffffff16565b905061037961037288888080601f0160208091040260200160405190810160405280939291908181526020018383808284376000920191909152508a92508991506109ad9050565b82906109b6565b9050610384816109d2565b979650505050505050565b60005473ffffffffffffffffffffffffffffffffffffffff163314610415576040517f08c379a000000000000000000000000000000000000000000000000000000000815260206004820181905260248201527f4f776e61626c653a2063616c6c6572206973206e6f7420746865206f776e657260448201526064015b60405180910390fd5b61041f6000610a80565b565b60005473ffffffffffffffffffffffffffffffffffffffff1633146104a2576040517f08c379a000000000000000000000000000000000000000000000000000000000815260206004820181905260248201527f4f776e61626c653a2063616c6c6572206973206e6f7420746865206f776e6572604482015260640161040c565b80516104b5906001906020840190610b17565b507f73422d94aedd596c2d4d39f27a01033adc390a9054efaf259afefd95ef7331df816040516104e59190610e10565b60405180910390a150565b60005473ffffffffffffffffffffffffffffffffffffffff163314610571576040517f08c379a000000000000000000000000000000000000000000000000000000000815260206004820181905260248201527f4f776e61626c653a2063616c6c6572206973206e6f7420746865206f776e6572604482015260640161040c565b600280547fffffffffffffffffffffffff00000000000000000000000000000000000000001673ffffffffffffffffffffffffffffffffffffffff83169081179091556040519081527f0e05ae75e8b926552cf6fcd744d19f422561e3ced1e426868730852702dbe418906020016104e5565b600061063161062c86868080601f0160208091040260200160405190810160405280939291908181526020018383808284376000920191909152508892508791506109ad9050565b6109d2565b95945050505050565b60005473ffffffffffffffffffffffffffffffffffffffff1633146106bb576040517f08c379a000000000000000000000000000000000000000000000000000000000815260206004820181905260248201527f4f776e61626c653a2063616c6c6572206973206e6f7420746865206f776e6572604482015260640161040c565b73ffffffffffffffffffffffffffffffffffffffff811661075e576040517f08c379a000000000000000000000000000000000000000000000000000000000815260206004820152602660248201527f4f776e61626c653a206e6577206f776e657220697320746865207a65726f206160448201527f6464726573730000000000000000000000000000000000000000000000000000606482015260840161040c565b61076781610a80565b50565b8051600090819081905b8082101561096857600085838151811061079057610790610de1565b01602001517fff000000000000000000000000000000000000000000000000000000000000001690507f80000000000000000000000000000000000000000000000000000000000000008110156107f3576107ec600184610e54565b9250610955565b7fe0000000000000000000000000000000000000000000000000000000000000007fff0000000000000000000000000000000000000000000000000000000000000082161015610848576107ec600284610e54565b7ff0000000000000000000000000000000000000000000000000000000000000007fff000000000000000000000000000000000000000000000000000000000000008216101561089d576107ec600384610e54565b7ff8000000000000000000000000000000000000000000000000000000000000007fff00000000000000000000000000000000000000000000000000000000000000821610156108f2576107ec600484610e54565b7ffc000000000000000000000000000000000000000000000000000000000000007fff0000000000000000000000000000000000000000000000000000000000000082161015610947576107ec600584610e54565b610952600684610e54565b92505b508261096081610e6c565b935050610774565b50909392505050565b60008260000361098357506000610267565b600061098f8385610ea4565b90508261099c8583610ee1565b146109a657600080fd5b9392505050565b60009392505050565b6000806109c38385610e54565b9050838110156109a657600080fd5b600080600260009054906101000a900473ffffffffffffffffffffffffffffffffffffffff1673ffffffffffffffffffffffffffffffffffffffff166350d25bcd6040518163ffffffff1660e01b8152600401602060405180830381865afa158015610a42573d6000803e3d6000fd5b505050506040513d601f19601f82011682018060405250810190610a669190610f1c565b90506109a681610a7a856305f5e100610971565b90610af5565b6000805473ffffffffffffffffffffffffffffffffffffffff8381167fffffffffffffffffffffffff0000000000000000000000000000000000000000831681178455604051919092169283917f8be0079c531659141344cd1fd0a4f28419497f9722a3daafe3b4186f6b6457e09190a35050565b6000808211610b0357600080fd5b6000610b0f8385610ee1565b949350505050565b828054828255906000526020600020908101928215610b52579160200282015b82811115610b52578251825591602001919060010190610b37565b50610b5e929150610b62565b5090565b5b80821115610b5e5760008155600101610b63565b600060208284031215610b8957600080fd5b81357fffffffff00000000000000000000000000000000000000000000000000000000811681146109a657600080fd5b600060208284031215610bcb57600080fd5b5035919050565b60008060008060608587031215610be857600080fd5b843567ffffffffffffffff80821115610c0057600080fd5b818701915087601f830112610c1457600080fd5b813581811115610c2357600080fd5b886020828501011115610c3557600080fd5b6020928301999098509187013596604001359550909350505050565b7f4e487b7100000000000000000000000000000000000000000000000000000000600052604160045260246000fd5b60006020808385031215610c9357600080fd5b823567ffffffffffffffff80821115610cab57600080fd5b818501915085601f830112610cbf57600080fd5b813581811115610cd157610cd1610c51565b8060051b6040517fffffffffffffffffffffffffffffffffffffffffffffffffffffffffffffffe0603f83011681018181108582111715610d1457610d14610c51565b604052918252848201925083810185019188831115610d3257600080fd5b938501935b82851015610d5057843584529385019392850192610d37565b98975050505050505050565b73ffffffffffffffffffffffffffffffffffffffff8116811461076757600080fd5b600060208284031215610d9057600080fd5b81356109a681610d5c565b7f4e487b7100000000000000000000000000000000000000000000000000000000600052601160045260246000fd5b600082821015610ddc57610ddc610d9b565b500390565b7f4e487b7100000000000000000000000000000000000000000000000000000000600052603260045260246000fd5b6020808252825182820181905260009190848201906040850190845b81811015610e4857835183529284019291840191600101610e2c565b50909695505050505050565b60008219821115610e6757610e67610d9b565b500190565b60007fffffffffffffffffffffffffffffffffffffffffffffffffffffffffffffffff8203610e9d57610e9d610d9b565b5060010190565b6000817fffffffffffffffffffffffffffffffffffffffffffffffffffffffffffffffff0483118215151615610edc57610edc610d9b565b500290565b600082610f17577f4e487b7100000000000000000000000000000000000000000000000000000000600052601260045260246000fd5b500490565b600060208284031215610f2e57600080fd5b505191905056fea2646970667358221220a107e18effe5403274e098bc7a80b7b0ac940dd08277fea70eb954d2ac2c221764736f6c634300080d0033",
  "devdoc": {
    "kind": "dev",
    "methods": {
      "owner()": {
        "details": "Returns the address of the current owner."
      },
      "premium(string,uint256,uint256)": {
        "details": "Returns the pricing premium in wei."
      },
      "price(string,uint256,uint256)": {
        "details": "Returns the price to register or renew a name.",
        "params": {
          "duration": "How long the name is being registered or extended for, in seconds.",
          "expires": "When the name presently expires (0 if this is a new registration).",
          "name": "The name being registered or renewed."
        },
        "returns": {
          "_0": "The price of this renewal or registration, in wei."
        }
      },
      "renounceOwnership()": {
        "details": "Leaves the contract without owner. It will not be possible to call `onlyOwner` functions anymore. Can only be called by the current owner. NOTE: Renouncing ownership will leave the contract without an owner, thereby removing any functionality that is only available to the owner."
      },
      "setOracle(address)": {
        "details": "Sets the price oracle address",
        "params": {
          "_usdOracle": "The address of the price oracle to use."
        }
      },
      "setPrices(uint256[])": {
        "details": "Sets rent prices.",
        "params": {
          "_rentPrices": "The price array. Each element corresponds to a specific                    name length; names longer than the length of the array                    default to the price of the last element. Values are                    in base price units, equal to one attodollar (1e-18                    dollar) each."
        }
      },
      "transferOwnership(address)": {
        "details": "Transfers ownership of the contract to a new account (`newOwner`). Can only be called by the current owner."
      }
    },
    "version": 1
  },
  "userdoc": {
    "kind": "user",
    "methods": {},
    "version": 1
  },
  "storageLayout": {
    "storage": [
      {
        "astId": 545,
        "contract": "contracts/ethregistrar/StablePriceOracle.sol:StablePriceOracle",
        "label": "_owner",
        "offset": 0,
        "slot": "0",
        "type": "t_address"
      },
      {
        "astId": 12091,
        "contract": "contracts/ethregistrar/StablePriceOracle.sol:StablePriceOracle",
        "label": "rentPrices",
        "offset": 0,
        "slot": "1",
        "type": "t_array(t_uint256)dyn_storage"
      },
      {
        "astId": 12094,
        "contract": "contracts/ethregistrar/StablePriceOracle.sol:StablePriceOracle",
        "label": "usdOracle",
        "offset": 0,
        "slot": "2",
        "type": "t_contract(AggregatorInterface)12080"
      }
    ],
    "types": {
      "t_address": {
        "encoding": "inplace",
        "label": "address",
        "numberOfBytes": "20"
      },
      "t_array(t_uint256)dyn_storage": {
        "base": "t_uint256",
        "encoding": "dynamic_array",
        "label": "uint256[]",
        "numberOfBytes": "32"
      },
      "t_contract(AggregatorInterface)12080": {
        "encoding": "inplace",
        "label": "contract AggregatorInterface",
        "numberOfBytes": "20"
      },
      "t_uint256": {
        "encoding": "inplace",
        "label": "uint256",
        "numberOfBytes": "32"
      }
    }
  }
}