{
  "address": "0xCFf1A9e4C3397EF81DD2Aa2403D765FD56fe0BB3",
  "abi": [
    {
      "inputs": [
        {
          "internalType": "contract AggregatorInterface",
          "name": "_usdOracle",
          "type": "address"
        },
        {
          "internalType": "uint256[]",
          "name": "_rentPrices",
          "type": "uint256[]"
        }
      ],
      "stateMutability": "nonpayable",
      "type": "constructor"
    },
    {
      "anonymous": false,
      "inputs": [
        {
          "indexed": false,
          "internalType": "address",
          "name": "oracle",
          "type": "address"
        }
      ],
      "name": "OracleChanged",
      "type": "event"
    },
    {
      "anonymous": false,
      "inputs": [
        {
          "indexed": true,
          "internalType": "address",
          "name": "previousOwner",
          "type": "address"
        },
        {
          "indexed": true,
          "internalType": "address",
          "name": "newOwner",
          "type": "address"
        }
      ],
      "name": "OwnershipTransferred",
      "type": "event"
    },
    {
      "anonymous": false,
      "inputs": [
        {
          "indexed": false,
          "internalType": "uint256[]",
          "name": "prices",
          "type": "uint256[]"
        }
      ],
      "name": "RentPriceChanged",
      "type": "event"
    },
    {
      "inputs": [],
      "name": "owner",
      "outputs": [
        {
          "internalType": "address",
          "name": "",
          "type": "address"
        }
      ],
      "stateMutability": "view",
      "type": "function"
    },
    {
      "inputs": [
        {
          "internalType": "string",
          "name": "name",
          "type": "string"
        },
        {
          "internalType": "uint256",
          "name": "expires",
          "type": "uint256"
        },
        {
          "internalType": "uint256",
          "name": "duration",
          "type": "uint256"
        }
      ],
      "name": "premium",
      "outputs": [
        {
          "internalType": "uint256",
          "name": "",
          "type": "uint256"
        }
      ],
      "stateMutability": "view",
      "type": "function"
    },
    {
      "inputs": [
        {
          "internalType": "string",
          "name": "name",
          "type": "string"
        },
        {
          "internalType": "uint256",
          "name": "expires",
          "type": "uint256"
        },
        {
          "internalType": "uint256",
          "name": "duration",
          "type": "uint256"
        }
      ],
      "name": "price",
      "outputs": [
        {
          "internalType": "uint256",
          "name": "",
          "type": "uint256"
        }
      ],
      "stateMutability": "view",
      "type": "function"
    },
    {
      "inputs": [],
      "name": "renounceOwnership",
      "outputs": [],
      "stateMutability": "nonpayable",
      "type": "function"
    },
    {
      "inputs": [
        {
          "internalType": "uint256",
          "name": "",
          "type": "uint256"
        }
      ],
      "name": "rentPrices",
      "outputs": [
        {
          "internalType": "uint256",
          "name": "",
          "type": "uint256"
        }
      ],
      "stateMutability": "view",
      "type": "function"
    },
    {
      "inputs": [
        {
          "internalType": "contract AggregatorInterface",
          "name": "_usdOracle",
          "type": "address"
        }
      ],
      "name": "setOracle",
      "outputs": [],
      "stateMutability": "nonpayable",
      "type": "function"
    },
    {
      "inputs": [
        {
          "internalType": "uint256[]",
          "name": "_rentPrices",
          "type": "uint256[]"
        }
      ],
      "name": "setPrices",
      "outputs": [],
      "stateMutability": "nonpayable",
      "type": "function"
    },
    {
      "inputs": [
        {
          "internalType": "bytes4",
          "name": "interfaceID",
          "type": "bytes4"
        }
      ],
      "name": "supportsInterface",
      "outputs": [
        {
          "internalType": "bool",
          "name": "",
          "type": "bool"
        }
      ],
      "stateMutability": "view",
      "type": "function"
    },
    {
      "inputs": [
        {
          "internalType": "address",
          "name": "newOwner",
          "type": "address"
        }
      ],
      "name": "transferOwnership",
      "outputs": [],
      "stateMutability": "nonpayable",
      "type": "function"
    },
    {
      "inputs": [],
      "name": "usdOracle",
      "outputs": [
        {
          "internalType": "contract AggregatorInterface",
          "name": "",
          "type": "address"
        }
      ],
      "stateMutability": "view",
      "type": "function"
    }
  ],
  "transactionHash": "0xa644a5e76c0ea824dd51445d44fd49a5587815b743234bfe691721d73a8b07db",
  "args": [
    "0x114399b1497eF21ACf4f7dBd2410a3e9BF3cE38c",
    [
      1
    ]
  ],
  "solcInputHash": "2c44a0d1a5de40ef2b3aaaabc0e90573",
  "bytecode": "0x60806040523480156200001157600080fd5b5060405162001142380380620011428339810160408190526200003491620001f7565b6200003f336200006d565b600280546001600160a01b0319166001600160a01b0384161790556200006581620000bd565b50506200032a565b600080546001600160a01b038381166001600160a01b0319831681178455604051919092169283917f8be0079c531659141344cd1fd0a4f28419497f9722a3daafe3b4186f6b6457e09190a35050565b620000c762000119565b8051620000dc9060019060208401906200017a565b507f73422d94aedd596c2d4d39f27a01033adc390a9054efaf259afefd95ef7331df816040516200010e9190620002e4565b60405180910390a150565b6000546001600160a01b03163314620001785760405162461bcd60e51b815260206004820181905260248201527f4f776e61626c653a2063616c6c6572206973206e6f7420746865206f776e6572604482015260640160405180910390fd5b565b828054828255906000526020600020908101928215620001b8579160200282015b82811115620001b85782518255916020019190600101906200019b565b50620001c6929150620001ca565b5090565b5b80821115620001c65760008155600101620001cb565b634e487b7160e01b600052604160045260246000fd5b600080604083850312156200020b57600080fd5b82516001600160a01b03811681146200022357600080fd5b602084810151919350906001600160401b03808211156200024357600080fd5b818601915086601f8301126200025857600080fd5b8151818111156200026d576200026d620001e1565b8060051b604051601f19603f83011681018181108582111715620002955762000295620001e1565b604052918252848201925083810185019189831115620002b457600080fd5b938501935b82851015620002d457845184529385019392850192620002b9565b8096505050505050509250929050565b6020808252825182820181905260009190848201906040850190845b818110156200031e5783518352928401929184019160010162000300565b50909695505050505050565b610e08806200033a6000396000f3fe608060405234801561001057600080fd5b50600436106100be5760003560e01c80637adbf97311610076578063a34e35961161005b578063a34e35961461018e578063c8a4271f146101a1578063f2fde38b146101c157600080fd5b80637adbf9731461013c5780638da5cb5b1461014f57600080fd5b806350e9a715116100a757806350e9a7151461010c578063715018a61461011f57806379cf92d31461012957600080fd5b806301ffc9a7146100c357806306d5d0b6146100eb575b600080fd5b6100d66100d1366004610a14565b6101d4565b60405190151581526020015b60405180910390f35b6100fe6100f9366004610a56565b61026d565b6040519081526020016100e2565b6100fe61011a366004610a6f565b61028e565b61012761038f565b005b610127610137366004610b1d565b6103a3565b61012761014a366004610c1b565b6103f9565b60005473ffffffffffffffffffffffffffffffffffffffff165b60405173ffffffffffffffffffffffffffffffffffffffff90911681526020016100e2565b6100fe61019c366004610a6f565b610474565b6002546101699073ffffffffffffffffffffffffffffffffffffffff1681565b6101276101cf366004610c1b565b6104ca565b60007fffffffff0000000000000000000000000000000000000000000000000000000082167f01ffc9a700000000000000000000000000000000000000000000000000000000148061026757507fffffffff0000000000000000000000000000000000000000000000000000000082167ff3a7928300000000000000000000000000000000000000000000000000000000145b92915050565b6001818154811061027d57600080fd5b600091825260209091200154905081565b6000806102d086868080601f01602080910402602001604051908101604052809392919081815260200183838082843760009201919091525061058692505050565b6001549091508111156102e257506001545b600081116102ef57600080fd5b600061032a8460016103018186610c67565b8154811061031157610311610c7e565b906000526020600020015461078d90919063ffffffff16565b905061037961037288888080601f0160208091040260200160405190810160405280939291908181526020018383808284376000920191909152508a92508991506107c99050565b82906107d2565b9050610384816107ee565b979650505050505050565b61039761089c565b6103a1600061091d565b565b6103ab61089c565b80516103be9060019060208401906109b4565b507f73422d94aedd596c2d4d39f27a01033adc390a9054efaf259afefd95ef7331df816040516103ee9190610cad565b60405180910390a150565b61040161089c565b600280547fffffffffffffffffffffffff00000000000000000000000000000000000000001673ffffffffffffffffffffffffffffffffffffffff83169081179091556040519081527f0e05ae75e8b926552cf6fcd744d19f422561e3ced1e426868730852702dbe418906020016103ee565b60006104c16104bc86868080601f0160208091040260200160405190810160405280939291908181526020018383808284376000920191909152508892508791506107c99050565b6107ee565b95945050505050565b6104d261089c565b73ffffffffffffffffffffffffffffffffffffffff811661057a576040517f08c379a000000000000000000000000000000000000000000000000000000000815260206004820152602660248201527f4f776e61626c653a206e6577206f776e657220697320746865207a65726f206160448201527f646472657373000000000000000000000000000000000000000000000000000060648201526084015b60405180910390fd5b6105838161091d565b50565b8051600090819081905b808210156107845760008583815181106105ac576105ac610c7e565b01602001517fff000000000000000000000000000000000000000000000000000000000000001690507f800000000000000000000000000000000000000000000000000000000000000081101561060f57610608600184610cf1565b9250610771565b7fe0000000000000000000000000000000000000000000000000000000000000007fff000000000000000000000000000000000000000000000000000000000000008216101561066457610608600284610cf1565b7ff0000000000000000000000000000000000000000000000000000000000000007fff00000000000000000000000000000000000000000000000000000000000000821610156106b957610608600384610cf1565b7ff8000000000000000000000000000000000000000000000000000000000000007fff000000000000000000000000000000000000000000000000000000000000008216101561070e57610608600484610cf1565b7ffc000000000000000000000000000000000000000000000000000000000000007fff000000000000000000000000000000000000000000000000000000000000008216101561076357610608600584610cf1565b61076e600684610cf1565b92505b508261077c81610d09565b935050610590565b50909392505050565b60008260000361079f57506000610267565b60006107ab8385610d41565b9050826107b88583610d7e565b146107c257600080fd5b9392505050565b60009392505050565b6000806107df8385610cf1565b9050838110156107c257600080fd5b600080600260009054906101000a900473ffffffffffffffffffffffffffffffffffffffff1673ffffffffffffffffffffffffffffffffffffffff166350d25bcd6040518163ffffffff1660e01b8152600401602060405180830381865afa15801561085e573d6000803e3d6000fd5b505050506040513d601f19601f820116820180604052508101906108829190610db9565b90506107c281610896856305f5e10061078d565b90610992565b60005473ffffffffffffffffffffffffffffffffffffffff1633146103a1576040517f08c379a000000000000000000000000000000000000000000000000000000000815260206004820181905260248201527f4f776e61626c653a2063616c6c6572206973206e6f7420746865206f776e65726044820152606401610571565b6000805473ffffffffffffffffffffffffffffffffffffffff8381167fffffffffffffffffffffffff0000000000000000000000000000000000000000831681178455604051919092169283917f8be0079c531659141344cd1fd0a4f28419497f9722a3daafe3b4186f6b6457e09190a35050565b60008082116109a057600080fd5b60006109ac8385610d7e565b949350505050565b8280548282559060005260206000209081019282156109ef579160200282015b828111156109ef5782518255916020019190600101906109d4565b506109fb9291506109ff565b5090565b5b808211156109fb5760008155600101610a00565b600060208284031215610a2657600080fd5b81357fffffffff00000000000000000000000000000000000000000000000000000000811681146107c257600080fd5b600060208284031215610a6857600080fd5b5035919050565b60008060008060608587031215610a8557600080fd5b843567ffffffffffffffff80821115610a9d57600080fd5b818701915087601f830112610ab157600080fd5b813581811115610ac057600080fd5b886020828501011115610ad257600080fd5b6020928301999098509187013596604001359550909350505050565b7f4e487b7100000000000000000000000000000000000000000000000000000000600052604160045260246000fd5b60006020808385031215610b3057600080fd5b823567ffffffffffffffff80821115610b4857600080fd5b818501915085601f830112610b5c57600080fd5b813581811115610b6e57610b6e610aee565b8060051b6040517fffffffffffffffffffffffffffffffffffffffffffffffffffffffffffffffe0603f83011681018181108582111715610bb157610bb1610aee565b604052918252848201925083810185019188831115610bcf57600080fd5b938501935b82851015610bed57843584529385019392850192610bd4565b98975050505050505050565b73ffffffffffffffffffffffffffffffffffffffff8116811461058357600080fd5b600060208284031215610c2d57600080fd5b81356107c281610bf9565b7f4e487b7100000000000000000000000000000000000000000000000000000000600052601160045260246000fd5b600082821015610c7957610c79610c38565b500390565b7f4e487b7100000000000000000000000000000000000000000000000000000000600052603260045260246000fd5b6020808252825182820181905260009190848201906040850190845b81811015610ce557835183529284019291840191600101610cc9565b50909695505050505050565b60008219821115610d0457610d04610c38565b500190565b60007fffffffffffffffffffffffffffffffffffffffffffffffffffffffffffffffff8203610d3a57610d3a610c38565b5060010190565b6000817fffffffffffffffffffffffffffffffffffffffffffffffffffffffffffffffff0483118215151615610d7957610d79610c38565b500290565b600082610db4577f4e487b7100000000000000000000000000000000000000000000000000000000600052601260045260246000fd5b500490565b600060208284031215610dcb57600080fd5b505191905056fea264697066735822122071f99c6f592e31bbe3f69d58f1058f23ec5cef496401c7c4d4ea7d4fd019839064736f6c634300080d0033",
  "devdoc": {
    "kind": "dev",
    "methods": {
      "owner()": {
        "details": "Returns the address of the current owner."
      },
      "premium(string,uint256,uint256)": {
        "details": "Returns the pricing premium in wei."
      },
      "price(string,uint256,uint256)": {
        "details": "Returns the price to register or renew a name.",
        "params": {
          "duration": "How long the name is being registered or extended for, in seconds.",
          "expires": "When the name presently expires (0 if this is a new registration).",
          "name": "The name being registered or renewed."
        },
        "returns": {
          "_0": "The price of this renewal or registration, in wei."
        }
      },
      "renounceOwnership()": {
        "details": "Leaves the contract without owner. It will not be possible to call `onlyOwner` functions anymore. Can only be called by the current owner. NOTE: Renouncing ownership will leave the contract without an owner, thereby removing any functionality that is only available to the owner."
      },
      "setOracle(address)": {
        "details": "Sets the price oracle address",
        "params": {
          "_usdOracle": "The address of the price oracle to use."
        }
      },
      "setPrices(uint256[])": {
        "details": "Sets rent prices.",
        "params": {
          "_rentPrices": "The price array. Each element corresponds to a specific                    name length; names longer than the length of the array                    default to the price of the last element. Values are                    in base price units, equal to one attodollar (1e-18                    dollar) each."
        }
      },
      "transferOwnership(address)": {
        "details": "Transfers ownership of the contract to a new account (`newOwner`). Can only be called by the current owner."
      }
    },
    "version": 1
  },
  "userdoc": {
    "kind": "user",
    "methods": {},
    "version": 1
  },
  "storageLayout": {
    "storage": [
      {
        "astId": 545,
        "contract": "contracts/ethregistrar/StablePriceOracle.sol:StablePriceOracle",
        "label": "_owner",
        "offset": 0,
        "slot": "0",
        "type": "t_address"
      },
      {
        "astId": 12123,
        "contract": "contracts/ethregistrar/StablePriceOracle.sol:StablePriceOracle",
        "label": "rentPrices",
        "offset": 0,
        "slot": "1",
        "type": "t_array(t_uint256)dyn_storage"
      },
      {
        "astId": 12126,
        "contract": "contracts/ethregistrar/StablePriceOracle.sol:StablePriceOracle",
        "label": "usdOracle",
        "offset": 0,
        "slot": "2",
        "type": "t_contract(AggregatorInterface)12112"
      }
    ],
    "types": {
      "t_address": {
        "encoding": "inplace",
        "label": "address",
        "numberOfBytes": "20"
      },
      "t_array(t_uint256)dyn_storage": {
        "base": "t_uint256",
        "encoding": "dynamic_array",
        "label": "uint256[]",
        "numberOfBytes": "32"
      },
      "t_contract(AggregatorInterface)12112": {
        "encoding": "inplace",
        "label": "contract AggregatorInterface",
        "numberOfBytes": "20"
      },
      "t_uint256": {
        "encoding": "inplace",
        "label": "uint256",
        "numberOfBytes": "32"
      }
    }
  }
}