{
  "address": "0xb5691eA166Ae43Ee92bfcD1886330Fbd6c23112c",
  "abi": [
    {
      "inputs": [
        {
          "internalType": "bytes",
          "name": "",
          "type": "bytes"
        },
        {
          "internalType": "bytes",
          "name": "",
          "type": "bytes"
        }
      ],
      "name": "verify",
      "outputs": [
        {
          "internalType": "bool",
          "name": "",
          "type": "bool"
        }
      ],
      "stateMutability": "pure",
      "type": "function"
    }
  ],
  "transactionHash": "0xe64c50f66ff105e5ee189d43f558326a17997fd3c8c31b01342a0632d05f166e",
  "args": [],
  "solcInputHash": "0bf085dfbd370792afe472840558cdc6",
  "bytecode": "0x608060405234801561001057600080fd5b50610147806100206000396000f3fe608060405234801561001057600080fd5b506004361061002b5760003560e01c8063f7e83aee14610030575b600080fd5b61004861003e3660046100a5565b6001949350505050565b604051901515815260200160405180910390f35b60008083601f84011261006e57600080fd5b50813567ffffffffffffffff81111561008657600080fd5b60208301915083602082850101111561009e57600080fd5b9250929050565b600080600080604085870312156100bb57600080fd5b843567ffffffffffffffff808211156100d357600080fd5b6100df8883890161005c565b909650945060208701359150808211156100f857600080fd5b506101058782880161005c565b9598949750955050505056fea2646970667358221220be9f1f3a906a096ea8bc1a43337fc84cb64ae7e3acea42e07d822c8c71cb637964736f6c634300080d0033",
  "devdoc": {
    "details": "Implements a dummy DNSSEC digest that approves all hashes, for testing.",
    "kind": "dev",
    "methods": {},
    "version": 1
  },
  "userdoc": {
    "kind": "user",
    "methods": {},
    "version": 1
  },
  "storageLayout": {
    "storage": [],
    "types": null
  }
}