{
  "address": "0xcB4336201C8Ee8cF91b2479934a3fd66bB1EfAf7",
  "abi": [
    {
      "inputs": [
        {
          "internalType": "contract AggregatorInterface",
          "name": "_usdOracle",
          "type": "address"
        },
        {
          "internalType": "uint256[]",
          "name": "_rentPrices",
          "type": "uint256[]"
        }
      ],
      "stateMutability": "nonpayable",
      "type": "constructor"
    },
    {
      "anonymous": false,
      "inputs": [
        {
          "indexed": false,
          "internalType": "uint256[]",
          "name": "prices",
          "type": "uint256[]"
        }
      ],
      "name": "RentPriceChanged",
      "type": "event"
    },
    {
      "inputs": [
        {
          "internalType": "string",
          "name": "name",
          "type": "string"
        },
        {
          "internalType": "uint256",
          "name": "expires",
          "type": "uint256"
        },
        {
          "internalType": "uint256",
          "name": "duration",
          "type": "uint256"
        }
      ],
      "name": "premium",
      "outputs": [
        {
          "internalType": "uint256",
          "name": "",
          "type": "uint256"
        }
      ],
      "stateMutability": "view",
      "type": "function"
    },
    {
      "inputs": [
        {
          "internalType": "string",
          "name": "name",
          "type": "string"
        },
        {
          "internalType": "uint256",
          "name": "expires",
          "type": "uint256"
        },
        {
          "internalType": "uint256",
          "name": "duration",
          "type": "uint256"
        }
      ],
      "name": "price",
      "outputs": [
        {
          "components": [
            {
              "internalType": "uint256",
              "name": "base",
              "type": "uint256"
            },
            {
              "internalType": "uint256",
              "name": "premium",
              "type": "uint256"
            }
          ],
          "internalType": "struct IPriceOracle.Price",
          "name": "",
          "type": "tuple"
        }
      ],
      "stateMutability": "view",
      "type": "function"
    },
    {
      "inputs": [],
      "name": "price1Letter",
      "outputs": [
        {
          "internalType": "uint256",
          "name": "",
          "type": "uint256"
        }
      ],
      "stateMutability": "view",
      "type": "function"
    },
    {
      "inputs": [],
      "name": "price2Letter",
      "outputs": [
        {
          "internalType": "uint256",
          "name": "",
          "type": "uint256"
        }
      ],
      "stateMutability": "view",
      "type": "function"
    },
    {
      "inputs": [],
      "name": "price3Letter",
      "outputs": [
        {
          "internalType": "uint256",
          "name": "",
          "type": "uint256"
        }
      ],
      "stateMutability": "view",
      "type": "function"
    },
    {
      "inputs": [],
      "name": "price4Letter",
      "outputs": [
        {
          "internalType": "uint256",
          "name": "",
          "type": "uint256"
        }
      ],
      "stateMutability": "view",
      "type": "function"
    },
    {
      "inputs": [],
      "name": "price5Letter",
      "outputs": [
        {
          "internalType": "uint256",
          "name": "",
          "type": "uint256"
        }
      ],
      "stateMutability": "view",
      "type": "function"
    },
    {
      "inputs": [
        {
          "internalType": "bytes4",
          "name": "interfaceID",
          "type": "bytes4"
        }
      ],
      "name": "supportsInterface",
      "outputs": [
        {
          "internalType": "bool",
          "name": "",
          "type": "bool"
        }
      ],
      "stateMutability": "view",
      "type": "function"
    },
    {
      "inputs": [],
      "name": "usdOracle",
      "outputs": [
        {
          "internalType": "contract AggregatorInterface",
          "name": "",
          "type": "address"
        }
      ],
      "stateMutability": "view",
      "type": "function"
    }
  ],
  "transactionHash": "0xe7c4dd3fbbfb06e79a03abcc8ac07837500eaf621ac43b3c50859d443baa537f",
  "args": [
    "0x2DE806f254cf30174e4100C0F54cBE6dE49D0503",
    [
      1,
      5,
      2,
      3,
      2
    ]
  ],
  "solcInputHash": "0bf085dfbd370792afe472840558cdc6",
  "bytecode": "0x6101406040523480156200001257600080fd5b5060405162000c6f38038062000c6f83398101604081905262000035916200011b565b6001600160a01b038216610120528051819060009062000059576200005962000208565b602002602001015160808181525050806001815181106200007e576200007e62000208565b602002602001015160a0818152505080600281518110620000a357620000a362000208565b602002602001015160c0818152505080600381518110620000c857620000c862000208565b602002602001015160e0818152505080600481518110620000ed57620000ed62000208565b6020026020010151610100818152505050506200021e565b634e487b7160e01b600052604160045260246000fd5b600080604083850312156200012f57600080fd5b82516001600160a01b03811681146200014757600080fd5b602084810151919350906001600160401b03808211156200016757600080fd5b818601915086601f8301126200017c57600080fd5b81518181111562000191576200019162000105565b8060051b604051601f19603f83011681018181108582111715620001b957620001b962000105565b604052918252848201925083810185019189831115620001d857600080fd5b938501935b82851015620001f857845184529385019392850192620001dd565b8096505050505050509250929050565b634e487b7160e01b600052603260045260246000fd5b60805160a05160c05160e05161010051610120516109d8620002976000396000818161019901526106ea01526000818161013801526103f501526000818161020c01526103cb01526000818161015f01526103990152600081816101e5015261036701526000818160d5015261032e01526109d86000f3fe608060405234801561001057600080fd5b50600436106100a35760003560e01c8063a200e15311610076578063c8a4271f1161005b578063c8a4271f14610194578063cd5d2c74146101e0578063d820ed421461020757600080fd5b8063a200e1531461015a578063a34e35961461018157600080fd5b806301ffc9a7146100a85780632c0fd74c146100d057806350e9a7151461010557806359b6b86c14610133575b600080fd5b6100bb6100b63660046107a2565b61022e565b60405190151581526020015b60405180910390f35b6100f77f000000000000000000000000000000000000000000000000000000000000000081565b6040519081526020016100c7565b6101186101133660046107e4565b6102c7565b604080518251815260209283015192810192909252016100c7565b6100f77f000000000000000000000000000000000000000000000000000000000000000081565b6100f77f000000000000000000000000000000000000000000000000000000000000000081565b6100f761018f3660046107e4565b61048d565b6101bb7f000000000000000000000000000000000000000000000000000000000000000081565b60405173ffffffffffffffffffffffffffffffffffffffff90911681526020016100c7565b6100f77f000000000000000000000000000000000000000000000000000000000000000081565b6100f77f000000000000000000000000000000000000000000000000000000000000000081565b60007fffffffff0000000000000000000000000000000000000000000000000000000082167f01ffc9a70000000000000000000000000000000000000000000000000000000014806102c157507fffffffff0000000000000000000000000000000000000000000000000000000082167f50e9a71500000000000000000000000000000000000000000000000000000000145b92915050565b6040805180820190915260008082526020820152600061031c86868080601f0160208091040260200160405190810160405280939291908181526020018383808284376000920191909152506104de92505050565b905060008160010361035957610352847f0000000000000000000000000000000000000000000000000000000000000000610892565b905061041c565b8160020361038b57610352847f0000000000000000000000000000000000000000000000000000000000000000610892565b816003036103bd57610352847f0000000000000000000000000000000000000000000000000000000000000000610892565b816004036103ef57610352847f0000000000000000000000000000000000000000000000000000000000000000610892565b610419847f0000000000000000000000000000000000000000000000000000000000000000610892565b90505b6040518060400160405280610430836106e5565b815260200161048061047b8a8a8080601f0160208091040260200160405190810160405280939291908181526020018383808284376000920191909152508c92508b91506107999050565b6106e5565b9052979650505050505050565b60006104d561047b86868080601f0160208091040260200160405190810160405280939291908181526020018383808284376000920191909152508892508791506107999050565b95945050505050565b8051600090819081905b808210156106dc576000858381518110610504576105046108cf565b01602001517fff000000000000000000000000000000000000000000000000000000000000001690507f8000000000000000000000000000000000000000000000000000000000000000811015610567576105606001846108fe565b92506106c9565b7fe0000000000000000000000000000000000000000000000000000000000000007fff00000000000000000000000000000000000000000000000000000000000000821610156105bc576105606002846108fe565b7ff0000000000000000000000000000000000000000000000000000000000000007fff0000000000000000000000000000000000000000000000000000000000000082161015610611576105606003846108fe565b7ff8000000000000000000000000000000000000000000000000000000000000007fff0000000000000000000000000000000000000000000000000000000000000082161015610666576105606004846108fe565b7ffc000000000000000000000000000000000000000000000000000000000000007fff00000000000000000000000000000000000000000000000000000000000000821610156106bb576105606005846108fe565b6106c66006846108fe565b92505b50826106d481610916565b9350506104e8565b50909392505050565b6000807f000000000000000000000000000000000000000000000000000000000000000073ffffffffffffffffffffffffffffffffffffffff166350d25bcd6040518163ffffffff1660e01b8152600401602060405180830381865afa158015610753573d6000803e3d6000fd5b505050506040513d601f19601f82011682018060405250810190610777919061094e565b905080610788846305f5e100610892565b6107929190610967565b9392505050565b60009392505050565b6000602082840312156107b457600080fd5b81357fffffffff000000000000000000000000000000000000000000000000000000008116811461079257600080fd5b600080600080606085870312156107fa57600080fd5b843567ffffffffffffffff8082111561081257600080fd5b818701915087601f83011261082657600080fd5b81358181111561083557600080fd5b88602082850101111561084757600080fd5b6020928301999098509187013596604001359550909350505050565b7f4e487b7100000000000000000000000000000000000000000000000000000000600052601160045260246000fd5b6000817fffffffffffffffffffffffffffffffffffffffffffffffffffffffffffffffff04831182151516156108ca576108ca610863565b500290565b7f4e487b7100000000000000000000000000000000000000000000000000000000600052603260045260246000fd5b6000821982111561091157610911610863565b500190565b60007fffffffffffffffffffffffffffffffffffffffffffffffffffffffffffffffff820361094757610947610863565b5060010190565b60006020828403121561096057600080fd5b5051919050565b60008261099d577f4e487b7100000000000000000000000000000000000000000000000000000000600052601260045260246000fd5b50049056fea2646970667358221220b20cacf40afd626c33c1a900ffe537d94e922182a5313fa3856f27caea8b276d64736f6c634300080d0033",
  "devdoc": {
    "kind": "dev",
    "methods": {
      "premium(string,uint256,uint256)": {
        "details": "Returns the pricing premium in wei."
      },
      "price(string,uint256,uint256)": {
        "details": "Returns the price to register or renew a name.",
        "params": {
          "duration": "How long the name is being registered or extended for, in seconds.",
          "expires": "When the name presently expires (0 if this is a new registration).",
          "name": "The name being registered or renewed."
        },
        "returns": {
          "_0": "base premium tuple of base price + premium price"
        }
      }
    },
    "version": 1
  },
  "userdoc": {
    "kind": "user",
    "methods": {},
    "version": 1
  },
  "storageLayout": {
    "storage": [],
    "types": null
  }
}