{
  "address": "0xb11d9E62765a4B5c534De51f5ee57cfD71DB372B",
  "abi": [
    {
      "inputs": [
        {
          "internalType": "bytes",
          "name": "_anchors",
          "type": "bytes"
        }
      ],
      "stateMutability": "nonpayable",
      "type": "constructor"
    },
    {
      "anonymous": false,
      "inputs": [
        {
          "indexed": false,
          "internalType": "uint8",
          "name": "id",
          "type": "uint8"
        },
        {
          "indexed": false,
          "internalType": "address",
          "name": "addr",
          "type": "address"
        }
      ],
      "name": "AlgorithmUpdated",
      "type": "event"
    },
    {
      "anonymous": false,
      "inputs": [
        {
          "indexed": false,
          "internalType": "uint8",
          "name": "id",
          "type": "uint8"
        },
        {
          "indexed": false,
          "internalType": "address",
          "name": "addr",
          "type": "address"
        }
      ],
      "name": "DigestUpdated",
      "type": "event"
    },
    {
      "anonymous": false,
      "inputs": [],
      "name": "Marker",
      "type": "event"
    },
    {
      "anonymous": false,
      "inputs": [
        {
          "indexed": false,
          "internalType": "uint8",
          "name": "id",
          "type": "uint8"
        },
        {
          "indexed": false,
          "internalType": "address",
          "name": "addr",
          "type": "address"
        }
      ],
      "name": "NSEC3DigestUpdated",
      "type": "event"
    },
    {
      "anonymous": false,
      "inputs": [
        {
          "indexed": false,
          "internalType": "bytes",
          "name": "name",
          "type": "bytes"
        },
        {
          "indexed": false,
          "internalType": "bytes",
          "name": "rrset",
          "type": "bytes"
        }
      ],
      "name": "RRSetUpdated",
      "type": "event"
    },
    {
      "anonymous": false,
      "inputs": [
        {
          "indexed": false,
          "internalType": "uint256",
          "name": "t",
          "type": "uint256"
        }
      ],
      "name": "Test",
      "type": "event"
    },
    {
      "inputs": [
        {
          "internalType": "uint8",
          "name": "",
          "type": "uint8"
        }
      ],
      "name": "algorithms",
      "outputs": [
        {
          "internalType": "contract Algorithm",
          "name": "",
          "type": "address"
        }
      ],
      "stateMutability": "view",
      "type": "function"
    },
    {
      "inputs": [],
      "name": "anchors",
      "outputs": [
        {
          "internalType": "bytes",
          "name": "",
          "type": "bytes"
        }
      ],
      "stateMutability": "view",
      "type": "function"
    },
    {
      "inputs": [
        {
          "internalType": "uint16",
          "name": "deleteType",
          "type": "uint16"
        },
        {
          "internalType": "bytes",
          "name": "deleteName",
          "type": "bytes"
        },
        {
          "components": [
            {
              "internalType": "bytes",
              "name": "rrset",
              "type": "bytes"
            },
            {
              "internalType": "bytes",
              "name": "sig",
              "type": "bytes"
            }
          ],
          "internalType": "struct DNSSEC.RRSetWithSignature",
          "name": "nsec",
          "type": "tuple"
        },
        {
          "internalType": "bytes",
          "name": "proof",
          "type": "bytes"
        }
      ],
      "name": "deleteRRSet",
      "outputs": [],
      "stateMutability": "nonpayable",
      "type": "function"
    },
    {
      "inputs": [
        {
          "internalType": "uint16",
          "name": "deleteType",
          "type": "uint16"
        },
        {
          "internalType": "bytes",
          "name": "deleteName",
          "type": "bytes"
        },
        {
          "components": [
            {
              "internalType": "bytes",
              "name": "rrset",
              "type": "bytes"
            },
            {
              "internalType": "bytes",
              "name": "sig",
              "type": "bytes"
            }
          ],
          "internalType": "struct DNSSEC.RRSetWithSignature",
          "name": "closestEncloser",
          "type": "tuple"
        },
        {
          "components": [
            {
              "internalType": "bytes",
              "name": "rrset",
              "type": "bytes"
            },
            {
              "internalType": "bytes",
              "name": "sig",
              "type": "bytes"
            }
          ],
          "internalType": "struct DNSSEC.RRSetWithSignature",
          "name": "nextClosest",
          "type": "tuple"
        },
        {
          "internalType": "bytes",
          "name": "dnskey",
          "type": "bytes"
        }
      ],
      "name": "deleteRRSetNSEC3",
      "outputs": [],
      "stateMutability": "nonpayable",
      "type": "function"
    },
    {
      "inputs": [
        {
          "internalType": "uint8",
          "name": "",
          "type": "uint8"
        }
      ],
      "name": "digests",
      "outputs": [
        {
          "internalType": "contract Digest",
          "name": "",
          "type": "address"
        }
      ],
      "stateMutability": "view",
      "type": "function"
    },
    {
      "inputs": [
        {
          "internalType": "uint8",
          "name": "",
          "type": "uint8"
        }
      ],
      "name": "nsec3Digests",
      "outputs": [
        {
          "internalType": "contract NSEC3Digest",
          "name": "",
          "type": "address"
        }
      ],
      "stateMutability": "view",
      "type": "function"
    },
    {
      "inputs": [],
      "name": "owner",
      "outputs": [
        {
          "internalType": "address",
          "name": "",
          "type": "address"
        }
      ],
      "stateMutability": "view",
      "type": "function"
    },
    {
      "inputs": [
        {
          "internalType": "uint16",
          "name": "dnstype",
          "type": "uint16"
        },
        {
          "internalType": "bytes",
          "name": "name",
          "type": "bytes"
        }
      ],
      "name": "rrdata",
      "outputs": [
        {
          "internalType": "uint32",
          "name": "",
          "type": "uint32"
        },
        {
          "internalType": "uint32",
          "name": "",
          "type": "uint32"
        },
        {
          "internalType": "bytes20",
          "name": "",
          "type": "bytes20"
        }
      ],
      "stateMutability": "view",
      "type": "function"
    },
    {
      "inputs": [
        {
          "internalType": "uint8",
          "name": "id",
          "type": "uint8"
        },
        {
          "internalType": "contract Algorithm",
          "name": "algo",
          "type": "address"
        }
      ],
      "name": "setAlgorithm",
      "outputs": [],
      "stateMutability": "nonpayable",
      "type": "function"
    },
    {
      "inputs": [
        {
          "internalType": "uint8",
          "name": "id",
          "type": "uint8"
        },
        {
          "internalType": "contract Digest",
          "name": "digest",
          "type": "address"
        }
      ],
      "name": "setDigest",
      "outputs": [],
      "stateMutability": "nonpayable",
      "type": "function"
    },
    {
      "inputs": [
        {
          "internalType": "uint8",
          "name": "id",
          "type": "uint8"
        },
        {
          "internalType": "contract NSEC3Digest",
          "name": "digest",
          "type": "address"
        }
      ],
      "name": "setNSEC3Digest",
      "outputs": [],
      "stateMutability": "nonpayable",
      "type": "function"
    },
    {
      "inputs": [
        {
          "internalType": "address",
          "name": "newOwner",
          "type": "address"
        }
      ],
      "name": "setOwner",
      "outputs": [],
      "stateMutability": "nonpayable",
      "type": "function"
    },
    {
      "inputs": [
        {
          "components": [
            {
              "internalType": "bytes",
              "name": "rrset",
              "type": "bytes"
            },
            {
              "internalType": "bytes",
              "name": "sig",
              "type": "bytes"
            }
          ],
          "internalType": "struct DNSSEC.RRSetWithSignature",
          "name": "input",
          "type": "tuple"
        },
        {
          "internalType": "bytes",
          "name": "proof",
          "type": "bytes"
        }
      ],
      "name": "submitRRSet",
      "outputs": [
        {
          "internalType": "bytes",
          "name": "",
          "type": "bytes"
        }
      ],
      "stateMutability": "nonpayable",
      "type": "function"
    },
    {
      "inputs": [
        {
          "components": [
            {
              "internalType": "bytes",
              "name": "rrset",
              "type": "bytes"
            },
            {
              "internalType": "bytes",
              "name": "sig",
              "type": "bytes"
            }
          ],
          "internalType": "struct DNSSEC.RRSetWithSignature[]",
          "name": "input",
          "type": "tuple[]"
        },
        {
          "internalType": "bytes",
          "name": "_proof",
          "type": "bytes"
        }
      ],
      "name": "submitRRSets",
      "outputs": [
        {
          "internalType": "bytes",
          "name": "",
          "type": "bytes"
        }
      ],
      "stateMutability": "nonpayable",
      "type": "function"
    }
  ],
  "transactionHash": "0xe405236270c486e48be5aafcba3bee6773faf487c6f72bb21a8ae1bbfd245d6a",
  "args": [
    "0x00002b000100000e1000244a5c080249aac11d7b6f6446702e54a1607371607a1a41855200fd2ce1cdde32f24e8fb500002b000100000e1000244f660802e06d44b80b8f1d39a95c0b0d7c65d08458e880409bbc683457104237c7f8ec8d"
  ],
  "solcInputHash": "94e956c652e5891a9bad5efc6519a27d",
  "bytecode": "0x60806040523480156200001157600080fd5b50604051620039b3380380620039b383398101604081905262000034916200023c565b600180546001600160a01b0319163317905580516200005b90600090602084019062000180565b5060408051606081018252600080825263e090bba060208301528251919283019162000088919062000354565b60408051918290039091206001600160601b031916909152602b60009081527fc92a43746f20f69898978a3075767b860ba247ac0639d1831bf8c942c5db2389602090815283517f95c6356c1b7a542b884d2484ef785c9c7224e77e1016c20007bddc15c23b452f8054928601519585015160601c6801000000000000000002600160401b600160e01b031963ffffffff978816640100000000026001600160401b03199095169790931696909617929092171693909317909255517f55ced933cdd5a34dd03eb5d4bef19ec6ebb251dcd7a988eee0c1b9a13baaa88b916200017191620003ce565b60405180910390a15062000470565b8280546200018e9062000318565b90600052602060002090601f016020900481019282620001b25760008555620001fd565b82601f10620001cd57805160ff1916838001178555620001fd565b82800160010185558215620001fd579182015b82811115620001fd578251825591602001919060010190620001e0565b506200020b9291506200020f565b5090565b5b808211156200020b576000815560010162000210565b634e487b7160e01b600052604160045260246000fd5b600060208083850312156200025057600080fd5b82516001600160401b03808211156200026857600080fd5b818501915085601f8301126200027d57600080fd5b81518181111562000292576200029262000226565b604051601f8201601f19908116603f01168101908382118183101715620002bd57620002bd62000226565b816040528281528886848701011115620002d657600080fd5b600093505b82841015620002fa5784840186015181850187015292850192620002db565b828411156200030c5760008684830101525b98975050505050505050565b600181811c908216806200032d57607f821691505b6020821081036200034e57634e487b7160e01b600052602260045260246000fd5b50919050565b6000808354620003648162000318565b600182811680156200037f57600181146200039157620003c2565b60ff19841687528287019450620003c2565b8760005260208060002060005b85811015620003b95781548a8201529084019082016200039e565b50505082870194505b50929695505050505050565b604081526000600180604084015260006060840152602060808185015260008554620003fa8162000318565b80608088015260a0858316600081146200041d5760018114620004325762000462565b60ff1984168983015260c08901945062000462565b896000528560002060005b848110156200045a5781548b82018501529088019087016200043d565b8a0183019550505b509298975050505050505050565b61353380620004806000396000f3fe608060405234801561001057600080fd5b50600436106100ea5760003560e01c806373cc48a61161008c57806398d35f201161006657806398d35f201461025b578063bd7ed31a14610263578063c327deef14610299578063d7b82ebe146102cf57600080fd5b806373cc48a6146101cd5780638438dc04146102285780638da5cb5b1461023b57600080fd5b806313af4035116100c857806313af40351461017457806328e7677d146101875780632c095cbb1461019a578063435cc162146101ad57600080fd5b8063020ed8d3146100ef578063087991bc146101045780630b1a249514610161575b600080fd5b6101026100fd366004612a3b565b6102e2565b005b610117610112366004612acd565b610396565b6040805163ffffffff94851681529390921660208401527fffffffffffffffffffffffffffffffffffffffff00000000000000000000000016908201526060015b60405180910390f35b61010261016f366004612cb6565b61040b565b610102610182366004612d74565b6105fa565b610102610195366004612a3b565b610665565b6101026101a8366004612d91565b610711565b6101c06101bb366004612e2a565b61084f565b6040516101589190612f73565b6102036101db366004612f86565b60046020526000908152604090205473ffffffffffffffffffffffffffffffffffffffff1681565b60405173ffffffffffffffffffffffffffffffffffffffff9091168152602001610158565b610102610236366004612a3b565b6108d7565b6001546102039073ffffffffffffffffffffffffffffffffffffffff1681565b6101c0610983565b610203610271366004612f86565b60056020526000908152604090205473ffffffffffffffffffffffffffffffffffffffff1681565b6102036102a7366004612f86565b60036020526000908152604090205473ffffffffffffffffffffffffffffffffffffffff1681565b6101c06102dd366004612fa1565b610a11565b60015473ffffffffffffffffffffffffffffffffffffffff16331461030657600080fd5b60ff821660008181526003602090815260409182902080547fffffffffffffffffffffffff00000000000000000000000000000000000000001673ffffffffffffffffffffffffffffffffffffffff86169081179091558251938452908301527ff73c3c226af96b7f1ba666a21b3ceaf2be3ee6a365e3178fd9cd1eaae0075aa891015b60405180910390a15050565b6000806000806002600087876040516103b0929190613005565b60408051918290039091208252602080830193909352908101600090812061ffff8b16825290925290205463ffffffff8082169550640100000000820416935068010000000000000000900460601b91505093509350939050565b8351602080860191909120600090815260028252604080822061ffff891683529092529081205463ffffffff16906104438584610a26565b9050610450818784610b17565b604080516101408101825260008082526020820181905291810182905260608082018390526080820183905260a0820183905260c082019290925260e081018290526101008101829052610120810191909152845151156104c2576104b58585610a26565b90506104c2818885610b17565b60006104cd83610b5d565b602081015190915060fe16156104e257600080fd5b6104ed816027610bbc565b1580156105125750610500816002610bbc565b15806105125750610512816006610bbc565b61051b57600080fd5b61052c898985610120015184610bce565b156105805787516020808a0191909120600090815260028252604080822061ffff8d1683529092522080547fffffffff000000000000000000000000000000000000000000000000000000001690556105ef565b61059f888461012001518385610120015161059a87610b5d565b610bfe565b156100ea5787516020808a0191909120600090815260028252604080822061ffff8d1683529092522080547fffffffff000000000000000000000000000000000000000000000000000000001690555b505050505050505050565b60015473ffffffffffffffffffffffffffffffffffffffff16331461061e57600080fd5b600180547fffffffffffffffffffffffff00000000000000000000000000000000000000001673ffffffffffffffffffffffffffffffffffffffff92909216919091179055565b60015473ffffffffffffffffffffffffffffffffffffffff16331461068957600080fd5b60ff821660008181526004602090815260409182902080547fffffffffffffffffffffffff00000000000000000000000000000000000000001673ffffffffffffffffffffffffffffffffffffffff86169081179091558251938452908301527f2fcc274c3b72dd483ab201bfa87295e3817e8b9b10693219873b722ca1af00c7910161038a565b604080516101408101825260008082526020820181905291810182905260608082018390526080820183905260a0820183905260c082019290925260e08101829052610100810182905261012081019190915261076e8383610a26565b805190915061ffff16602f1461078357600080fd5b60a08101518451602080870191909120600090815260028252604080822061ffff8a16835290925220546107bd919063ffffffff16610d19565b6107c657600080fd5b60006107d182610d32565b905080515160208201511015610843576107f2818361012001518789610d90565b50508251602080850191909120600090815260028252604080822061ffff881683529092522080547fffffffff00000000000000000000000000000000000000000000000000000000169055610849565b50600080fd5b50505050565b6060600083838080601f01602080910402602001604051908101604052809392919081815260200183838082843760009201829052509394505050505b85518110156108cc576108b88682815181106108aa576108aa613015565b602002602001015183610f3e565b9150806108c481613073565b91505061088c565b5090505b9392505050565b60015473ffffffffffffffffffffffffffffffffffffffff1633146108fb57600080fd5b60ff821660008181526005602090815260409182902080547fffffffffffffffffffffffff00000000000000000000000000000000000000001673ffffffffffffffffffffffffffffffffffffffff86169081179091558251938452908301527fc7eec866a7a1386188cc3ca20ffea75b71bd3e90a60b6791b1d3f0971145118d910161038a565b600080546109909061308d565b80601f01602080910402602001604051908101604052809291908181526020018280546109bc9061308d565b8015610a095780601f106109de57610100808354040283529160200191610a09565b820191906000526020600020905b8154815290600101906020018083116109ec57829003601f168201915b505050505081565b6060610a1d8383610f3e565b90505b92915050565b604080516101408101825260008082526020820181905291810182905260608082018390526080820183905260a0820183905260c082019290925260e0810182905261010081018290526101208101919091528251610a8490611166565b9050610a948160e00151836112a8565b610a9d57600080fd5b6000610aad82836000015161132d565b604083015190915060ff16610ac38260006113db565b14610acd57600080fd5b61012082018190526080820151610ae49042610d19565b610aed57600080fd5b610afb428360a00151610d19565b610b0457600080fd5b610b1081838686611438565b5092915050565b610b258360a0015182610d19565b610b2e57600080fd5b825161ffff16603214610b4057600080fd5b610b4f83610120015183611541565b610b5857600080fd5b505050565b6040805160c08101825260008082526020820181905291810182905260608082018190526080820183905260a082015290610b9783610d32565b60a081015160c08201519192506108d091610bb39082906130da565b835191906115af565b6000610a1d8360a001516000846116f6565b6000610bdb82848661180b565b15610bf257610bea8286610bbc565b159050610bf6565b5060005b949350505050565b602081015160009060fe1615610c1357600080fd5b6000610c1e86611832565b90506000610c2b85611832565b9050600080610c3a8a8261184e565b610c459060016130f1565b60ff1690505b8951811015610d075783610c7789610c7284858f51610c6a91906130da565b8f9190611872565b6118f4565b03610cdb576000610c9387610c7285868f51610c6a91906130da565b90508660800151841015610cbf578381118015610cb35750866080015181105b95505050505050610d10565b83811180610cb357508660800151811095505050505050610d10565b905080610ce88a8261184e565b610cf39060016130f1565b610d009060ff1682613116565b9050610c4b565b50600093505050505b95945050505050565b600080610d26838561312e565b60030b12159392505050565b610d806040518060e001604052806060815260200160008152602001600061ffff168152602001600061ffff168152602001600063ffffffff16815260200160008152602001600081525090565b610a2082610100015160006119a6565b60a08401518451600090610da49083611a07565b905060008660a001518760c00151610dbc91906130da565b9050818111610dca57600080fd5b6000610dd68688611a61565b905080600003610e0557610df6610ded8486613116565b895190876116f6565b15610e0057600080fd5b610e4c565b8751600090610e15908686611872565b905060008213610e2457600080fd5b6000610e308983611a61565b12156105ef576000610e428883611a61565b126105ef57600080fd5b5050505050505050565b60c08101516020820181905281515111610e6d5750565b6000610e8182600001518360200151611a07565b8260200151610e909190613116565b8251909150610e9f9082611bba565b61ffff166040830152610eb3600282613116565b8251909150610ec29082611bba565b61ffff166060830152610ed6600282613116565b8251909150610ee59082611be2565b63ffffffff166080830152610efb600482613116565b8251909150600090610f0d9083611bba565b61ffff169050610f1e600283613116565b60a084018190529150610f318183613116565b60c0909301929092525050565b604080516101408101825260008082526020820181905291810182905260608181018390526080820183905260a0820183905260c082019290925260e0810182905261010081018290526101208101829052610f9a8484610a26565b61012081015180516020918201206000908152600282526040808220845161ffff1683529092522080549192509068010000000000000000900460601b7fffffffffffffffffffffffffffffffffffffffff000000000000000000000000161561101e5760a08201518154611015919063ffffffff16610d19565b61101e57600080fd5b604080516060808201835260a085015163ffffffff9081168352608086015181166020808501918252610100880180518051908301207fffffffffffffffffffffffffffffffffffffffff000000000000000000000000168688019081526101208a0180518051908501206000908152600285528981208c5161ffff16825290945292889020965187549451915190961c68010000000000000000027fffffffff0000000000000000000000000000000000000000ffffffffffffffff918616640100000000027fffffffffffffffffffffffffffffffffffffffffffffffff0000000000000000909516969095169590951792909217939093169190911790925551905191517f55ced933cdd5a34dd03eb5d4bef19ec6ebb251dcd7a988eee0c1b9a13baaa88b926111519291613193565b60405180910390a15061010001519392505050565b604080516101408101825260008082526020820181905291810182905260608082018390526080820183905260a0820183905260c0820183905260e082018190526101008201819052610120820152906111c1908390611bba565b61ffff1681526111d282600261184e565b60ff1660208201526111e582600361184e565b60ff1660408201526111f8826004611be2565b63ffffffff9081166060830152611214908390600890611be216565b63ffffffff9081166080830152611230908390600c90611be216565b63ffffffff90811660a083015261124c908390601090611bba16565b61ffff1660c0820152611260826012611c0c565b60e082018190525161129d90611277906012613116565b8260e00151516012855161128b91906130da565b61129591906130da565b849190611872565b610100820152919050565b6000806112bf6112b88483611a07565b8490611bba565b8351602080860191909120865187830120600090815260028352604080822061ffff9095168252939092529190205468010000000000000000900460601b7fffffffffffffffffffffffffffffffffffffffff00000000000000000000000090811691161491505092915050565b6060600061133a84610d32565b90505b80515160208201511015610b1057606081015161ffff1660011461136057600080fd5b81516000036113795761137281611c27565b91506113b5565b6020810151815161138991611a07565b82511461139557600080fd5b8051602082015183516113ac928592600092611c48565b6113b557600080fd5b8261ffff16816040015161ffff16146113cd57600080fd5b6113d681610e56565b61133d565b6000805b835183106113ef576113ef6131b8565b60006113fb858561184e565b60ff16905061140b816001613116565b6114159085613116565b9350806000036114255750610a1d565b611430600183613116565b9150506113df565b83518360e0015151111561144b57600080fd5b6114706000858560e0015151875161146391906130da565b60e0870151929190611c6b565b61147957600080fd5b600061148582826119a6565b9050602b61ffff16816040015161ffff16036114b4576114a6848483611ca0565b6114af57600080fd5b61153a565b603061ffff16816040015161ffff16036114d3576114a6848483611d39565b6040517f08c379a000000000000000000000000000000000000000000000000000000000815260206004820152601460248201527f4e6f2076616c69642070726f6f6620666f756e6400000000000000000000000060448201526064015b60405180910390fd5b5050505050565b60008061154e848261184e565b6115599060016130f1565b60ff16905060005b8351811015610bf25761157684828785611c6b565b1561158657600192505050610a20565b611590848261184e565b61159b9060016130f1565b6115a89060ff1682613116565b9050611561565b6040805160c08101825260008082526020820181905291810182905260608082018190526080820183905260a0820152906115ea8385613116565b90506116016115fa600086613116565b869061184e565b60ff1682526116146115fa600186613116565b60ff16602083015261163161162a600286613116565b8690611bba565b61ffff166040830152600061165161164a600487613116565b879061184e565b905061165e600586613116565b945061166e868660ff8416611872565b606084015261168060ff821686613116565b9450600061168e878761184e565b905060208160ff1611156116a157600080fd5b6116ac600187613116565b95506116bc878760ff8416611de1565b60808501526116ce60ff821687613116565b95506116e6866116de81866130da565b899190611872565b60a0850152509195945050505050565b600060ff600883811c821691839161170f918616613216565b90506000611721600780871690613237565b600160ff919091161b9050855b87518110156117fd576000611743898361184e565b9050600061175c611755846001613116565b8b9061184e565b90508160ff168660ff16101561177b57600096505050505050506108d0565b8160ff168660ff16036117dc578460ff168160ff16116117a457600096505050505050506108d0565b836117c76117b560ff881686613116565b6117c0906002613116565b8c9061184e565b1660ff166000141596505050505050506108d0565b6117e78160026130f1565b6117f49060ff1684613116565b9250505061172e565b506000979650505050505050565b60008061181885846118f4565b9050600061182585611832565b9190911495945050505050565b6000610a206001611843848461184e565b84919060ff16611e22565b600082828151811061186257611862613015565b016020015160f81c905092915050565b82516060906118818385613116565b111561188c57600080fd5b60008267ffffffffffffffff8111156118a7576118a7612b20565b6040519080825280601f01601f1916602001820160405280156118d1576020820181803683370190505b509050602080820190868601016118e98282876120a2565b509095945050505050565b815160ff166000908152600560205260408082205460608501518286015192517f68f9dab200000000000000000000000000000000000000000000000000000000815273ffffffffffffffffffffffffffffffffffffffff909216926368f9dab2926119659291879160040161325a565b602060405180830381865afa158015611982573d6000803e3d6000fd5b505050506040513d601f19601f82011682018060405250810190610a1d9190613294565b6119f46040518060e001604052806060815260200160008152602001600061ffff168152602001600061ffff168152602001600063ffffffff16815260200160008152602001600081525090565b82815260c08101829052610a2081610e56565b6000815b83518110611a1b57611a1b6131b8565b6000611a27858361184e565b60ff169050611a37816001613116565b611a419083613116565b915080600003611a515750611a57565b50611a0b565b610bf683826130da565b6000611a6d83836120f8565b15611a7a57506000610a20565b6000806000806000611a8d8860006113db565b90506000611a9c8860006113db565b90505b80821115611ac857859350611ab48987612116565b955081611ac0816132ad565b925050611a9f565b81811115611af157849250611add8886612116565b945080611ae9816132ad565b915050611ac8565b600082118015611b0a5750611b0889878a88611c6b565b155b15611b3f57859350611b1c8987612116565b9550849250611b2b8886612116565b9450611b386001836130da565b9150611af1565b85600003611b57576000199650505050505050610a20565b84600003611b6e5760019650505050505050610a20565b611bad611b7c856001613116565b611b868b8761184e565b60ff168a611b95876001613116565b611b9f8d8961184e565b8e949392919060ff1661213a565b9998505050505050505050565b8151600090611bca836002613116565b1115611bd557600080fd5b50016002015161ffff1690565b8151600090611bf2836004613116565b1115611bfd57600080fd5b50016004015163ffffffff1690565b60606000611c1a8484611a07565b9050610bf6848483611872565b60208101518151606091610a2091611c3f9082611a07565b84519190611872565b6000611c5584848461222f565b611c6087878561222f565b149695505050505050565b6000611c848383848651611c7f91906130da565b61222f565b611c968686878951611c7f91906130da565b1495945050505050565b600080611cac85610d32565b90505b80515160208201511015610bf257604081015161ffff16603014611cd257600080fd5b6000611cdd82612253565b90506000611cf8600083518461226f9092919063ffffffff16565b9050611d068183898961230d565b15611d2957611d1f611d1784611c27565b868385612438565b93505050506108d0565b5050611d3481610e56565b611caf565b6000611d528460e00151611d4c84611c27565b906120f8565b611d5b57600080fd5b81515160208301511015611dd757611d7a8460e00151611d4c84611c27565b611d8357600080fd5b6000611d8e83612253565b90506000611da9600083518461226f9092919063ffffffff16565b9050611db78183888861230d565b15611dc7576001925050506108d0565b5050611dd282610e56565b611d5b565b5060009392505050565b60006020821115611df157600080fd5b8351611dfd8385613116565b1115611e0857600080fd5b506020919092018101519190036101000a60001901191690565b60006034821115611e3257600080fd5b600080805b84811015611f8657600087611e4c8389613116565b81518110611e5c57611e5c613015565b01602001517fff000000000000000000000000000000000000000000000000000000000000001690507f30000000000000000000000000000000000000000000000000000000000000008110801590611ef757507f7a000000000000000000000000000000000000000000000000000000000000007fff00000000000000000000000000000000000000000000000000000000000000821611155b611f0057600080fd5b6040518060800160405280604781526020016134b760479139611f28603060f884901c6130da565b81518110611f3857611f38613015565b0160209081015160f81c9350831115611f5057600080fd5b611f5b6001876130da565b8203611f675750611f86565b5060059290921b60ff8216179180611f7e81613073565b915050611e37565b506000611f948560056132c4565b9050611fa16008866132e3565b600003611fb9578160ff16600584901b179250612088565b611fc46008866132e3565b600203611ff25760028260ff16901c60ff16600384901b179250600281611feb91906130da565b9050612088565b611ffd6008866132e3565b6004036120245760048260ff16901c60ff16600184901b179250600481611feb91906130da565b61202f6008866132e3565b6005036120565760018260ff16901c60ff16600484901b179250600181611feb91906130da565b6120616008866132e3565b6007036100ea5760038260ff16901c60ff16600284901b179250600381611feb91906130da565b612094816101006130da565b9290921b9695505050505050565b602081106120da57815183526120b9602084613116565b92506120c6602083613116565b91506120d36020826130da565b90506120a2565b905182516020929092036101000a6000190180199091169116179052565b600081518351148015610a1d5750610a1d8360008460008751611c48565b6000612122838361184e565b60ff16612130836001613116565b610a1d9190613116565b600084808310156121485750815b60208789018101908587010160005b8381101561221457825182518082146121e4576000602087111561217e57506000196121ba565b60018461218c8960206130da565b6121969190613116565b6121a19060086132c4565b6121ac9060026133db565b6121b691906130da565b1990505b60006121ca8383168584166133e7565b905080156121e15797506122259650505050505050565b50505b6121ef602086613116565b94506121fc602085613116565b9350505060208161220d9190613116565b9050612157565b5061221f85896133e7565b93505050505b9695505050505050565b825160009061223e8385613116565b111561224957600080fd5b5091016020012090565b60a081015160c0820151606091610a2091611c3f9082906130da565b60408051608081018252600080825260208201819052918101919091526060808201526122a76122a0600085613116565b8590611bba565b61ffff1681526122c26122bb600285613116565b859061184e565b60ff1660208201526122d86122bb600385613116565b60ff1660408201526123016122ee600485613116565b6122f96004856130da565b869190611872565b60608201529392505050565b6000846020015160ff1660031461232657506000610bf6565b826020015160ff16856040015160ff161461234357506000610bf6565b600061234e85612539565b90508360c0015161ffff168161ffff161461236d576000915050610bf6565b855161010016600003612384576000915050610bf6565b60408087015160ff16600090815260036020908152908290205485519186015192517fde8f50a100000000000000000000000000000000000000000000000000000000815273ffffffffffffffffffffffffffffffffffffffff9091169263de8f50a1926123f7928a929060040161345b565b602060405180830381865afa158015612414573d6000803e3d6000fd5b505050506040513d601f19601f820116820180604052508101906122259190613494565b60008061244483612539565b90505b8451516020860151101561252d5760a085015160c086015160009161247a916124719082906130da565b8851919061226f565b90508161ffff16816000015161ffff1614612495575061251f565b846040015160ff16816020015160ff16146124b0575061251f565b6040805180820190915260608152600060208201526124dd855189516124d69190613116565b829061277d565b506124e881896127e2565b506124f381866127e2565b5061250b826040015182600001518460600151612809565b1561251c5760019350505050610bf6565b50505b61252885610e56565b612447565b50600095945050505050565b6000612000825111156125a8576040517f08c379a000000000000000000000000000000000000000000000000000000000815260206004820152601760248201527f4c6f6e67206b657973206e6f74207065726d69747465640000000000000000006044820152606401611531565b60008060005b8451601f0181101561261d57600081602087010151905085518260200111156125e35785518290036008026101000390811c901b5b7eff00ff00ff00ff00ff00ff00ff00ff00ff00ff00ff00ff00ff00ff00ff00ff600882901c811694909401931691909101906020016125ae565b506010827fffff0000ffff0000ffff0000ffff0000ffff0000ffff0000ffff0000ffff000016901c827dffff0000ffff0000ffff0000ffff0000ffff0000ffff0000ffff0000ffff160191506010817fffff0000ffff0000ffff0000ffff0000ffff0000ffff0000ffff0000ffff000016901c817dffff0000ffff0000ffff0000ffff0000ffff0000ffff0000ffff0000ffff1601905080600883901b0191506020827fffffffff00000000ffffffff00000000ffffffff00000000ffffffff0000000016901c827bffffffff00000000ffffffff00000000ffffffff00000000ffffffff160191506040827fffffffffffffffff0000000000000000ffffffffffffffff000000000000000016901c8277ffffffffffffffff0000000000000000ffffffffffffffff16019150608082901c826fffffffffffffffffffffffffffffffff16019150601082901c61ffff16820191508192505050919050565b60408051808201909152606081526000602082015261279d6020836132e3565b156127c5576127ad6020836132e3565b6127b89060206130da565b6127c29083613116565b91505b506020828101829052604080518085526000815290920101905290565b604080518082019091526060815260006020820152610a1d838460000151518485516128e8565b60ff831660009081526004602052604081205473ffffffffffffffffffffffffffffffffffffffff1661283e575060006108d0565b60ff84166000908152600460208190526040918290205491517ff7e83aee00000000000000000000000000000000000000000000000000000000815273ffffffffffffffffffffffffffffffffffffffff9092169163f7e83aee916128a7918791879101613193565b602060405180830381865afa1580156128c4573d6000803e3d6000fd5b505050506040513d601f19601f82011682018060405250810190610bf69190613494565b604080518082019091526060815260006020820152825182111561290b57600080fd5b602085015161291a8386613116565b111561294d5761294d8561293d876020015187866129389190613116565b6129d2565b6129489060026132c4565b6129e9565b60008086518051876020830101935080888701111561296c5787860182525b505050602084015b602084106129ac578051825261298b602083613116565b9150612998602082613116565b90506129a56020856130da565b9350612974565b51815160001960208690036101000a019081169019919091161790525083949350505050565b6000818311156129e3575081610a20565b50919050565b81516129f5838361277d565b5061084983826127e2565b803560ff81168114612a1157600080fd5b919050565b73ffffffffffffffffffffffffffffffffffffffff81168114612a3857600080fd5b50565b60008060408385031215612a4e57600080fd5b612a5783612a00565b91506020830135612a6781612a16565b809150509250929050565b803561ffff81168114612a1157600080fd5b60008083601f840112612a9657600080fd5b50813567ffffffffffffffff811115612aae57600080fd5b602083019150836020828501011115612ac657600080fd5b9250929050565b600080600060408486031215612ae257600080fd5b612aeb84612a72565b9250602084013567ffffffffffffffff811115612b0757600080fd5b612b1386828701612a84565b9497909650939450505050565b7f4e487b7100000000000000000000000000000000000000000000000000000000600052604160045260246000fd5b604051601f82017fffffffffffffffffffffffffffffffffffffffffffffffffffffffffffffffe016810167ffffffffffffffff81118282101715612b9657612b96612b20565b604052919050565b600082601f830112612baf57600080fd5b813567ffffffffffffffff811115612bc957612bc9612b20565b612bfa60207fffffffffffffffffffffffffffffffffffffffffffffffffffffffffffffffe0601f84011601612b4f565b818152846020838601011115612c0f57600080fd5b816020850160208301376000918101602001919091529392505050565b600060408284031215612c3e57600080fd5b6040516040810167ffffffffffffffff8282108183111715612c6257612c62612b20565b816040528293508435915080821115612c7a57600080fd5b612c8686838701612b9e565b83526020850135915080821115612c9c57600080fd5b50612ca985828601612b9e565b6020830152505092915050565b600080600080600060a08688031215612cce57600080fd5b612cd786612a72565b9450602086013567ffffffffffffffff80821115612cf457600080fd5b612d0089838a01612b9e565b95506040880135915080821115612d1657600080fd5b612d2289838a01612c2c565b94506060880135915080821115612d3857600080fd5b612d4489838a01612c2c565b93506080880135915080821115612d5a57600080fd5b50612d6788828901612b9e565b9150509295509295909350565b600060208284031215612d8657600080fd5b8135610a1d81612a16565b60008060008060808587031215612da757600080fd5b612db085612a72565b9350602085013567ffffffffffffffff80821115612dcd57600080fd5b612dd988838901612b9e565b94506040870135915080821115612def57600080fd5b612dfb88838901612c2c565b93506060870135915080821115612e1157600080fd5b50612e1e87828801612b9e565b91505092959194509250565b600080600060408486031215612e3f57600080fd5b833567ffffffffffffffff80821115612e5757600080fd5b818601915086601f830112612e6b57600080fd5b8135602082821115612e7f57612e7f612b20565b8160051b612e8e828201612b4f565b928352848101820192828101908b851115612ea857600080fd5b83870192505b84831015612ee457823586811115612ec65760008081fd5b612ed48d86838b0101612c2c565b8352509183019190830190612eae565b9850505087013592505080821115612efb57600080fd5b50612b1386828701612a84565b6000815180845260005b81811015612f2e57602081850181015186830182015201612f12565b81811115612f40576000602083870101525b50601f017fffffffffffffffffffffffffffffffffffffffffffffffffffffffffffffffe0169290920160200192915050565b602081526000610a1d6020830184612f08565b600060208284031215612f9857600080fd5b610a1d82612a00565b60008060408385031215612fb457600080fd5b823567ffffffffffffffff80821115612fcc57600080fd5b612fd886838701612c2c565b93506020850135915080821115612fee57600080fd5b50612ffb85828601612b9e565b9150509250929050565b8183823760009101908152919050565b7f4e487b7100000000000000000000000000000000000000000000000000000000600052603260045260246000fd5b7f4e487b7100000000000000000000000000000000000000000000000000000000600052601160045260246000fd5b6000600019820361308657613086613044565b5060010190565b600181811c908216806130a157607f821691505b6020821081036129e3577f4e487b7100000000000000000000000000000000000000000000000000000000600052602260045260246000fd5b6000828210156130ec576130ec613044565b500390565b600060ff821660ff84168060ff0382111561310e5761310e613044565b019392505050565b6000821982111561312957613129613044565b500190565b60008160030b8360030b60008112817fffffffffffffffffffffffffffffffffffffffffffffffffffffffff800000000183128115161561317157613171613044565b81637fffffff01831381161561318957613189613044565b5090039392505050565b6040815260006131a66040830185612f08565b8281036020840152610d108185612f08565b7f4e487b7100000000000000000000000000000000000000000000000000000000600052600160045260246000fd5b7f4e487b7100000000000000000000000000000000000000000000000000000000600052601260045260246000fd5b600061ffff8084168061322b5761322b6131e7565b92169190910492915050565b600060ff821660ff84168082101561325157613251613044565b90039392505050565b60608152600061326d6060830186612f08565b828103602084015261327f8186612f08565b91505061ffff83166040830152949350505050565b6000602082840312156132a657600080fd5b5051919050565b6000816132bc576132bc613044565b506000190190565b60008160001904831182151516156132de576132de613044565b500290565b6000826132f2576132f26131e7565b500690565b600181815b8085111561333257816000190482111561331857613318613044565b8085161561332557918102915b93841c93908002906132fc565b509250929050565b60008261334957506001610a20565b8161335657506000610a20565b816001811461336c576002811461337657613392565b6001915050610a20565b60ff84111561338757613387613044565b50506001821b610a20565b5060208310610133831016604e8410600b84101617156133b5575081810a610a20565b6133bf83836132f7565b80600019048211156133d3576133d3613044565b029392505050565b6000610a1d838361333a565b6000808312837f80000000000000000000000000000000000000000000000000000000000000000183128115161561342157613421613044565b837f7fffffffffffffffffffffffffffffffffffffffffffffffffffffffffffffff01831381161561345557613455613044565b50500390565b60608152600061346e6060830186612f08565b82810360208401526134808186612f08565b905082810360408401526122258185612f08565b6000602082840312156134a657600080fd5b81518015158114610a1d57600080fdfe00010203040506070809ffffffffffffff0a0b0c0d0e0f101112131415161718191a1b1c1d1e1fffffffffffffffffffff0a0b0c0d0e0f101112131415161718191a1b1c1d1e1fa264697066735822122044ecdc7938e995ea214268ebadb8d4d83adfe70ee006ffc4a279649e78f8a89064736f6c634300080d0033",
  "devdoc": {
    "kind": "dev",
    "methods": {
      "constructor": {
        "details": "Constructor.",
        "params": {
          "_anchors": "The binary format RR entries for the root DS records."
        }
      },
      "deleteRRSet(uint16,bytes,(bytes,bytes),bytes)": {
        "details": "Deletes an RR from the oracle.",
        "params": {
          "deleteName": "which you want to delete",
          "deleteType": "The DNS record type to delete.",
          "nsec": "The signed NSEC RRset. This is in the format described in section        5.3.2 of RFC4035: The RRDATA section from the RRSIG without the signature        data, followed by a series of canonicalised RR records that the signature        applies to."
        }
      },
      "deleteRRSetNSEC3(uint16,bytes,(bytes,bytes),(bytes,bytes),bytes)": {
        "details": "Deletes an RR from the oracle using an NSEC3 proof.      Deleting a record using NSEC3 requires using up to two NSEC3 records. There are two cases:       1. The name exists, but the record type doesn't. Eg, example.com has A records but no TXT records.       2. The name does not exist, but a parent name does.      In the first case, we submit one NSEC3 proof in `closestEncloser` that matches the target name      but does not have the bit for `deleteType` set in its type bitmap. In the second case, we submit      two proofs: closestEncloser and nextClosest, that together prove that the name does not exist.      NSEC3 records are in the format described in section 5.3.2 of RFC4035: The RRDATA section      from the RRSIG without the signature data, followed by a series of canonicalised RR records      that the signature applies to.",
        "params": {
          "closestEncloser": "An NSEC3 proof matching the closest enclosing name - that is,        the nearest ancestor of the target name that *does* exist.",
          "deleteName": "The name to delete.",
          "deleteType": "The DNS record type to delete.",
          "dnskey": "An encoded DNSKEY record that has already been submitted to the oracle and can be used        to verify the signatures closestEncloserSig and nextClosestSig",
          "nextClosest": "An NSEC3 proof covering the next closest name. This proves that the immediate        subdomain of the closestEncloser does not exist."
        }
      },
      "rrdata(uint16,bytes)": {
        "details": "Returns data about the RRs (if any) known to this oracle with the provided type and name.",
        "params": {
          "dnstype": "The DNS record type to query.",
          "name": "The name to query, in DNS label-sequence format."
        },
        "returns": {
          "_0": "inception The unix timestamp (wrapped) at which the signature for this RRSET was created.",
          "_1": "expiration The unix timestamp (wrapped) at which the signature for this RRSET expires.",
          "_2": "hash The hash of the RRset."
        }
      },
      "setAlgorithm(uint8,address)": {
        "details": "Sets the contract address for a signature verification algorithm.      Callable only by the owner.",
        "params": {
          "algo": "The address of the algorithm contract.",
          "id": "The algorithm ID"
        }
      },
      "setDigest(uint8,address)": {
        "details": "Sets the contract address for a digest verification algorithm.      Callable only by the owner.",
        "params": {
          "digest": "The address of the digest contract.",
          "id": "The digest ID"
        }
      },
      "setNSEC3Digest(uint8,address)": {
        "details": "Sets the contract address for an NSEC3 digest algorithm.      Callable only by the owner.",
        "params": {
          "digest": "The address of the digest contract.",
          "id": "The digest ID"
        }
      },
      "submitRRSet((bytes,bytes),bytes)": {
        "details": "Submits a signed set of RRs to the oracle. RRSETs are only accepted if they are signed with a key that is already trusted, or if they are self-signed, and the signing key is identified by a DS record that is already trusted.",
        "params": {
          "input": "The signed RR set. This is in the format described in section        5.3.2 of RFC4035: The RRDATA section from the RRSIG without the signature        data, followed by a series of canonicalised RR records that the signature        applies to.",
          "proof": "The DNSKEY or DS to validate the signature against. Must Already        have been submitted and proved previously."
        }
      },
      "submitRRSets((bytes,bytes)[],bytes)": {
        "details": "Submits multiple RRSets",
        "params": {
          "_proof": "The DNSKEY or DS to validate the first signature against.",
          "input": "A list of RRSets and signatures forming a chain of trust from an existing known-good record."
        },
        "returns": {
          "_0": "The last RRSET submitted."
        }
      }
    },
    "version": 1
  },
  "userdoc": {
    "kind": "user",
    "methods": {},
    "version": 1
  },
  "storageLayout": {
    "storage": [
      {
        "astId": 4248,
        "contract": "contracts/dnssec-oracle/DNSSECImpl.sol:DNSSECImpl",
        "label": "anchors",
        "offset": 0,
        "slot": "0",
        "type": "t_bytes_storage"
      },
      {
        "astId": 6088,
        "contract": "contracts/dnssec-oracle/DNSSECImpl.sol:DNSSECImpl",
        "label": "owner",
        "offset": 0,
        "slot": "1",
        "type": "t_address"
      },
      {
        "astId": 4413,
        "contract": "contracts/dnssec-oracle/DNSSECImpl.sol:DNSSECImpl",
        "label": "rrsets",
        "offset": 0,
        "slot": "2",
        "type": "t_mapping(t_bytes32,t_mapping(t_uint16,t_struct(RRSet)4406_storage))"
      },
      {
        "astId": 4418,
        "contract": "contracts/dnssec-oracle/DNSSECImpl.sol:DNSSECImpl",
        "label": "algorithms",
        "offset": 0,
        "slot": "3",
        "type": "t_mapping(t_uint8,t_contract(Algorithm)7495)"
      },
      {
        "astId": 4423,
        "contract": "contracts/dnssec-oracle/DNSSECImpl.sol:DNSSECImpl",
        "label": "digests",
        "offset": 0,
        "slot": "4",
        "type": "t_mapping(t_uint8,t_contract(Digest)9336)"
      },
      {
        "astId": 4428,
        "contract": "contracts/dnssec-oracle/DNSSECImpl.sol:DNSSECImpl",
        "label": "nsec3Digests",
        "offset": 0,
        "slot": "5",
        "type": "t_mapping(t_uint8,t_contract(NSEC3Digest)9458)"
      }
    ],
    "types": {
      "t_address": {
        "encoding": "inplace",
        "label": "address",
        "numberOfBytes": "20"
      },
      "t_bytes20": {
        "encoding": "inplace",
        "label": "bytes20",
        "numberOfBytes": "20"
      },
      "t_bytes32": {
        "encoding": "inplace",
        "label": "bytes32",
        "numberOfBytes": "32"
      },
      "t_bytes_storage": {
        "encoding": "bytes",
        "label": "bytes",
        "numberOfBytes": "32"
      },
      "t_contract(Algorithm)7495": {
        "encoding": "inplace",
        "label": "contract Algorithm",
        "numberOfBytes": "20"
      },
      "t_contract(Digest)9336": {
        "encoding": "inplace",
        "label": "contract Digest",
        "numberOfBytes": "20"
      },
      "t_contract(NSEC3Digest)9458": {
        "encoding": "inplace",
        "label": "contract NSEC3Digest",
        "numberOfBytes": "20"
      },
      "t_mapping(t_bytes32,t_mapping(t_uint16,t_struct(RRSet)4406_storage))": {
        "encoding": "mapping",
        "key": "t_bytes32",
        "label": "mapping(bytes32 => mapping(uint16 => struct DNSSECImpl.RRSet))",
        "numberOfBytes": "32",
        "value": "t_mapping(t_uint16,t_struct(RRSet)4406_storage)"
      },
      "t_mapping(t_uint16,t_struct(RRSet)4406_storage)": {
        "encoding": "mapping",
        "key": "t_uint16",
        "label": "mapping(uint16 => struct DNSSECImpl.RRSet)",
        "numberOfBytes": "32",
        "value": "t_struct(RRSet)4406_storage"
      },
      "t_mapping(t_uint8,t_contract(Algorithm)7495)": {
        "encoding": "mapping",
        "key": "t_uint8",
        "label": "mapping(uint8 => contract Algorithm)",
        "numberOfBytes": "32",
        "value": "t_contract(Algorithm)7495"
      },
      "t_mapping(t_uint8,t_contract(Digest)9336)": {
        "encoding": "mapping",
        "key": "t_uint8",
        "label": "mapping(uint8 => contract Digest)",
        "numberOfBytes": "32",
        "value": "t_contract(Digest)9336"
      },
      "t_mapping(t_uint8,t_contract(NSEC3Digest)9458)": {
        "encoding": "mapping",
        "key": "t_uint8",
        "label": "mapping(uint8 => contract NSEC3Digest)",
        "numberOfBytes": "32",
        "value": "t_contract(NSEC3Digest)9458"
      },
      "t_struct(RRSet)4406_storage": {
        "encoding": "inplace",
        "label": "struct DNSSECImpl.RRSet",
        "members": [
          {
            "astId": 4401,
            "contract": "contracts/dnssec-oracle/DNSSECImpl.sol:DNSSECImpl",
            "label": "inception",
            "offset": 0,
            "slot": "0",
            "type": "t_uint32"
          },
          {
            "astId": 4403,
            "contract": "contracts/dnssec-oracle/DNSSECImpl.sol:DNSSECImpl",
            "label": "expiration",
            "offset": 4,
            "slot": "0",
            "type": "t_uint32"
          },
          {
            "astId": 4405,
            "contract": "contracts/dnssec-oracle/DNSSECImpl.sol:DNSSECImpl",
            "label": "hash",
            "offset": 8,
            "slot": "0",
            "type": "t_bytes20"
          }
        ],
        "numberOfBytes": "32"
      },
      "t_uint16": {
        "encoding": "inplace",
        "label": "uint16",
        "numberOfBytes": "2"
      },
      "t_uint32": {
        "encoding": "inplace",
        "label": "uint32",
        "numberOfBytes": "4"
      },
      "t_uint8": {
        "encoding": "inplace",
        "label": "uint8",
        "numberOfBytes": "1"
      }
    }
  }
}